{
  "_format": "hh-sol-artifact-1",
  "contractName": "DesImages",
  "sourceName": "contracts/DesImages.sol",
  "abi": [
    {
      "inputs": [],
      "stateMutability": "nonpayable",
      "type": "constructor"
    },
    {
      "inputs": [],
      "name": "DesImages__CreatorTransferFail",
      "type": "error"
    },
    {
      "inputs": [],
      "name": "DesImages__FutureDate",
      "type": "error"
    },
    {
      "inputs": [],
      "name": "DesImages__InvalidDate",
      "type": "error"
    },
    {
      "inputs": [],
      "name": "DesImages__NotEnoughETHSent",
      "type": "error"
    },
    {
      "inputs": [],
      "name": "DesImages__OwnerTransferFail",
      "type": "error"
    },
    {
      "inputs": [],
      "name": "DesImages__TokenNotForSale",
      "type": "error"
    },
    {
      "inputs": [],
      "name": "DesImages__TokenNotOwned",
      "type": "error"
    },
    {
      "anonymous": false,
      "inputs": [
        {
          "indexed": true,
          "internalType": "address",
          "name": "owner",
          "type": "address"
        },
        {
          "indexed": true,
          "internalType": "address",
          "name": "approved",
          "type": "address"
        },
        {
          "indexed": true,
          "internalType": "uint256",
          "name": "tokenId",
          "type": "uint256"
        }
      ],
      "name": "Approval",
      "type": "event"
    },
    {
      "anonymous": false,
      "inputs": [
        {
          "indexed": true,
          "internalType": "address",
          "name": "owner",
          "type": "address"
        },
        {
          "indexed": true,
          "internalType": "address",
          "name": "operator",
          "type": "address"
        },
        {
          "indexed": false,
          "internalType": "bool",
          "name": "approved",
          "type": "bool"
        }
      ],
      "name": "ApprovalForAll",
      "type": "event"
    },
    {
      "anonymous": false,
      "inputs": [
        {
          "indexed": true,
          "internalType": "address",
          "name": "from",
          "type": "address"
        },
        {
          "indexed": true,
          "internalType": "uint256",
          "name": "tokenId",
          "type": "uint256"
        },
        {
          "indexed": false,
          "internalType": "uint256",
          "name": "burnReward",
          "type": "uint256"
        },
        {
          "indexed": false,
          "internalType": "uint256",
          "name": "totalSupply",
          "type": "uint256"
        }
      ],
      "name": "Burned",
      "type": "event"
    },
    {
      "anonymous": false,
      "inputs": [
        {
          "indexed": true,
          "internalType": "address",
          "name": "to",
          "type": "address"
        },
        {
          "indexed": true,
          "internalType": "uint256",
          "name": "tokenId",
          "type": "uint256"
        },
        {
          "indexed": false,
          "internalType": "uint256",
          "name": "mintPrice",
          "type": "uint256"
        },
        {
          "indexed": false,
          "internalType": "uint256",
          "name": "totalSupply",
          "type": "uint256"
        },
        {
          "indexed": false,
          "internalType": "uint256",
          "name": "totalEverMinted",
          "type": "uint256"
        }
      ],
      "name": "Minted",
      "type": "event"
    },
    {
      "anonymous": false,
      "inputs": [
        {
          "indexed": true,
          "internalType": "address",
          "name": "previousOwner",
          "type": "address"
        },
        {
          "indexed": true,
          "internalType": "address",
          "name": "newOwner",
          "type": "address"
        }
      ],
      "name": "OwnershipTransferred",
      "type": "event"
    },
    {
      "anonymous": false,
      "inputs": [
        {
          "indexed": true,
          "internalType": "address",
          "name": "from",
          "type": "address"
        },
        {
          "indexed": true,
          "internalType": "address",
          "name": "to",
          "type": "address"
        },
        {
          "indexed": true,
          "internalType": "uint256",
          "name": "tokenId",
          "type": "uint256"
        }
      ],
      "name": "Transfer",
      "type": "event"
    },
    {
      "inputs": [
        {
          "internalType": "address",
          "name": "to",
          "type": "address"
        },
        {
          "internalType": "uint256",
          "name": "tokenId",
          "type": "uint256"
        }
      ],
      "name": "approve",
      "outputs": [],
      "stateMutability": "nonpayable",
      "type": "function"
    },
    {
      "inputs": [
        {
          "internalType": "address",
          "name": "owner",
          "type": "address"
        }
      ],
      "name": "balanceOf",
      "outputs": [
        {
          "internalType": "uint256",
          "name": "",
          "type": "uint256"
        }
      ],
      "stateMutability": "view",
      "type": "function"
    },
    {
      "inputs": [
        {
          "internalType": "uint256",
          "name": "tokenId_",
          "type": "uint256"
        }
      ],
      "name": "burn",
      "outputs": [],
      "stateMutability": "nonpayable",
      "type": "function"
    },
    {
      "inputs": [],
      "name": "currentBurnReward",
      "outputs": [
        {
          "internalType": "uint256",
          "name": "",
          "type": "uint256"
        }
      ],
      "stateMutability": "view",
      "type": "function"
    },
    {
      "inputs": [],
      "name": "currentMintPrice",
      "outputs": [
        {
          "internalType": "uint256",
          "name": "",
          "type": "uint256"
        }
      ],
      "stateMutability": "view",
      "type": "function"
    },
    {
      "inputs": [
        {
          "internalType": "uint256",
          "name": "tokenId",
          "type": "uint256"
        }
      ],
      "name": "getApproved",
      "outputs": [
        {
          "internalType": "address",
          "name": "",
          "type": "address"
        }
      ],
      "stateMutability": "view",
      "type": "function"
    },
    {
      "inputs": [
        {
          "internalType": "uint256",
          "name": "tokenId_",
          "type": "uint256"
        }
      ],
      "name": "getTokenStatus",
      "outputs": [
        {
          "internalType": "enum DesImages.Status",
          "name": "",
          "type": "uint8"
        }
      ],
      "stateMutability": "view",
      "type": "function"
    },
    {
      "inputs": [
        {
          "internalType": "address",
          "name": "owner",
          "type": "address"
        },
        {
          "internalType": "address",
          "name": "operator",
          "type": "address"
        }
      ],
      "name": "isApprovedForAll",
      "outputs": [
        {
          "internalType": "bool",
          "name": "",
          "type": "bool"
        }
      ],
      "stateMutability": "view",
      "type": "function"
    },
    {
      "inputs": [
        {
          "internalType": "uint32",
          "name": "date_",
          "type": "uint32"
        },
        {
          "internalType": "uint128",
          "name": "ciphertext_",
          "type": "uint128"
        }
      ],
      "name": "mint",
      "outputs": [
        {
          "internalType": "uint256",
          "name": "",
          "type": "uint256"
        }
      ],
      "stateMutability": "payable",
      "type": "function"
    },
    {
      "inputs": [],
      "name": "name",
      "outputs": [
        {
          "internalType": "string",
          "name": "",
          "type": "string"
        }
      ],
      "stateMutability": "view",
      "type": "function"
    },
    {
      "inputs": [],
      "name": "owner",
      "outputs": [
        {
          "internalType": "address",
          "name": "",
          "type": "address"
        }
      ],
      "stateMutability": "view",
      "type": "function"
    },
    {
      "inputs": [
        {
          "internalType": "uint256",
          "name": "tokenId",
          "type": "uint256"
        }
      ],
      "name": "ownerOf",
      "outputs": [
        {
          "internalType": "address",
          "name": "",
          "type": "address"
        }
      ],
      "stateMutability": "view",
      "type": "function"
    },
    {
      "inputs": [],
      "name": "pause",
      "outputs": [],
      "stateMutability": "nonpayable",
      "type": "function"
    },
    {
      "inputs": [],
      "name": "paused",
      "outputs": [
        {
          "internalType": "bool",
          "name": "",
          "type": "bool"
        }
      ],
      "stateMutability": "view",
      "type": "function"
    },
    {
      "inputs": [],
      "name": "renounceOwnership",
      "outputs": [],
      "stateMutability": "nonpayable",
      "type": "function"
    },
    {
      "inputs": [
        {
          "internalType": "uint256",
          "name": "_tokenId",
          "type": "uint256"
        },
        {
          "internalType": "uint256",
          "name": "_salePrice",
          "type": "uint256"
        }
      ],
      "name": "royaltyInfo",
      "outputs": [
        {
          "internalType": "address",
          "name": "",
          "type": "address"
        },
        {
          "internalType": "uint256",
          "name": "",
          "type": "uint256"
        }
      ],
      "stateMutability": "view",
      "type": "function"
    },
    {
      "inputs": [
        {
          "internalType": "address",
          "name": "from",
          "type": "address"
        },
        {
          "internalType": "address",
          "name": "to",
          "type": "address"
        },
        {
          "internalType": "uint256",
          "name": "tokenId",
          "type": "uint256"
        }
      ],
      "name": "safeTransferFrom",
      "outputs": [],
      "stateMutability": "nonpayable",
      "type": "function"
    },
    {
      "inputs": [
        {
          "internalType": "address",
          "name": "from",
          "type": "address"
        },
        {
          "internalType": "address",
          "name": "to",
          "type": "address"
        },
        {
          "internalType": "uint256",
          "name": "tokenId",
          "type": "uint256"
        },
        {
          "internalType": "bytes",
          "name": "_data",
          "type": "bytes"
        }
      ],
      "name": "safeTransferFrom",
      "outputs": [],
      "stateMutability": "nonpayable",
      "type": "function"
    },
    {
      "inputs": [
        {
          "internalType": "address",
          "name": "operator",
          "type": "address"
        },
        {
          "internalType": "bool",
          "name": "approved",
          "type": "bool"
        }
      ],
      "name": "setApprovalForAll",
      "outputs": [],
      "stateMutability": "nonpayable",
      "type": "function"
    },
    {
      "inputs": [
        {
          "internalType": "bytes4",
          "name": "interfaceId",
          "type": "bytes4"
        }
      ],
      "name": "supportsInterface",
      "outputs": [
        {
          "internalType": "bool",
          "name": "",
          "type": "bool"
        }
      ],
      "stateMutability": "view",
      "type": "function"
    },
    {
      "inputs": [],
      "name": "symbol",
      "outputs": [
        {
          "internalType": "string",
          "name": "",
          "type": "string"
        }
      ],
      "stateMutability": "view",
      "type": "function"
    },
    {
      "inputs": [
        {
          "internalType": "uint256",
          "name": "tokenId_",
          "type": "uint256"
        }
      ],
      "name": "tokenURI",
      "outputs": [
        {
          "internalType": "string",
          "name": "",
          "type": "string"
        }
      ],
      "stateMutability": "view",
      "type": "function"
    },
    {
      "inputs": [],
      "name": "totalEverMinted",
      "outputs": [
        {
          "internalType": "uint256",
          "name": "",
          "type": "uint256"
        }
      ],
      "stateMutability": "view",
      "type": "function"
    },
    {
      "inputs": [],
      "name": "totalSupply",
      "outputs": [
        {
          "internalType": "uint256",
          "name": "",
          "type": "uint256"
        }
      ],
      "stateMutability": "view",
      "type": "function"
    },
    {
      "inputs": [
        {
          "internalType": "address",
          "name": "from",
          "type": "address"
        },
        {
          "internalType": "address",
          "name": "to",
          "type": "address"
        },
        {
          "internalType": "uint256",
          "name": "tokenId",
          "type": "uint256"
        }
      ],
      "name": "transferFrom",
      "outputs": [],
      "stateMutability": "nonpayable",
      "type": "function"
    },
    {
      "inputs": [
        {
          "internalType": "address",
          "name": "newOwner",
          "type": "address"
        }
      ],
      "name": "transferOwnership",
      "outputs": [],
      "stateMutability": "nonpayable",
      "type": "function"
    },
    {
      "inputs": [],
      "name": "unpause",
      "outputs": [],
      "stateMutability": "nonpayable",
      "type": "function"
    }
  ],
  "bytecode": "0x60806040523480156200001157600080fd5b506040805180820182526009815268646573496d6167657360b81b602080830191825283518085019094526007845266444553494d475360c81b908401528151919291620000629160009162000209565b5080516200007890600190602084019062000209565b505050620000956200008f620000ae60201b60201c565b620000b2565b6001600955620000a8336101f462000104565b620002eb565b3390565b600880546001600160a01b038381166001600160a01b0319831681179093556040519116919082907f8be0079c531659141344cd1fd0a4f28419497f9722a3daafe3b4186f6b6457e090600090a35050565b6127106001600160601b0382161115620001785760405162461bcd60e51b815260206004820152602a60248201527f455243323938313a20726f79616c7479206665652077696c6c206578636565646044820152692073616c65507269636560b01b60648201526084015b60405180910390fd5b6001600160a01b038216620001d05760405162461bcd60e51b815260206004820152601960248201527f455243323938313a20696e76616c69642072656365697665720000000000000060448201526064016200016f565b604080518082019091526001600160a01b039092168083526001600160601b039091166020909201829052600160a01b90910217600655565b8280546200021790620002af565b90600052602060002090601f0160209004810192826200023b576000855562000286565b82601f106200025657805160ff191683800117855562000286565b8280016001018555821562000286579182015b828111156200028657825182559160200191906001019062000269565b506200029492915062000298565b5090565b5b8082111562000294576000815560010162000299565b600181811c90821680620002c457607f821691505b602082108103620002e557634e487b7160e01b600052602260045260246000fd5b50919050565b61318280620002fb6000396000f3fe60806040526004361061019c5760003560e01c80636352211e116100ec57806395d89b411161008a578063c87b56dd11610064578063c87b56dd1461049e578063e985e9c5146104be578063f2fde38b146104de578063fa35fab1146104fe57600080fd5b806395d89b4114610449578063a22cb4651461045e578063b88d4fde1461047e57600080fd5b80638456cb59116100c65780638456cb59146103c35780638da5cb5b146103d85780638f07c2b4146103f6578063924808b41461043357600080fd5b80636352211e1461036e57806370a082311461038e578063715018a6146103ae57600080fd5b80631a35c9d0116101595780633f4ba83a116101335780633f4ba83a146102ff57806342842e0e1461031457806342966c68146103345780635c975abb1461035457600080fd5b80631a35c9d01461028b57806323b872dd146102a05780632a55205a146102c057600080fd5b806301ffc9a7146101a15780630561942a146101d657806306fdde03146101f9578063081812fc1461021b578063095ea7b31461025357806318160ddd14610275575b600080fd5b3480156101ad57600080fd5b506101c16101bc3660046121eb565b610511565b60405190151581526020015b60405180910390f35b3480156101e257600080fd5b506101eb610522565b6040519081526020016101cd565b34801561020557600080fd5b5061020e610550565b6040516101cd9190612260565b34801561022757600080fd5b5061023b610236366004612273565b6105e2565b6040516001600160a01b0390911681526020016101cd565b34801561025f57600080fd5b5061027361026e3660046122a8565b61067c565b005b34801561028157600080fd5b506101eb600b5481565b34801561029757600080fd5b506101eb610791565b3480156102ac57600080fd5b506102736102bb3660046122d2565b6107b7565b3480156102cc57600080fd5b506102e06102db36600461230e565b6107e8565b604080516001600160a01b0390931683526020830191909152016101cd565b34801561030b57600080fd5b50610273610894565b34801561032057600080fd5b5061027361032f3660046122d2565b6108d9565b34801561034057600080fd5b5061027361034f366004612273565b6108f4565b34801561036057600080fd5b50600d546101c19060ff1681565b34801561037a57600080fd5b5061023b610389366004612273565b610a7f565b34801561039a57600080fd5b506101eb6103a9366004612330565b610af6565b3480156103ba57600080fd5b50610273610b7d565b3480156103cf57600080fd5b50610273610bb3565b3480156103e457600080fd5b506008546001600160a01b031661023b565b34801561040257600080fd5b50610426610411366004612273565b6000908152600a602052604090205460ff1690565b6040516101cd9190612361565b34801561043f57600080fd5b506101eb600c5481565b34801561045557600080fd5b5061020e610bfc565b34801561046a57600080fd5b50610273610479366004612389565b610c0b565b34801561048a57600080fd5b506102736104993660046123db565b610c1a565b3480156104aa57600080fd5b5061020e6104b9366004612273565b610c52565b3480156104ca57600080fd5b506101c16104d93660046124b7565b610d05565b3480156104ea57600080fd5b506102736104f9366004612330565b610d33565b6101eb61050c3660046124ea565b610dce565b600061051c826111d2565b92915050565b600b5460009061053966038d7ea4c6800082612543565b61054a90662386f26fc10000612562565b91505090565b60606000805461055f9061257a565b80601f016020809104026020016040519081016040528092919081815260200182805461058b9061257a565b80156105d85780601f106105ad576101008083540402835291602001916105d8565b820191906000526020600020905b8154815290600101906020018083116105bb57829003601f168201915b5050505050905090565b6000818152600260205260408120546001600160a01b03166106605760405162461bcd60e51b815260206004820152602c60248201527f4552433732313a20617070726f76656420717565727920666f72206e6f6e657860448201526b34b9ba32b73a103a37b5b2b760a11b60648201526084015b60405180910390fd5b506000908152600460205260409020546001600160a01b031690565b600061068782610a7f565b9050806001600160a01b0316836001600160a01b0316036106f45760405162461bcd60e51b815260206004820152602160248201527f4552433732313a20617070726f76616c20746f2063757272656e74206f776e656044820152603960f91b6064820152608401610657565b336001600160a01b038216148061071057506107108133610d05565b6107825760405162461bcd60e51b815260206004820152603860248201527f4552433732313a20617070726f76652063616c6c6572206973206e6f74206f7760448201527f6e6572206e6f7220617070726f76656420666f7220616c6c00000000000000006064820152608401610657565b61078c83836111f7565b505050565b60008061079c610522565b905061054a6107b266038d7ea4c68000836125b4565b611265565b6107c13382611280565b6107dd5760405162461bcd60e51b8152600401610657906125cb565b61078c838383611357565b60008281526007602090815260408083208151808301909252546001600160a01b038116808352600160a01b9091046001600160601b031692820192909252829161085d5750604080518082019091526006546001600160a01b0381168252600160a01b90046001600160601b031660208201525b60208101516000906127109061087c906001600160601b031687612543565b6108869190612632565b915196919550909350505050565b6008546001600160a01b031633146108be5760405162461bcd60e51b815260040161065790612646565b600d5460ff166108cd57600080fd5b600d805460ff19169055565b61078c83838360405180602001604052806000815250610c1a565b6002600954036109465760405162461bcd60e51b815260206004820152601f60248201527f5265656e7472616e637947756172643a207265656e7472616e742063616c6c006044820152606401610657565b600260095561095481610a7f565b6001600160a01b0316336001600160a01b0316146109855760405163f6b4882360e01b815260040160405180910390fd5b600061098f610791565b905061099a826114f3565b6000828152600a60205260408120805460ff19166002179055600b8054600192906109c69084906125b4565b9091555050604051600090339083908381818185875af1925050503d8060008114610a0d576040519150601f19603f3d011682016040523d82523d6000602084013e610a12565b606091505b5050905080610a3457604051637d8e64d960e01b815260040160405180910390fd5b600b54604080518481526020810192909252849133917f4c60206a5c1de41f3376d1d60f0949d96cb682033c90b1c2d9d9a62d4c4120c0910160405180910390a35050600160095550565b6000818152600260205260408120546001600160a01b03168061051c5760405162461bcd60e51b815260206004820152602960248201527f4552433732313a206f776e657220717565727920666f72206e6f6e657869737460448201526832b73a103a37b5b2b760b91b6064820152608401610657565b60006001600160a01b038216610b615760405162461bcd60e51b815260206004820152602a60248201527f4552433732313a2062616c616e636520717565727920666f7220746865207a65604482015269726f206164647265737360b01b6064820152608401610657565b506001600160a01b031660009081526003602052604090205490565b6008546001600160a01b03163314610ba75760405162461bcd60e51b815260040161065790612646565b610bb1600061158e565b565b6008546001600160a01b03163314610bdd5760405162461bcd60e51b815260040161065790612646565b600d5460ff1615610bed57600080fd5b600d805460ff19166001179055565b60606001805461055f9061257a565b610c163383836115e0565b5050565b610c243383611280565b610c405760405162461bcd60e51b8152600401610657906125cb565b610c4c848484846116ae565b50505050565b6000818152600260205260409020546060906001600160a01b0316610cc95760405162461bcd60e51b815260206004820152602760248201527f4552433732313a2055524920717565727920666f72206e6f6e6578697374656e6044820152663a103a37b5b2b760c91b6064820152608401610657565b6000828152600a602052604090208054610cfe90600160881b810463ffffffff169061010090046001600160801b03166116e1565b9392505050565b6001600160a01b03918216600090815260056020908152604080832093909416825291909152205460ff1690565b6008546001600160a01b03163314610d5d5760405162461bcd60e51b815260040161065790612646565b6001600160a01b038116610dc25760405162461bcd60e51b815260206004820152602660248201527f4f776e61626c653a206e6577206f776e657220697320746865207a65726f206160448201526564647265737360d01b6064820152608401610657565b610dcb8161158e565b50565b6000600260095403610e225760405162461bcd60e51b815260206004820152601f60248201527f5265656e7472616e637947756172643a207265656e7472616e742063616c6c006044820152606401610657565b6002600955600d5460ff1615610e3757600080fd5b8260ff8116600f600883901c1661ffff600c84901c166107e4811080610e62575061270f8161ffff16115b80610e7f5750610e7d8161ffff168360ff168560ff1661177c565b155b15610e9d57604051634cfd191160e11b815260040160405180910390fd5b42610eb38261ffff168460ff168660ff166117cc565b1115610ed25760405163157b6c4f60e31b815260040160405180910390fd5b6000610edc610522565b905080341015610eff576040516305bf393960e51b815260040160405180910390fd5b604080516001600160e01b031960e08b901b166020808301919091526fffffffffffffffffffffffffffffffff1960808b901b1660248301528251808303601401815260349092019092528051910120600080828152600a602052604090205460ff166002811115610f7357610f7361234b565b14610f91576040516319558d1960e11b815260040160405180910390fd5b610f9b3382611918565b604080516060810190915280600181526001600160801b038a1660208083019190915263ffffffff8c166040928301526000848152600a9091522081518154829060ff19166001836002811115610ff457610ff461234b565b02179055506020820151815460409093015163ffffffff16600160881b0263ffffffff60881b196001600160801b039092166101000291909116610100600160a81b031990931692909217919091179055600c80546001919060009061105b908490612562565b925050819055506001600b60008282546110759190612562565b90915550506008546000906001600160a01b031661109284611265565b61109c90856125b4565b604051600081818185875af1925050503d80600081146110d8576040519150601f19603f3d011682016040523d82523d6000602084013e6110dd565b606091505b50509050806110ff5760405163679ac27160e01b815260040160405180910390fd5b82341115611177573361111284346125b4565b604051600081818185875af1925050503d806000811461114e576040519150601f19603f3d011682016040523d82523d6000602084013e611153565b606091505b5050809150508061117757604051637d8e64d960e01b815260040160405180910390fd5b600b54600c54604080518681526020810193909352820152829033907f19f5f791ee407773427bf7b970bbbc3375065c32edd1ab142e23a84f94b0719b9060600160405180910390a350600160095598975050505050505050565b60006001600160e01b0319821663152a902d60e11b148061051c575061051c82611932565b600081815260046020526040902080546001600160a01b0319166001600160a01b038416908117909155819061122c82610a7f565b6001600160a01b03167f8c5be1e5ebec7d5bd14f71427d1e84f3dd0314c0f7b2291e5b200ac8c7c3b92560405160405180910390a45050565b60006127106112766126de84612543565b61051c9190612632565b6000818152600260205260408120546001600160a01b03166112f95760405162461bcd60e51b815260206004820152602c60248201527f4552433732313a206f70657261746f7220717565727920666f72206e6f6e657860448201526b34b9ba32b73a103a37b5b2b760a11b6064820152608401610657565b600061130483610a7f565b9050806001600160a01b0316846001600160a01b0316148061133f5750836001600160a01b0316611334846105e2565b6001600160a01b0316145b8061134f575061134f8185610d05565b949350505050565b826001600160a01b031661136a82610a7f565b6001600160a01b0316146113ce5760405162461bcd60e51b815260206004820152602560248201527f4552433732313a207472616e736665722066726f6d20696e636f72726563742060448201526437bbb732b960d91b6064820152608401610657565b6001600160a01b0382166114305760405162461bcd60e51b8152602060048201526024808201527f4552433732313a207472616e7366657220746f20746865207a65726f206164646044820152637265737360e01b6064820152608401610657565b61143b6000826111f7565b6001600160a01b03831660009081526003602052604081208054600192906114649084906125b4565b90915550506001600160a01b0382166000908152600360205260408120805460019290611492908490612562565b909155505060008181526002602052604080822080546001600160a01b0319166001600160a01b0386811691821790925591518493918716917fddf252ad1be2c89b69c2b068fc378daa952ba7f163c4a11628f55a4df523b3ef91a4505050565b60006114fe82610a7f565b905061150b6000836111f7565b6001600160a01b03811660009081526003602052604081208054600192906115349084906125b4565b909155505060008281526002602052604080822080546001600160a01b0319169055518391906001600160a01b038416907fddf252ad1be2c89b69c2b068fc378daa952ba7f163c4a11628f55a4df523b3ef908390a45050565b600880546001600160a01b038381166001600160a01b0319831681179093556040519116919082907f8be0079c531659141344cd1fd0a4f28419497f9722a3daafe3b4186f6b6457e090600090a35050565b816001600160a01b0316836001600160a01b0316036116415760405162461bcd60e51b815260206004820152601960248201527f4552433732313a20617070726f766520746f2063616c6c6572000000000000006044820152606401610657565b6001600160a01b03838116600081815260056020908152604080832094871680845294825291829020805460ff191686151590811790915591519182527f17307eab39ab6107e8899845ad3d59bd9653f200f220920489ca2b5937696c31910160405180910390a3505050565b6116b9848484611357565b6116c584848484611982565b610c4c5760405162461bcd60e51b81526004016106579061267b565b606060006116ee84611a83565b9050611754816117268361170187611b5e565b6040516020016117129291906126e9565b604051602081830303815290604052611c13565b60405160200161173691906127c9565b60408051601f1981840301815290829052611712929160200161280e565b6040516020016117649190612c3a565b60405160208183030381529060405291505092915050565b6000808311801561178e5750600c8311155b156117c257600061179f8585611d66565b90506000831180156117b15750808311155b156117c0576001915050610cfe565b505b5060009392505050565b60006107b28410156117dd57600080fd5b838383600062253d8c60046064600c6117f7600e88612c7f565b6118019190612cbe565b61180d88611324612cec565b6118179190612cec565b6118219190612cbe565b61182c906003612d2d565b6118369190612cbe565b600c80611844600e88612c7f565b61184e9190612cbe565b61185990600c612d2d565b611864600288612c7f565b61186e9190612c7f565b61187a9061016f612d2d565b6118849190612cbe565b6004600c611893600e89612c7f565b61189d9190612cbe565b6118a9896112c0612cec565b6118b39190612cec565b6118bf906105b5612d2d565b6118c99190612cbe565b6118d5617d4b87612c7f565b6118df9190612cec565b6118e99190612cec565b6118f39190612c7f565b6118fd9190612c7f565b905061190c6201518082612543565b98975050505050505050565b610c16828260405180602001604052806000815250611dec565b60006001600160e01b031982166380ac58cd60e01b148061196357506001600160e01b03198216635b5e139f60e01b145b8061051c57506301ffc9a760e01b6001600160e01b031983161461051c565b60006001600160a01b0384163b15611a7857604051630a85bd0160e11b81526001600160a01b0385169063150b7a02906119c6903390899088908890600401612db2565b6020604051808303816000875af1925050508015611a01575060408051601f3d908101601f191682019092526119fe91810190612def565b60015b611a5e573d808015611a2f576040519150601f19603f3d011682016040523d82523d6000602084013e611a34565b606091505b508051600003611a565760405162461bcd60e51b81526004016106579061267b565b805181602001fd5b6001600160e01b031916630a85bd0160e11b14905061134f565b506001949350505050565b606060ff8216600f600884901c1661ffff600c85901c16611aa381611e1f565b600a8360ff1610611abf57611aba8360ff16611e1f565b611aeb565b611acb8360ff16611e1f565b604051602001611adb9190612e0c565b6040516020818303038152906040525b600a8560ff1610611b0757611b028560ff16611e1f565b611b33565b611b138560ff16611e1f565b604051602001611b239190612e0c565b6040516020818303038152906040525b604051602001611b4593929190612e35565b6040516020818303038152906040529350505050919050565b60608060005b60108160ff161015611c0c576000611b93611b80836008612e94565b611b8b906008612ebd565b60ff16611e1f565b9050611bae611ba3836004612e94565b611b8b90603c612ee2565b611bc7611bbc846006612e94565b611b8b90605a612ee2565b8283611bd3868a611f20565b87604051602001611be996959493929190612f05565b60405160208183030381529060405292505080611c0590613003565b9050611b64565b5092915050565b60608151600003611c3257505060408051602081019091526000815290565b600060405180606001604052806040815260200161310d6040913990506000600384516002611c619190612562565b611c6b9190612632565b611c76906004612543565b67ffffffffffffffff811115611c8e57611c8e6123c5565b6040519080825280601f01601f191660200182016040528015611cb8576020820181803683370190505b509050600182016020820185865187015b80821015611d24576003820191508151603f8160121c168501518453600184019350603f81600c1c168501518453600184019350603f8160061c168501518453600184019350603f8116850151845350600183019250611cc9565b5050600386510660018114611d405760028114611d5357611d5b565b603d6001830353603d6002830353611d5b565b603d60018303535b509195945050505050565b60008160011480611d775750816003145b80611d825750816005145b80611d8d5750816007145b80611d985750816008145b80611da3575081600a145b80611dae575081600c145b15611dbb5750601f61051c565b81600214611dcb5750601e61051c565b611dd483612057565b611ddf57601c611de2565b601d5b60ff16905061051c565b611df68383612093565b611e036000848484611982565b61078c5760405162461bcd60e51b81526004016106579061267b565b606081600003611e465750506040805180820190915260018152600360fc1b602082015290565b8160005b8115611e705780611e5a81613022565b9150611e699050600a83612632565b9150611e4a565b60008167ffffffffffffffff811115611e8b57611e8b6123c5565b6040519080825280601f01601f191660200182016040528015611eb5576020820181803683370190505b5090505b841561134f57611eca6001836125b4565b9150611ed7600a8661303b565b611ee2906030612562565b60f81b818381518110611ef757611ef761304f565b60200101906001600160f81b031916908160001a905350611f19600a86612632565b9450611eb9565b60606000611f2f846008612e94565b6040805180820190915260108082526f181899199a1a9b1b9c1cb0b131b232b360811b60208301529192506001600160801b03851660ff84161c9160009190600f8416908110611f8157611f8161304f565b016020908101516040516001600160f81b03199091169181019190915260210160408051601f1981840301815282820190915260108083526f181899199a1a9b1b9c1cb0b131b232b360811b602084015290925060009190600f600486901c16908110611ff057611ff061304f565b016020908101516040516001600160f81b031990911691810191909152602101604051602081830303815290604052905080828284848660405160200161203c96959493929190613065565b60405160208183030381529060405294505050505092915050565b600061206460048361303b565b15801561207a575061207760648361303b565b15155b8061051c575061208c6101908361303b565b1592915050565b6001600160a01b0382166120e95760405162461bcd60e51b815260206004820181905260248201527f4552433732313a206d696e7420746f20746865207a65726f20616464726573736044820152606401610657565b6000818152600260205260409020546001600160a01b03161561214e5760405162461bcd60e51b815260206004820152601c60248201527f4552433732313a20746f6b656e20616c7265616479206d696e746564000000006044820152606401610657565b6001600160a01b0382166000908152600360205260408120805460019290612177908490612562565b909155505060008181526002602052604080822080546001600160a01b0319166001600160a01b03861690811790915590518392907fddf252ad1be2c89b69c2b068fc378daa952ba7f163c4a11628f55a4df523b3ef908290a45050565b6001600160e01b031981168114610dcb57600080fd5b6000602082840312156121fd57600080fd5b8135610cfe816121d5565b60005b8381101561222357818101518382015260200161220b565b83811115610c4c5750506000910152565b6000815180845261224c816020860160208601612208565b601f01601f19169290920160200192915050565b602081526000610cfe6020830184612234565b60006020828403121561228557600080fd5b5035919050565b80356001600160a01b03811681146122a357600080fd5b919050565b600080604083850312156122bb57600080fd5b6122c48361228c565b946020939093013593505050565b6000806000606084860312156122e757600080fd5b6122f08461228c565b92506122fe6020850161228c565b9150604084013590509250925092565b6000806040838503121561232157600080fd5b50508035926020909101359150565b60006020828403121561234257600080fd5b610cfe8261228c565b634e487b7160e01b600052602160045260246000fd5b602081016003831061238357634e487b7160e01b600052602160045260246000fd5b91905290565b6000806040838503121561239c57600080fd5b6123a58361228c565b9150602083013580151581146123ba57600080fd5b809150509250929050565b634e487b7160e01b600052604160045260246000fd5b600080600080608085870312156123f157600080fd5b6123fa8561228c565b93506124086020860161228c565b925060408501359150606085013567ffffffffffffffff8082111561242c57600080fd5b818701915087601f83011261244057600080fd5b813581811115612452576124526123c5565b604051601f8201601f19908116603f0116810190838211818310171561247a5761247a6123c5565b816040528281528a602084870101111561249357600080fd5b82602086016020830137600060208483010152809550505050505092959194509250565b600080604083850312156124ca57600080fd5b6124d38361228c565b91506124e16020840161228c565b90509250929050565b600080604083850312156124fd57600080fd5b823563ffffffff8116811461251157600080fd5b915060208301356001600160801b03811681146123ba57600080fd5b634e487b7160e01b600052601160045260246000fd5b600081600019048311821515161561255d5761255d61252d565b500290565b600082198211156125755761257561252d565b500190565b600181811c9082168061258e57607f821691505b6020821081036125ae57634e487b7160e01b600052602260045260246000fd5b50919050565b6000828210156125c6576125c661252d565b500390565b60208082526031908201527f4552433732313a207472616e736665722063616c6c6572206973206e6f74206f6040820152701ddb995c881b9bdc88185c1c1c9bdd9959607a1b606082015260800190565b634e487b7160e01b600052601260045260246000fd5b6000826126415761264161261c565b500490565b6020808252818101527f4f776e61626c653a2063616c6c6572206973206e6f7420746865206f776e6572604082015260600190565b60208082526032908201527f4552433732313a207472616e7366657220746f206e6f6e20455243373231526560408201527131b2b4bb32b91034b6b83632b6b2b73a32b960711b606082015260800190565b600081516126df818560208601612208565b9290920192915050565b7f3c73766720786d6c6e733d22687474703a2f2f7777772e77332e6f72672f323081527f30302f737667222076657273696f6e3d22312e31222077696474683d2235313260208201527f22206865696768743d22353132222076696577426f783d22302030203132382060408201526b18991c111f1e3a34ba36329f60a11b60608201526000835161278281606c850160208801612208565b671e17ba34ba36329f60c11b606c9184019182015283516127aa816074840160208801612208565b651e17b9bb339f60d11b60749290910191820152607a01949350505050565b7f646174613a696d6167652f7376672b786d6c3b6261736536342c00000000000081526000825161280181601a850160208701612208565b91909101601a0192915050565b683d913730b6b2911d1160b91b81528251600090612833816009850160208801612208565b7f222c226465736372697074696f6e223a22526566657272696e6720746f204f6e6009918401918201527f204b617761726127732074656c656772616d207365726965732c20746865207060298201527f6c61696e7465787420276920616d207374696c6c20616c697665272c2031362060498201527f49534f2d383835392d3120636861726163746572732c20697320656e6372797060698201527f74656420696e746f2061203132382d626974206369706865727465787420776960898201527f7468207468652044455320616c676f726974686d20696e20746865204543422060a98201527f6d6f64652e20546869732063697068657274657874206973207468656e20646960c98201527f766964656420757020696e746f20313620756e697473206f6620382d6269742060e98201527f76616c75652e204561636820756e6974206973207573656420746f20646572696101098201527f76652074686520736861646573206f6620313620737175617265732c207768696101298201527f636820617265206c617965726564206f6e20746f70206f662065616368206f746101498201527f68657220696e207468652073696d696c6172206d616e6e6572207365656e20696101698201527f6e206120736572696573206f66207061696e74696e67732027486f6d616765206101898201527f746f207468652053717561726527206279204a6f73656620416c626572732e206101a98201527f546865206c6566746d6f737420382d6269742076616c756520636f72726573706101c98201527f6f6e647320746f20746865207368616465206f6620746865206f757465726d6f6101e98201527f7374207371756172652c207768696c65207468652072696768746d6f737420766102098201527f616c756520636f72726573706f6e647320746f20746865207368616465206f666102298201527f2074686520696e6e65726d6f7374207371756172652e204561636820746f6b656102498201527f6e206973207469746c65642077697468206120555443206461746520626574776102698201527f65656e20323032302d30312d303120616e64207468652063757272656e7420626102898201527f6c6f636b27732074696d657374616d70206461746520696e207468652049534f6102a98201527f2d3836303120666f726d61742028595959594d4d4444292e20546865736520386102c98201527f2049534f2d383835392d31206368617261637465727320666f726d20612036346102e98201527f2d626974206b657920666f72207468652044455320616c676f726974686d2e2261030982015269161134b6b0b3b2911d1160b11b610329820152612c31612c236103338301866126cd565b61227d60f01b815260020190565b95945050505050565b7f646174613a6170706c69636174696f6e2f6a736f6e3b6261736536342c000000815260008251612c7281601d850160208701612208565b91909101601d0192915050565b60008083128015600160ff1b850184121615612c9d57612c9d61252d565b6001600160ff1b0384018313811615612cb857612cb861252d565b50500390565b600082612ccd57612ccd61261c565b600160ff1b821460001984141615612ce757612ce761252d565b500590565b600080821280156001600160ff1b0384900385131615612d0e57612d0e61252d565b600160ff1b8390038412811615612d2757612d2761252d565b50500190565b60006001600160ff1b0381841382841380821686840486111615612d5357612d5361252d565b600160ff1b6000871282811687830589121615612d7257612d7261252d565b60008712925087820587128484161615612d8e57612d8e61252d565b87850587128184161615612da457612da461252d565b505050929093029392505050565b6001600160a01b0385811682528416602082015260408101839052608060608201819052600090612de590830184612234565b9695505050505050565b600060208284031215612e0157600080fd5b8151610cfe816121d5565b600360fc1b815260008251612e28816001850160208701612208565b9190910160010192915050565b69646573496d616765732360b01b815260008451612e5a81600a850160208901612208565b845190830190612e7181600a840160208901612208565b8451910190612e8781600a840160208801612208565b01600a0195945050505050565b600060ff821660ff84168160ff0481118215151615612eb557612eb561252d565b029392505050565b600060ff821660ff84168060ff03821115612eda57612eda61252d565b019392505050565b600060ff821660ff841680821015612efc57612efc61252d565b90039392505050565b681e3932b1ba103c1e9160b91b81528651600090612f2a816009850160208c01612208565b6411103c9e9160d91b6009918401918201528751612f4f81600e840160208c01612208565b6811103bb4b23a341e9160b91b600e92909101918201528651612f79816017840160208b01612208565b6911103432b4b3b43a1e9160b11b601792909101918201528551612fa4816021840160208a01612208565b61011160f51b602192909101918201528451612fc7816023840160208901612208565b612ff5612fef6023838501016f1039ba3937b5b29e913737b73291179f60811b815260100190565b866126cd565b9a9950505050505050505050565b600060ff821660ff81036130195761301961252d565b60010192915050565b6000600182016130345761303461252d565b5060010190565b60008261304a5761304a61261c565b500690565b634e487b7160e01b600052603260045260246000fd5b6666696c6c3d222360c81b8152600060078851602061308982848701838e01612208565b89519185019161309e81858501848e01612208565b89519201916130b281858501848d01612208565b88519201916130c681858501848c01612208565b87519201916130da81858501848b01612208565b86519201916130ee81858501848a01612208565b601160f91b920192830191909152506008019897505050505050505056fe4142434445464748494a4b4c4d4e4f505152535455565758595a6162636465666768696a6b6c6d6e6f707172737475767778797a303132333435363738392b2fa2646970667358221220cdfb4d67f5d028b79db46ce20ca0f96a2ed73af5606577637dc6428e2fae9f1c64736f6c634300080d0033",
  "linkReferences": {},
  "deployedLinkReferences": {}
}