{
  "_format": "hh-sol-artifact-1",
  "contractName": "DesImages",
  "sourceName": "contracts/DesImages.sol",
  "abi": [
    {
      "inputs": [],
      "stateMutability": "nonpayable",
      "type": "constructor"
    },
    {
      "inputs": [],
      "name": "DesImages__CreatorTransferFail",
      "type": "error"
    },
    {
      "inputs": [],
      "name": "DesImages__FutureDate",
      "type": "error"
    },
    {
      "inputs": [],
      "name": "DesImages__InvalidDate",
      "type": "error"
    },
    {
      "inputs": [],
      "name": "DesImages__NotEnoughETHSent",
      "type": "error"
    },
    {
      "inputs": [],
      "name": "DesImages__OwnerTransferFail",
      "type": "error"
    },
    {
      "inputs": [],
      "name": "DesImages__TokenNotForSale",
      "type": "error"
    },
    {
      "inputs": [],
      "name": "DesImages__TokenNotOwned",
      "type": "error"
    },
    {
      "anonymous": false,
      "inputs": [
        {
          "indexed": true,
          "internalType": "address",
          "name": "owner",
          "type": "address"
        },
        {
          "indexed": true,
          "internalType": "address",
          "name": "approved",
          "type": "address"
        },
        {
          "indexed": true,
          "internalType": "uint256",
          "name": "tokenId",
          "type": "uint256"
        }
      ],
      "name": "Approval",
      "type": "event"
    },
    {
      "anonymous": false,
      "inputs": [
        {
          "indexed": true,
          "internalType": "address",
          "name": "owner",
          "type": "address"
        },
        {
          "indexed": true,
          "internalType": "address",
          "name": "operator",
          "type": "address"
        },
        {
          "indexed": false,
          "internalType": "bool",
          "name": "approved",
          "type": "bool"
        }
      ],
      "name": "ApprovalForAll",
      "type": "event"
    },
    {
      "anonymous": false,
      "inputs": [
        {
          "indexed": true,
          "internalType": "address",
          "name": "from",
          "type": "address"
        },
        {
          "indexed": true,
          "internalType": "uint256",
          "name": "tokenId",
          "type": "uint256"
        },
        {
          "indexed": false,
          "internalType": "uint256",
          "name": "burnReward",
          "type": "uint256"
        },
        {
          "indexed": false,
          "internalType": "uint256",
          "name": "totalSupply",
          "type": "uint256"
        }
      ],
      "name": "Burned",
      "type": "event"
    },
    {
      "anonymous": false,
      "inputs": [
        {
          "indexed": true,
          "internalType": "address",
          "name": "to",
          "type": "address"
        },
        {
          "indexed": true,
          "internalType": "uint256",
          "name": "tokenId",
          "type": "uint256"
        },
        {
          "indexed": false,
          "internalType": "uint256",
          "name": "mintPrice",
          "type": "uint256"
        },
        {
          "indexed": false,
          "internalType": "uint256",
          "name": "totalSupply",
          "type": "uint256"
        },
        {
          "indexed": false,
          "internalType": "uint256",
          "name": "totalEverMinted",
          "type": "uint256"
        }
      ],
      "name": "Minted",
      "type": "event"
    },
    {
      "anonymous": false,
      "inputs": [
        {
          "indexed": true,
          "internalType": "address",
          "name": "previousOwner",
          "type": "address"
        },
        {
          "indexed": true,
          "internalType": "address",
          "name": "newOwner",
          "type": "address"
        }
      ],
      "name": "OwnershipTransferred",
      "type": "event"
    },
    {
      "anonymous": false,
      "inputs": [],
      "name": "Paused",
      "type": "event"
    },
    {
      "anonymous": false,
      "inputs": [
        {
          "indexed": true,
          "internalType": "address",
          "name": "from",
          "type": "address"
        },
        {
          "indexed": true,
          "internalType": "address",
          "name": "to",
          "type": "address"
        },
        {
          "indexed": true,
          "internalType": "uint256",
          "name": "tokenId",
          "type": "uint256"
        }
      ],
      "name": "Transfer",
      "type": "event"
    },
    {
      "anonymous": false,
      "inputs": [],
      "name": "UnPaused",
      "type": "event"
    },
    {
      "inputs": [
        {
          "internalType": "address",
          "name": "to",
          "type": "address"
        },
        {
          "internalType": "uint256",
          "name": "tokenId",
          "type": "uint256"
        }
      ],
      "name": "approve",
      "outputs": [],
      "stateMutability": "nonpayable",
      "type": "function"
    },
    {
      "inputs": [
        {
          "internalType": "address",
          "name": "owner",
          "type": "address"
        }
      ],
      "name": "balanceOf",
      "outputs": [
        {
          "internalType": "uint256",
          "name": "",
          "type": "uint256"
        }
      ],
      "stateMutability": "view",
      "type": "function"
    },
    {
      "inputs": [
        {
          "internalType": "uint256",
          "name": "tokenId_",
          "type": "uint256"
        }
      ],
      "name": "burn",
      "outputs": [],
      "stateMutability": "nonpayable",
      "type": "function"
    },
    {
      "inputs": [],
      "name": "currentBurnReward",
      "outputs": [
        {
          "internalType": "uint256",
          "name": "",
          "type": "uint256"
        }
      ],
      "stateMutability": "view",
      "type": "function"
    },
    {
      "inputs": [],
      "name": "currentMintPrice",
      "outputs": [
        {
          "internalType": "uint256",
          "name": "",
          "type": "uint256"
        }
      ],
      "stateMutability": "view",
      "type": "function"
    },
    {
      "inputs": [
        {
          "internalType": "uint256",
          "name": "tokenId",
          "type": "uint256"
        }
      ],
      "name": "getApproved",
      "outputs": [
        {
          "internalType": "address",
          "name": "",
          "type": "address"
        }
      ],
      "stateMutability": "view",
      "type": "function"
    },
    {
      "inputs": [
        {
          "internalType": "uint256",
          "name": "tokenId_",
          "type": "uint256"
        }
      ],
      "name": "getTokenStatus",
      "outputs": [
        {
          "internalType": "enum DesImages.Status",
          "name": "",
          "type": "uint8"
        }
      ],
      "stateMutability": "view",
      "type": "function"
    },
    {
      "inputs": [
        {
          "internalType": "address",
          "name": "owner",
          "type": "address"
        },
        {
          "internalType": "address",
          "name": "operator",
          "type": "address"
        }
      ],
      "name": "isApprovedForAll",
      "outputs": [
        {
          "internalType": "bool",
          "name": "",
          "type": "bool"
        }
      ],
      "stateMutability": "view",
      "type": "function"
    },
    {
      "inputs": [
        {
          "internalType": "uint32",
          "name": "date_",
          "type": "uint32"
        },
        {
          "internalType": "uint128",
          "name": "ciphertext_",
          "type": "uint128"
        }
      ],
      "name": "mint",
      "outputs": [
        {
          "internalType": "uint256",
          "name": "",
          "type": "uint256"
        }
      ],
      "stateMutability": "payable",
      "type": "function"
    },
    {
      "inputs": [],
      "name": "name",
      "outputs": [
        {
          "internalType": "string",
          "name": "",
          "type": "string"
        }
      ],
      "stateMutability": "view",
      "type": "function"
    },
    {
      "inputs": [],
      "name": "owner",
      "outputs": [
        {
          "internalType": "address",
          "name": "",
          "type": "address"
        }
      ],
      "stateMutability": "view",
      "type": "function"
    },
    {
      "inputs": [
        {
          "internalType": "uint256",
          "name": "tokenId",
          "type": "uint256"
        }
      ],
      "name": "ownerOf",
      "outputs": [
        {
          "internalType": "address",
          "name": "",
          "type": "address"
        }
      ],
      "stateMutability": "view",
      "type": "function"
    },
    {
      "inputs": [],
      "name": "pause",
      "outputs": [],
      "stateMutability": "nonpayable",
      "type": "function"
    },
    {
      "inputs": [],
      "name": "paused",
      "outputs": [
        {
          "internalType": "bool",
          "name": "",
          "type": "bool"
        }
      ],
      "stateMutability": "view",
      "type": "function"
    },
    {
      "inputs": [],
      "name": "renounceOwnership",
      "outputs": [],
      "stateMutability": "nonpayable",
      "type": "function"
    },
    {
      "inputs": [
        {
          "internalType": "uint256",
          "name": "_tokenId",
          "type": "uint256"
        },
        {
          "internalType": "uint256",
          "name": "_salePrice",
          "type": "uint256"
        }
      ],
      "name": "royaltyInfo",
      "outputs": [
        {
          "internalType": "address",
          "name": "",
          "type": "address"
        },
        {
          "internalType": "uint256",
          "name": "",
          "type": "uint256"
        }
      ],
      "stateMutability": "view",
      "type": "function"
    },
    {
      "inputs": [
        {
          "internalType": "address",
          "name": "from",
          "type": "address"
        },
        {
          "internalType": "address",
          "name": "to",
          "type": "address"
        },
        {
          "internalType": "uint256",
          "name": "tokenId",
          "type": "uint256"
        }
      ],
      "name": "safeTransferFrom",
      "outputs": [],
      "stateMutability": "nonpayable",
      "type": "function"
    },
    {
      "inputs": [
        {
          "internalType": "address",
          "name": "from",
          "type": "address"
        },
        {
          "internalType": "address",
          "name": "to",
          "type": "address"
        },
        {
          "internalType": "uint256",
          "name": "tokenId",
          "type": "uint256"
        },
        {
          "internalType": "bytes",
          "name": "_data",
          "type": "bytes"
        }
      ],
      "name": "safeTransferFrom",
      "outputs": [],
      "stateMutability": "nonpayable",
      "type": "function"
    },
    {
      "inputs": [
        {
          "internalType": "address",
          "name": "operator",
          "type": "address"
        },
        {
          "internalType": "bool",
          "name": "approved",
          "type": "bool"
        }
      ],
      "name": "setApprovalForAll",
      "outputs": [],
      "stateMutability": "nonpayable",
      "type": "function"
    },
    {
      "inputs": [
        {
          "internalType": "bytes4",
          "name": "interfaceId",
          "type": "bytes4"
        }
      ],
      "name": "supportsInterface",
      "outputs": [
        {
          "internalType": "bool",
          "name": "",
          "type": "bool"
        }
      ],
      "stateMutability": "view",
      "type": "function"
    },
    {
      "inputs": [],
      "name": "symbol",
      "outputs": [
        {
          "internalType": "string",
          "name": "",
          "type": "string"
        }
      ],
      "stateMutability": "view",
      "type": "function"
    },
    {
      "inputs": [
        {
          "internalType": "uint256",
          "name": "tokenId_",
          "type": "uint256"
        }
      ],
      "name": "tokenURI",
      "outputs": [
        {
          "internalType": "string",
          "name": "",
          "type": "string"
        }
      ],
      "stateMutability": "view",
      "type": "function"
    },
    {
      "inputs": [],
      "name": "totalEverMinted",
      "outputs": [
        {
          "internalType": "uint256",
          "name": "",
          "type": "uint256"
        }
      ],
      "stateMutability": "view",
      "type": "function"
    },
    {
      "inputs": [],
      "name": "totalSupply",
      "outputs": [
        {
          "internalType": "uint256",
          "name": "",
          "type": "uint256"
        }
      ],
      "stateMutability": "view",
      "type": "function"
    },
    {
      "inputs": [
        {
          "internalType": "address",
          "name": "from",
          "type": "address"
        },
        {
          "internalType": "address",
          "name": "to",
          "type": "address"
        },
        {
          "internalType": "uint256",
          "name": "tokenId",
          "type": "uint256"
        }
      ],
      "name": "transferFrom",
      "outputs": [],
      "stateMutability": "nonpayable",
      "type": "function"
    },
    {
      "inputs": [
        {
          "internalType": "address",
          "name": "newOwner",
          "type": "address"
        }
      ],
      "name": "transferOwnership",
      "outputs": [],
      "stateMutability": "nonpayable",
      "type": "function"
    },
    {
      "inputs": [],
      "name": "unpause",
      "outputs": [],
      "stateMutability": "nonpayable",
      "type": "function"
    }
  ],
  "bytecode": "0x60806040523480156200001157600080fd5b506040805180820182526009815268646573496d6167657360b81b602080830191825283518085019094526007845266444553494d475360c81b908401528151919291620000629160029162000209565b5080516200007890600390602084019062000209565b505050620000956200008f620000ae60201b60201c565b620000b2565b6001600955620000a8336101f462000104565b620002eb565b3390565b600880546001600160a01b038381166001600160a01b0319831681179093556040519116919082907f8be0079c531659141344cd1fd0a4f28419497f9722a3daafe3b4186f6b6457e090600090a35050565b6127106001600160601b0382161115620001785760405162461bcd60e51b815260206004820152602a60248201527f455243323938313a20726f79616c7479206665652077696c6c206578636565646044820152692073616c65507269636560b01b60648201526084015b60405180910390fd5b6001600160a01b038216620001d05760405162461bcd60e51b815260206004820152601960248201527f455243323938313a20696e76616c69642072656365697665720000000000000060448201526064016200016f565b604080518082019091526001600160a01b039092168083526001600160601b039091166020909201829052600160a01b90910217600055565b8280546200021790620002af565b90600052602060002090601f0160209004810192826200023b576000855562000286565b82601f106200025657805160ff191683800117855562000286565b8280016001018555821562000286579182015b828111156200028657825182559160200191906001019062000269565b506200029492915062000298565b5090565b5b8082111562000294576000815560010162000299565b600181811c90821680620002c457607f821691505b602082108103620002e557634e487b7160e01b600052602260045260246000fd5b50919050565b6131b680620002fb6000396000f3fe60806040526004361061019c5760003560e01c80636352211e116100ec57806395d89b411161008a578063c87b56dd11610064578063c87b56dd1461049e578063e985e9c5146104be578063f2fde38b146104de578063fa35fab1146104fe57600080fd5b806395d89b4114610449578063a22cb4651461045e578063b88d4fde1461047e57600080fd5b80638456cb59116100c65780638456cb59146103c35780638da5cb5b146103d85780638f07c2b4146103f6578063924808b41461043357600080fd5b80636352211e1461036e57806370a082311461038e578063715018a6146103ae57600080fd5b80631a35c9d0116101595780633f4ba83a116101335780633f4ba83a146102ff57806342842e0e1461031457806342966c68146103345780635c975abb1461035457600080fd5b80631a35c9d01461028b57806323b872dd146102a05780632a55205a146102c057600080fd5b806301ffc9a7146101a15780630561942a146101d657806306fdde03146101f9578063081812fc1461021b578063095ea7b31461025357806318160ddd14610275575b600080fd5b3480156101ad57600080fd5b506101c16101bc36600461221f565b610511565b60405190151581526020015b60405180910390f35b3480156101e257600080fd5b506101eb610522565b6040519081526020016101cd565b34801561020557600080fd5b5061020e610550565b6040516101cd9190612294565b34801561022757600080fd5b5061023b6102363660046122a7565b6105e2565b6040516001600160a01b0390911681526020016101cd565b34801561025f57600080fd5b5061027361026e3660046122dc565b61067c565b005b34801561028157600080fd5b506101eb600b5481565b34801561029757600080fd5b506101eb610791565b3480156102ac57600080fd5b506102736102bb366004612306565b6107b7565b3480156102cc57600080fd5b506102e06102db366004612342565b6107e8565b604080516001600160a01b0390931683526020830191909152016101cd565b34801561030b57600080fd5b50610273610894565b34801561032057600080fd5b5061027361032f366004612306565b610902565b34801561034057600080fd5b5061027361034f3660046122a7565b61091d565b34801561036057600080fd5b50600d546101c19060ff1681565b34801561037a57600080fd5b5061023b6103893660046122a7565b610aa8565b34801561039a57600080fd5b506101eb6103a9366004612364565b610b1f565b3480156103ba57600080fd5b50610273610ba6565b3480156103cf57600080fd5b50610273610bdc565b3480156103e457600080fd5b506008546001600160a01b031661023b565b34801561040257600080fd5b506104266104113660046122a7565b6000908152600a602052604090205460ff1690565b6040516101cd9190612395565b34801561043f57600080fd5b506101eb600c5481565b34801561045557600080fd5b5061020e610c4e565b34801561046a57600080fd5b506102736104793660046123bd565b610c5d565b34801561048a57600080fd5b5061027361049936600461240f565b610c6c565b3480156104aa57600080fd5b5061020e6104b93660046122a7565b610ca4565b3480156104ca57600080fd5b506101c16104d93660046124eb565b610d57565b3480156104ea57600080fd5b506102736104f9366004612364565b610d85565b6101eb61050c36600461251e565b610e20565b600061051c82611224565b92915050565b600b5460009061053966038d7ea4c6800082612577565b61054a90662386f26fc10000612596565b91505090565b60606002805461055f906125ae565b80601f016020809104026020016040519081016040528092919081815260200182805461058b906125ae565b80156105d85780601f106105ad576101008083540402835291602001916105d8565b820191906000526020600020905b8154815290600101906020018083116105bb57829003601f168201915b5050505050905090565b6000818152600460205260408120546001600160a01b03166106605760405162461bcd60e51b815260206004820152602c60248201527f4552433732313a20617070726f76656420717565727920666f72206e6f6e657860448201526b34b9ba32b73a103a37b5b2b760a11b60648201526084015b60405180910390fd5b506000908152600660205260409020546001600160a01b031690565b600061068782610aa8565b9050806001600160a01b0316836001600160a01b0316036106f45760405162461bcd60e51b815260206004820152602160248201527f4552433732313a20617070726f76616c20746f2063757272656e74206f776e656044820152603960f91b6064820152608401610657565b336001600160a01b038216148061071057506107108133610d57565b6107825760405162461bcd60e51b815260206004820152603860248201527f4552433732313a20617070726f76652063616c6c6572206973206e6f74206f7760448201527f6e6572206e6f7220617070726f76656420666f7220616c6c00000000000000006064820152608401610657565b61078c8383611264565b505050565b60008061079c610522565b905061054a6107b266038d7ea4c68000836125e8565b6112d2565b6107c133826112ed565b6107dd5760405162461bcd60e51b8152600401610657906125ff565b61078c8383836113c4565b60008281526001602090815260408083208151808301909252546001600160a01b038116808352600160a01b9091046001600160601b031692820192909252829161085d5750604080518082019091526000546001600160a01b0381168252600160a01b90046001600160601b031660208201525b60208101516000906127109061087c906001600160601b031687612577565b6108869190612666565b915196919550909350505050565b6008546001600160a01b031633146108be5760405162461bcd60e51b81526004016106579061267a565b600d5460ff166108cd57600080fd5b600d805460ff191690556040517f472cf038e2a5f33dbaa68760dbf94ab4e159535e6580c0ac63f8202c7c6c0bb290600090a1565b61078c83838360405180602001604052806000815250610c6c565b60026009540361096f5760405162461bcd60e51b815260206004820152601f60248201527f5265656e7472616e637947756172643a207265656e7472616e742063616c6c006044820152606401610657565b600260095561097d81610aa8565b6001600160a01b0316336001600160a01b0316146109ae5760405163f6b4882360e01b815260040160405180910390fd5b60006109b8610791565b90506109c382611560565b6000828152600a60205260408120805460ff19166002179055600b8054600192906109ef9084906125e8565b9091555050604051600090339083908381818185875af1925050503d8060008114610a36576040519150601f19603f3d011682016040523d82523d6000602084013e610a3b565b606091505b5050905080610a5d57604051637d8e64d960e01b815260040160405180910390fd5b600b54604080518481526020810192909252849133917f4c60206a5c1de41f3376d1d60f0949d96cb682033c90b1c2d9d9a62d4c4120c0910160405180910390a35050600160095550565b6000818152600460205260408120546001600160a01b03168061051c5760405162461bcd60e51b815260206004820152602960248201527f4552433732313a206f776e657220717565727920666f72206e6f6e657869737460448201526832b73a103a37b5b2b760b91b6064820152608401610657565b60006001600160a01b038216610b8a5760405162461bcd60e51b815260206004820152602a60248201527f4552433732313a2062616c616e636520717565727920666f7220746865207a65604482015269726f206164647265737360b01b6064820152608401610657565b506001600160a01b031660009081526005602052604090205490565b6008546001600160a01b03163314610bd05760405162461bcd60e51b81526004016106579061267a565b610bda60006115fb565b565b6008546001600160a01b03163314610c065760405162461bcd60e51b81526004016106579061267a565b600d5460ff1615610c1657600080fd5b600d805460ff191660011790556040517f9e87fac88ff661f02d44f95383c817fece4bce600a3dab7a54406878b965e75290600090a1565b60606003805461055f906125ae565b610c6833838361164d565b5050565b610c7633836112ed565b610c925760405162461bcd60e51b8152600401610657906125ff565b610c9e8484848461171b565b50505050565b6000818152600460205260409020546060906001600160a01b0316610d1b5760405162461bcd60e51b815260206004820152602760248201527f4552433732313a2055524920717565727920666f72206e6f6e6578697374656e6044820152663a103a37b5b2b760c91b6064820152608401610657565b6000828152600a602052604090208054610d5090600160881b810463ffffffff169061010090046001600160801b031661174e565b9392505050565b6001600160a01b03918216600090815260076020908152604080832093909416825291909152205460ff1690565b6008546001600160a01b03163314610daf5760405162461bcd60e51b81526004016106579061267a565b6001600160a01b038116610e145760405162461bcd60e51b815260206004820152602660248201527f4f776e61626c653a206e6577206f776e657220697320746865207a65726f206160448201526564647265737360d01b6064820152608401610657565b610e1d816115fb565b50565b6000600260095403610e745760405162461bcd60e51b815260206004820152601f60248201527f5265656e7472616e637947756172643a207265656e7472616e742063616c6c006044820152606401610657565b6002600955600d5460ff1615610e8957600080fd5b8260ff8116600f600883901c1661ffff600c84901c166107e4811080610eb4575061270f8161ffff16115b80610ed15750610ecf8161ffff168360ff168560ff166117e9565b155b15610eef57604051634cfd191160e11b815260040160405180910390fd5b42610f058261ffff168460ff168660ff16611839565b1115610f245760405163157b6c4f60e31b815260040160405180910390fd5b6000610f2e610522565b905080341015610f51576040516305bf393960e51b815260040160405180910390fd5b604080516001600160e01b031960e08b901b166020808301919091526fffffffffffffffffffffffffffffffff1960808b901b1660248301528251808303601401815260349092019092528051910120600080828152600a602052604090205460ff166002811115610fc557610fc561237f565b14610fe3576040516319558d1960e11b815260040160405180910390fd5b610fed3382611985565b604080516060810190915280600181526001600160801b038a1660208083019190915263ffffffff8c166040928301526000848152600a9091522081518154829060ff191660018360028111156110465761104661237f565b02179055506020820151815460409093015163ffffffff16600160881b0263ffffffff60881b196001600160801b039092166101000291909116610100600160a81b031990931692909217919091179055600c8054600191906000906110ad908490612596565b925050819055506001600b60008282546110c79190612596565b90915550506008546000906001600160a01b03166110e4846112d2565b6110ee90856125e8565b604051600081818185875af1925050503d806000811461112a576040519150601f19603f3d011682016040523d82523d6000602084013e61112f565b606091505b50509050806111515760405163679ac27160e01b815260040160405180910390fd5b823411156111c9573361116484346125e8565b604051600081818185875af1925050503d80600081146111a0576040519150601f19603f3d011682016040523d82523d6000602084013e6111a5565b606091505b505080915050806111c957604051637d8e64d960e01b815260040160405180910390fd5b600b54600c54604080518681526020810193909352820152829033907f19f5f791ee407773427bf7b970bbbc3375065c32edd1ab142e23a84f94b0719b9060600160405180910390a350600160095598975050505050505050565b60006001600160e01b031982166380ac58cd60e01b148061125557506001600160e01b03198216635b5e139f60e01b145b8061051c575061051c8261199f565b600081815260066020526040902080546001600160a01b0319166001600160a01b038416908117909155819061129982610aa8565b6001600160a01b03167f8c5be1e5ebec7d5bd14f71427d1e84f3dd0314c0f7b2291e5b200ac8c7c3b92560405160405180910390a45050565b60006127106112e36126de84612577565b61051c9190612666565b6000818152600460205260408120546001600160a01b03166113665760405162461bcd60e51b815260206004820152602c60248201527f4552433732313a206f70657261746f7220717565727920666f72206e6f6e657860448201526b34b9ba32b73a103a37b5b2b760a11b6064820152608401610657565b600061137183610aa8565b9050806001600160a01b0316846001600160a01b031614806113ac5750836001600160a01b03166113a1846105e2565b6001600160a01b0316145b806113bc57506113bc8185610d57565b949350505050565b826001600160a01b03166113d782610aa8565b6001600160a01b03161461143b5760405162461bcd60e51b815260206004820152602560248201527f4552433732313a207472616e736665722066726f6d20696e636f72726563742060448201526437bbb732b960d91b6064820152608401610657565b6001600160a01b03821661149d5760405162461bcd60e51b8152602060048201526024808201527f4552433732313a207472616e7366657220746f20746865207a65726f206164646044820152637265737360e01b6064820152608401610657565b6114a8600082611264565b6001600160a01b03831660009081526005602052604081208054600192906114d19084906125e8565b90915550506001600160a01b03821660009081526005602052604081208054600192906114ff908490612596565b909155505060008181526004602052604080822080546001600160a01b0319166001600160a01b0386811691821790925591518493918716917fddf252ad1be2c89b69c2b068fc378daa952ba7f163c4a11628f55a4df523b3ef91a4505050565b600061156b82610aa8565b9050611578600083611264565b6001600160a01b03811660009081526005602052604081208054600192906115a19084906125e8565b909155505060008281526004602052604080822080546001600160a01b0319169055518391906001600160a01b038416907fddf252ad1be2c89b69c2b068fc378daa952ba7f163c4a11628f55a4df523b3ef908390a45050565b600880546001600160a01b038381166001600160a01b0319831681179093556040519116919082907f8be0079c531659141344cd1fd0a4f28419497f9722a3daafe3b4186f6b6457e090600090a35050565b816001600160a01b0316836001600160a01b0316036116ae5760405162461bcd60e51b815260206004820152601960248201527f4552433732313a20617070726f766520746f2063616c6c6572000000000000006044820152606401610657565b6001600160a01b03838116600081815260076020908152604080832094871680845294825291829020805460ff191686151590811790915591519182527f17307eab39ab6107e8899845ad3d59bd9653f200f220920489ca2b5937696c31910160405180910390a3505050565b6117268484846113c4565b611732848484846119d4565b610c9e5760405162461bcd60e51b8152600401610657906126af565b6060600061175b84611ad5565b90506117c1816117938361176e87611bb0565b60405160200161177f92919061271d565b604051602081830303815290604052611c65565b6040516020016117a391906127fd565b60408051601f198184030181529082905261177f9291602001612842565b6040516020016117d19190612c6e565b60405160208183030381529060405291505092915050565b600080831180156117fb5750600c8311155b1561182f57600061180c8585611db8565b905060008311801561181e5750808311155b1561182d576001915050610d50565b505b5060009392505050565b60006107b284101561184a57600080fd5b838383600062253d8c60046064600c611864600e88612cb3565b61186e9190612cf2565b61187a88611324612d20565b6118849190612d20565b61188e9190612cf2565b611899906003612d61565b6118a39190612cf2565b600c806118b1600e88612cb3565b6118bb9190612cf2565b6118c690600c612d61565b6118d1600288612cb3565b6118db9190612cb3565b6118e79061016f612d61565b6118f19190612cf2565b6004600c611900600e89612cb3565b61190a9190612cf2565b611916896112c0612d20565b6119209190612d20565b61192c906105b5612d61565b6119369190612cf2565b611942617d4b87612cb3565b61194c9190612d20565b6119569190612d20565b6119609190612cb3565b61196a9190612cb3565b90506119796201518082612577565b98975050505050505050565b610c68828260405180602001604052806000815250611e3e565b60006001600160e01b0319821663152a902d60e11b148061051c57506301ffc9a760e01b6001600160e01b031983161461051c565b60006001600160a01b0384163b15611aca57604051630a85bd0160e11b81526001600160a01b0385169063150b7a0290611a18903390899088908890600401612de6565b6020604051808303816000875af1925050508015611a53575060408051601f3d908101601f19168201909252611a5091810190612e23565b60015b611ab0573d808015611a81576040519150601f19603f3d011682016040523d82523d6000602084013e611a86565b606091505b508051600003611aa85760405162461bcd60e51b8152600401610657906126af565b805181602001fd5b6001600160e01b031916630a85bd0160e11b1490506113bc565b506001949350505050565b606060ff8216600f600884901c1661ffff600c85901c16611af581611e71565b600a8360ff1610611b1157611b0c8360ff16611e71565b611b3d565b611b1d8360ff16611e71565b604051602001611b2d9190612e40565b6040516020818303038152906040525b600a8560ff1610611b5957611b548560ff16611e71565b611b85565b611b658560ff16611e71565b604051602001611b759190612e40565b6040516020818303038152906040525b604051602001611b9793929190612e69565b6040516020818303038152906040529350505050919050565b60608060005b60108160ff161015611c5e576000611be5611bd2836008612ec8565b611bdd906008612ef1565b60ff16611e71565b9050611c00611bf5836004612ec8565b611bdd90603c612f16565b611c19611c0e846006612ec8565b611bdd90605a612f16565b8283611c25868a611f72565b87604051602001611c3b96959493929190612f39565b60405160208183030381529060405292505080611c5790613037565b9050611bb6565b5092915050565b60608151600003611c8457505060408051602081019091526000815290565b60006040518060600160405280604081526020016131416040913990506000600384516002611cb39190612596565b611cbd9190612666565b611cc8906004612577565b67ffffffffffffffff811115611ce057611ce06123f9565b6040519080825280601f01601f191660200182016040528015611d0a576020820181803683370190505b509050600182016020820185865187015b80821015611d76576003820191508151603f8160121c168501518453600184019350603f81600c1c168501518453600184019350603f8160061c168501518453600184019350603f8116850151845350600183019250611d1b565b5050600386510660018114611d925760028114611da557611dad565b603d6001830353603d6002830353611dad565b603d60018303535b509195945050505050565b60008160011480611dc95750816003145b80611dd45750816005145b80611ddf5750816007145b80611dea5750816008145b80611df5575081600a145b80611e00575081600c145b15611e0d5750601f61051c565b81600214611e1d5750601e61051c565b611e268361208b565b611e3157601c611e34565b601d5b60ff16905061051c565b611e4883836120c7565b611e5560008484846119d4565b61078c5760405162461bcd60e51b8152600401610657906126af565b606081600003611e985750506040805180820190915260018152600360fc1b602082015290565b8160005b8115611ec25780611eac81613056565b9150611ebb9050600a83612666565b9150611e9c565b60008167ffffffffffffffff811115611edd57611edd6123f9565b6040519080825280601f01601f191660200182016040528015611f07576020820181803683370190505b5090505b84156113bc57611f1c6001836125e8565b9150611f29600a8661306f565b611f34906030612596565b60f81b818381518110611f4957611f49613083565b60200101906001600160f81b031916908160001a905350611f6b600a86612666565b9450611f0b565b60606000611f81846008612ec8565b90506001600160801b03831660ff82161c60006f181899199a1a9b1b9c1cb0b131b232b360811b600f831660108110611fbc57611fbc613083565b1a60f81b604051602001611fe091906001600160f81b031991909116815260010190565b60408051601f19818403018152919052905060006f181899199a1a9b1b9c1cb0b131b232b360811b600f600485901c166010811061202057612020613083565b1a60f81b60405160200161204491906001600160f81b031991909116815260010190565b604051602081830303815290604052905080828284848660405160200161207096959493929190613099565b60405160208183030381529060405294505050505092915050565b600061209860048361306f565b1580156120ae57506120ab60648361306f565b15155b8061051c57506120c06101908361306f565b1592915050565b6001600160a01b03821661211d5760405162461bcd60e51b815260206004820181905260248201527f4552433732313a206d696e7420746f20746865207a65726f20616464726573736044820152606401610657565b6000818152600460205260409020546001600160a01b0316156121825760405162461bcd60e51b815260206004820152601c60248201527f4552433732313a20746f6b656e20616c7265616479206d696e746564000000006044820152606401610657565b6001600160a01b03821660009081526005602052604081208054600192906121ab908490612596565b909155505060008181526004602052604080822080546001600160a01b0319166001600160a01b03861690811790915590518392907fddf252ad1be2c89b69c2b068fc378daa952ba7f163c4a11628f55a4df523b3ef908290a45050565b6001600160e01b031981168114610e1d57600080fd5b60006020828403121561223157600080fd5b8135610d5081612209565b60005b8381101561225757818101518382015260200161223f565b83811115610c9e5750506000910152565b6000815180845261228081602086016020860161223c565b601f01601f19169290920160200192915050565b602081526000610d506020830184612268565b6000602082840312156122b957600080fd5b5035919050565b80356001600160a01b03811681146122d757600080fd5b919050565b600080604083850312156122ef57600080fd5b6122f8836122c0565b946020939093013593505050565b60008060006060848603121561231b57600080fd5b612324846122c0565b9250612332602085016122c0565b9150604084013590509250925092565b6000806040838503121561235557600080fd5b50508035926020909101359150565b60006020828403121561237657600080fd5b610d50826122c0565b634e487b7160e01b600052602160045260246000fd5b60208101600383106123b757634e487b7160e01b600052602160045260246000fd5b91905290565b600080604083850312156123d057600080fd5b6123d9836122c0565b9150602083013580151581146123ee57600080fd5b809150509250929050565b634e487b7160e01b600052604160045260246000fd5b6000806000806080858703121561242557600080fd5b61242e856122c0565b935061243c602086016122c0565b925060408501359150606085013567ffffffffffffffff8082111561246057600080fd5b818701915087601f83011261247457600080fd5b813581811115612486576124866123f9565b604051601f8201601f19908116603f011681019083821181831017156124ae576124ae6123f9565b816040528281528a60208487010111156124c757600080fd5b82602086016020830137600060208483010152809550505050505092959194509250565b600080604083850312156124fe57600080fd5b612507836122c0565b9150612515602084016122c0565b90509250929050565b6000806040838503121561253157600080fd5b823563ffffffff8116811461254557600080fd5b915060208301356001600160801b03811681146123ee57600080fd5b634e487b7160e01b600052601160045260246000fd5b600081600019048311821515161561259157612591612561565b500290565b600082198211156125a9576125a9612561565b500190565b600181811c908216806125c257607f821691505b6020821081036125e257634e487b7160e01b600052602260045260246000fd5b50919050565b6000828210156125fa576125fa612561565b500390565b60208082526031908201527f4552433732313a207472616e736665722063616c6c6572206973206e6f74206f6040820152701ddb995c881b9bdc88185c1c1c9bdd9959607a1b606082015260800190565b634e487b7160e01b600052601260045260246000fd5b60008261267557612675612650565b500490565b6020808252818101527f4f776e61626c653a2063616c6c6572206973206e6f7420746865206f776e6572604082015260600190565b60208082526032908201527f4552433732313a207472616e7366657220746f206e6f6e20455243373231526560408201527131b2b4bb32b91034b6b83632b6b2b73a32b960711b606082015260800190565b6000815161271381856020860161223c565b9290920192915050565b7f3c73766720786d6c6e733d22687474703a2f2f7777772e77332e6f72672f323081527f30302f737667222076657273696f6e3d22312e31222077696474683d2235313260208201527f22206865696768743d22353132222076696577426f783d22302030203132382060408201526b18991c111f1e3a34ba36329f60a11b6060820152600083516127b681606c85016020880161223c565b671e17ba34ba36329f60c11b606c9184019182015283516127de81607484016020880161223c565b651e17b9bb339f60d11b60749290910191820152607a01949350505050565b7f646174613a696d6167652f7376672b786d6c3b6261736536342c00000000000081526000825161283581601a85016020870161223c565b91909101601a0192915050565b683d913730b6b2911d1160b91b8152825160009061286781600985016020880161223c565b7f222c226465736372697074696f6e223a22526566657272696e6720746f204f6e6009918401918201527f204b617761726127732074656c656772616d207365726965732c20746865207060298201527f6c61696e7465787420276920616d207374696c6c20616c697665272c2031362060498201527f49534f2d383835392d3120636861726163746572732c20697320656e6372797060698201527f74656420696e746f2061203132382d626974206369706865727465787420776960898201527f7468207468652044455320616c676f726974686d20696e20746865204543422060a98201527f6d6f64652e20546869732063697068657274657874206973207468656e20646960c98201527f766964656420757020696e746f20313620756e697473206f6620382d6269742060e98201527f76616c75652e204561636820756e6974206973207573656420746f20646572696101098201527f76652074686520736861646573206f6620313620737175617265732c207768696101298201527f636820617265206c617965726564206f6e20746f70206f662065616368206f746101498201527f68657220696e207468652073696d696c6172206d616e6e6572207365656e20696101698201527f6e206120736572696573206f66207061696e74696e67732027486f6d616765206101898201527f746f207468652053717561726527206279204a6f73656620416c626572732e206101a98201527f546865206c6566746d6f737420382d6269742076616c756520636f72726573706101c98201527f6f6e647320746f20746865207368616465206f6620746865206f757465726d6f6101e98201527f7374207371756172652c207768696c65207468652072696768746d6f737420766102098201527f616c756520636f72726573706f6e647320746f20746865207368616465206f666102298201527f2074686520696e6e65726d6f7374207371756172652e204561636820746f6b656102498201527f6e206973207469746c65642077697468206120555443206461746520626574776102698201527f65656e20323032302d30312d303120616e64207468652063757272656e7420626102898201527f6c6f636b27732074696d657374616d70206461746520696e207468652049534f6102a98201527f2d3836303120666f726d61742028595959594d4d4444292e20546865736520386102c98201527f2049534f2d383835392d31206368617261637465727320666f726d20612036346102e98201527f2d626974206b657920666f72207468652044455320616c676f726974686d2e2261030982015269161134b6b0b3b2911d1160b11b610329820152612c65612c57610333830186612701565b61227d60f01b815260020190565b95945050505050565b7f646174613a6170706c69636174696f6e2f6a736f6e3b6261736536342c000000815260008251612ca681601d85016020870161223c565b91909101601d0192915050565b60008083128015600160ff1b850184121615612cd157612cd1612561565b6001600160ff1b0384018313811615612cec57612cec612561565b50500390565b600082612d0157612d01612650565b600160ff1b821460001984141615612d1b57612d1b612561565b500590565b600080821280156001600160ff1b0384900385131615612d4257612d42612561565b600160ff1b8390038412811615612d5b57612d5b612561565b50500190565b60006001600160ff1b0381841382841380821686840486111615612d8757612d87612561565b600160ff1b6000871282811687830589121615612da657612da6612561565b60008712925087820587128484161615612dc257612dc2612561565b87850587128184161615612dd857612dd8612561565b505050929093029392505050565b6001600160a01b0385811682528416602082015260408101839052608060608201819052600090612e1990830184612268565b9695505050505050565b600060208284031215612e3557600080fd5b8151610d5081612209565b600360fc1b815260008251612e5c81600185016020870161223c565b9190910160010192915050565b69646573496d616765732360b01b815260008451612e8e81600a85016020890161223c565b845190830190612ea581600a84016020890161223c565b8451910190612ebb81600a84016020880161223c565b01600a0195945050505050565b600060ff821660ff84168160ff0481118215151615612ee957612ee9612561565b029392505050565b600060ff821660ff84168060ff03821115612f0e57612f0e612561565b019392505050565b600060ff821660ff841680821015612f3057612f30612561565b90039392505050565b681e3932b1ba103c1e9160b91b81528651600090612f5e816009850160208c0161223c565b6411103c9e9160d91b6009918401918201528751612f8381600e840160208c0161223c565b6811103bb4b23a341e9160b91b600e92909101918201528651612fad816017840160208b0161223c565b6911103432b4b3b43a1e9160b11b601792909101918201528551612fd8816021840160208a0161223c565b61011160f51b602192909101918201528451612ffb81602384016020890161223c565b6130296130236023838501016f1039ba3937b5b29e913737b73291179f60811b815260100190565b86612701565b9a9950505050505050505050565b600060ff821660ff810361304d5761304d612561565b60010192915050565b60006001820161306857613068612561565b5060010190565b60008261307e5761307e612650565b500690565b634e487b7160e01b600052603260045260246000fd5b6666696c6c3d222360c81b815260006007885160206130bd82848701838e0161223c565b8951918501916130d281858501848e0161223c565b89519201916130e681858501848d0161223c565b88519201916130fa81858501848c0161223c565b875192019161310e81858501848b0161223c565b865192019161312281858501848a0161223c565b601160f91b920192830191909152506008019897505050505050505056fe4142434445464748494a4b4c4d4e4f505152535455565758595a6162636465666768696a6b6c6d6e6f707172737475767778797a303132333435363738392b2fa2646970667358221220f7c925dffabf22838b8fa7aa491297797ff159b080b448aca432bf9f0fe8c9ec64736f6c634300080d0033",
  "linkReferences": {},
  "deployedLinkReferences": {}
}