{
  "_format": "hh-sol-artifact-1",
  "contractName": "DesImages",
  "sourceName": "contracts/DesImages.sol",
  "abi": [
    {
      "inputs": [],
      "stateMutability": "nonpayable",
      "type": "constructor"
    },
    {
      "anonymous": false,
      "inputs": [
        {
          "indexed": true,
          "internalType": "address",
          "name": "owner",
          "type": "address"
        },
        {
          "indexed": true,
          "internalType": "address",
          "name": "approved",
          "type": "address"
        },
        {
          "indexed": true,
          "internalType": "uint256",
          "name": "tokenId",
          "type": "uint256"
        }
      ],
      "name": "Approval",
      "type": "event"
    },
    {
      "anonymous": false,
      "inputs": [
        {
          "indexed": true,
          "internalType": "address",
          "name": "owner",
          "type": "address"
        },
        {
          "indexed": true,
          "internalType": "address",
          "name": "operator",
          "type": "address"
        },
        {
          "indexed": false,
          "internalType": "bool",
          "name": "approved",
          "type": "bool"
        }
      ],
      "name": "ApprovalForAll",
      "type": "event"
    },
    {
      "anonymous": false,
      "inputs": [
        {
          "indexed": true,
          "internalType": "address",
          "name": "from",
          "type": "address"
        },
        {
          "indexed": true,
          "internalType": "uint256",
          "name": "tokenId",
          "type": "uint256"
        },
        {
          "indexed": false,
          "internalType": "uint256",
          "name": "burnReward",
          "type": "uint256"
        },
        {
          "indexed": false,
          "internalType": "uint256",
          "name": "totalSupply",
          "type": "uint256"
        }
      ],
      "name": "Burned",
      "type": "event"
    },
    {
      "anonymous": false,
      "inputs": [
        {
          "indexed": true,
          "internalType": "address",
          "name": "to",
          "type": "address"
        },
        {
          "indexed": true,
          "internalType": "uint256",
          "name": "tokenId",
          "type": "uint256"
        },
        {
          "indexed": false,
          "internalType": "uint256",
          "name": "mintPrice",
          "type": "uint256"
        },
        {
          "indexed": false,
          "internalType": "uint256",
          "name": "totalSupply",
          "type": "uint256"
        },
        {
          "indexed": false,
          "internalType": "uint256",
          "name": "totalEverMinted",
          "type": "uint256"
        }
      ],
      "name": "Minted",
      "type": "event"
    },
    {
      "anonymous": false,
      "inputs": [
        {
          "indexed": true,
          "internalType": "address",
          "name": "previousOwner",
          "type": "address"
        },
        {
          "indexed": true,
          "internalType": "address",
          "name": "newOwner",
          "type": "address"
        }
      ],
      "name": "OwnershipTransferred",
      "type": "event"
    },
    {
      "anonymous": false,
      "inputs": [
        {
          "indexed": true,
          "internalType": "address",
          "name": "from",
          "type": "address"
        },
        {
          "indexed": true,
          "internalType": "address",
          "name": "to",
          "type": "address"
        },
        {
          "indexed": true,
          "internalType": "uint256",
          "name": "tokenId",
          "type": "uint256"
        }
      ],
      "name": "Transfer",
      "type": "event"
    },
    {
      "inputs": [
        {
          "internalType": "address",
          "name": "to",
          "type": "address"
        },
        {
          "internalType": "uint256",
          "name": "tokenId",
          "type": "uint256"
        }
      ],
      "name": "approve",
      "outputs": [],
      "stateMutability": "nonpayable",
      "type": "function"
    },
    {
      "inputs": [
        {
          "internalType": "address",
          "name": "owner",
          "type": "address"
        }
      ],
      "name": "balanceOf",
      "outputs": [
        {
          "internalType": "uint256",
          "name": "",
          "type": "uint256"
        }
      ],
      "stateMutability": "view",
      "type": "function"
    },
    {
      "inputs": [
        {
          "internalType": "uint256",
          "name": "tokenId",
          "type": "uint256"
        }
      ],
      "name": "burn",
      "outputs": [],
      "stateMutability": "nonpayable",
      "type": "function"
    },
    {
      "inputs": [],
      "name": "currentBurnReward",
      "outputs": [
        {
          "internalType": "uint256",
          "name": "",
          "type": "uint256"
        }
      ],
      "stateMutability": "view",
      "type": "function"
    },
    {
      "inputs": [],
      "name": "currentMintPrice",
      "outputs": [
        {
          "internalType": "uint256",
          "name": "",
          "type": "uint256"
        }
      ],
      "stateMutability": "view",
      "type": "function"
    },
    {
      "inputs": [
        {
          "internalType": "uint256",
          "name": "tokenId",
          "type": "uint256"
        }
      ],
      "name": "getApproved",
      "outputs": [
        {
          "internalType": "address",
          "name": "",
          "type": "address"
        }
      ],
      "stateMutability": "view",
      "type": "function"
    },
    {
      "inputs": [
        {
          "internalType": "uint32",
          "name": "date",
          "type": "uint32"
        },
        {
          "internalType": "uint128",
          "name": "ciphertext",
          "type": "uint128"
        }
      ],
      "name": "getTokenStatus",
      "outputs": [
        {
          "internalType": "enum DesImages.Status",
          "name": "",
          "type": "uint8"
        }
      ],
      "stateMutability": "view",
      "type": "function"
    },
    {
      "inputs": [
        {
          "internalType": "address",
          "name": "owner",
          "type": "address"
        },
        {
          "internalType": "address",
          "name": "operator",
          "type": "address"
        }
      ],
      "name": "isApprovedForAll",
      "outputs": [
        {
          "internalType": "bool",
          "name": "",
          "type": "bool"
        }
      ],
      "stateMutability": "view",
      "type": "function"
    },
    {
      "inputs": [
        {
          "internalType": "uint32",
          "name": "date",
          "type": "uint32"
        },
        {
          "internalType": "uint128",
          "name": "ciphertext",
          "type": "uint128"
        }
      ],
      "name": "isOwnerOf",
      "outputs": [
        {
          "internalType": "bool",
          "name": "",
          "type": "bool"
        }
      ],
      "stateMutability": "view",
      "type": "function"
    },
    {
      "inputs": [
        {
          "internalType": "address",
          "name": "recipient",
          "type": "address"
        },
        {
          "internalType": "uint32",
          "name": "date",
          "type": "uint32"
        },
        {
          "internalType": "uint128",
          "name": "ciphertext",
          "type": "uint128"
        }
      ],
      "name": "mint",
      "outputs": [
        {
          "internalType": "uint256",
          "name": "",
          "type": "uint256"
        }
      ],
      "stateMutability": "payable",
      "type": "function"
    },
    {
      "inputs": [],
      "name": "name",
      "outputs": [
        {
          "internalType": "string",
          "name": "",
          "type": "string"
        }
      ],
      "stateMutability": "view",
      "type": "function"
    },
    {
      "inputs": [],
      "name": "owner",
      "outputs": [
        {
          "internalType": "address",
          "name": "",
          "type": "address"
        }
      ],
      "stateMutability": "view",
      "type": "function"
    },
    {
      "inputs": [
        {
          "internalType": "uint256",
          "name": "tokenId",
          "type": "uint256"
        }
      ],
      "name": "ownerOf",
      "outputs": [
        {
          "internalType": "address",
          "name": "",
          "type": "address"
        }
      ],
      "stateMutability": "view",
      "type": "function"
    },
    {
      "inputs": [],
      "name": "pause",
      "outputs": [],
      "stateMutability": "nonpayable",
      "type": "function"
    },
    {
      "inputs": [],
      "name": "paused",
      "outputs": [
        {
          "internalType": "bool",
          "name": "",
          "type": "bool"
        }
      ],
      "stateMutability": "view",
      "type": "function"
    },
    {
      "inputs": [],
      "name": "renounceOwnership",
      "outputs": [],
      "stateMutability": "nonpayable",
      "type": "function"
    },
    {
      "inputs": [
        {
          "internalType": "uint256",
          "name": "_tokenId",
          "type": "uint256"
        },
        {
          "internalType": "uint256",
          "name": "_salePrice",
          "type": "uint256"
        }
      ],
      "name": "royaltyInfo",
      "outputs": [
        {
          "internalType": "address",
          "name": "",
          "type": "address"
        },
        {
          "internalType": "uint256",
          "name": "",
          "type": "uint256"
        }
      ],
      "stateMutability": "view",
      "type": "function"
    },
    {
      "inputs": [
        {
          "internalType": "address",
          "name": "from",
          "type": "address"
        },
        {
          "internalType": "address",
          "name": "to",
          "type": "address"
        },
        {
          "internalType": "uint256",
          "name": "tokenId",
          "type": "uint256"
        }
      ],
      "name": "safeTransferFrom",
      "outputs": [],
      "stateMutability": "nonpayable",
      "type": "function"
    },
    {
      "inputs": [
        {
          "internalType": "address",
          "name": "from",
          "type": "address"
        },
        {
          "internalType": "address",
          "name": "to",
          "type": "address"
        },
        {
          "internalType": "uint256",
          "name": "tokenId",
          "type": "uint256"
        },
        {
          "internalType": "bytes",
          "name": "_data",
          "type": "bytes"
        }
      ],
      "name": "safeTransferFrom",
      "outputs": [],
      "stateMutability": "nonpayable",
      "type": "function"
    },
    {
      "inputs": [
        {
          "internalType": "address",
          "name": "operator",
          "type": "address"
        },
        {
          "internalType": "bool",
          "name": "approved",
          "type": "bool"
        }
      ],
      "name": "setApprovalForAll",
      "outputs": [],
      "stateMutability": "nonpayable",
      "type": "function"
    },
    {
      "inputs": [
        {
          "internalType": "bytes4",
          "name": "interfaceId",
          "type": "bytes4"
        }
      ],
      "name": "supportsInterface",
      "outputs": [
        {
          "internalType": "bool",
          "name": "",
          "type": "bool"
        }
      ],
      "stateMutability": "view",
      "type": "function"
    },
    {
      "inputs": [],
      "name": "symbol",
      "outputs": [
        {
          "internalType": "string",
          "name": "",
          "type": "string"
        }
      ],
      "stateMutability": "view",
      "type": "function"
    },
    {
      "inputs": [
        {
          "internalType": "uint256",
          "name": "tokenId",
          "type": "uint256"
        }
      ],
      "name": "tokenURI",
      "outputs": [
        {
          "internalType": "string",
          "name": "",
          "type": "string"
        }
      ],
      "stateMutability": "view",
      "type": "function"
    },
    {
      "inputs": [],
      "name": "totalEverMinted",
      "outputs": [
        {
          "internalType": "uint256",
          "name": "",
          "type": "uint256"
        }
      ],
      "stateMutability": "view",
      "type": "function"
    },
    {
      "inputs": [],
      "name": "totalSupply",
      "outputs": [
        {
          "internalType": "uint256",
          "name": "",
          "type": "uint256"
        }
      ],
      "stateMutability": "view",
      "type": "function"
    },
    {
      "inputs": [
        {
          "internalType": "address",
          "name": "from",
          "type": "address"
        },
        {
          "internalType": "address",
          "name": "to",
          "type": "address"
        },
        {
          "internalType": "uint256",
          "name": "tokenId",
          "type": "uint256"
        }
      ],
      "name": "transferFrom",
      "outputs": [],
      "stateMutability": "nonpayable",
      "type": "function"
    },
    {
      "inputs": [
        {
          "internalType": "address",
          "name": "newOwner",
          "type": "address"
        }
      ],
      "name": "transferOwnership",
      "outputs": [],
      "stateMutability": "nonpayable",
      "type": "function"
    },
    {
      "inputs": [],
      "name": "unpause",
      "outputs": [],
      "stateMutability": "nonpayable",
      "type": "function"
    }
  ],
  "bytecode": "0x60806040526000600a819055600b55600c805460ff191690553480156200002557600080fd5b506040805180820182526009815268646573496d6167657360b81b602080830191825283518085019094526007845266444553494d475360c81b908401528151919291620000769160009162000218565b5080516200008c90600190602084019062000218565b505050620000a9620000a3620000bd60201b60201c565b620000c1565b620000b7336101f462000113565b620002fa565b3390565b600880546001600160a01b038381166001600160a01b0319831681179093556040519116919082907f8be0079c531659141344cd1fd0a4f28419497f9722a3daafe3b4186f6b6457e090600090a35050565b6127106001600160601b0382161115620001875760405162461bcd60e51b815260206004820152602a60248201527f455243323938313a20726f79616c7479206665652077696c6c206578636565646044820152692073616c65507269636560b01b60648201526084015b60405180910390fd5b6001600160a01b038216620001df5760405162461bcd60e51b815260206004820152601960248201527f455243323938313a20696e76616c69642072656365697665720000000000000060448201526064016200017e565b604080518082019091526001600160a01b039092168083526001600160601b039091166020909201829052600160a01b90910217600655565b8280546200022690620002be565b90600052602060002090601f0160209004810192826200024a576000855562000295565b82601f106200026557805160ff191683800117855562000295565b8280016001018555821562000295579182015b828111156200029557825182559160200191906001019062000278565b50620002a3929150620002a7565b5090565b5b80821115620002a35760008155600101620002a8565b600181811c90821680620002d357607f821691505b602082108103620002f457634e487b7160e01b600052602260045260246000fd5b50919050565b613274806200030a6000396000f3fe6080604052600436106101b75760003560e01c80636352211e116100ec578063a22cb4651161008a578063cb5497f011610064578063cb5497f0146104af578063e8208e38146104dc578063e985e9c5146104fc578063f2fde38b1461054557600080fd5b8063a22cb4651461044f578063b88d4fde1461046f578063c87b56dd1461048f57600080fd5b80638456cb59116100c65780638456cb59146103f15780638da5cb5b14610406578063924808b41461042457806395d89b411461043a57600080fd5b80636352211e1461039c57806370a08231146103bc578063715018a6146103dc57600080fd5b806323b872dd116101595780633f4ba83a116101335780633f4ba83a1461032d57806342842e0e1461034257806342966c68146103625780635c975abb1461038257600080fd5b806323b872dd146102bb5780632a55205a146102db5780632cb58bb71461031a57600080fd5b8063081812fc11610195578063081812fc14610236578063095ea7b31461026e57806318160ddd146102905780631a35c9d0146102a657600080fd5b806301ffc9a7146101bc5780630561942a146101f157806306fdde0314610214575b600080fd5b3480156101c857600080fd5b506101dc6101d736600461224b565b610565565b60405190151581526020015b60405180910390f35b3480156101fd57600080fd5b50610206610576565b6040519081526020016101e8565b34801561022057600080fd5b506102296105a4565b6040516101e891906122c0565b34801561024257600080fd5b506102566102513660046122d3565b610636565b6040516001600160a01b0390911681526020016101e8565b34801561027a57600080fd5b5061028e610289366004612308565b6106d0565b005b34801561029c57600080fd5b50610206600a5481565b3480156102b257600080fd5b506102066107e5565b3480156102c757600080fd5b5061028e6102d6366004612332565b61080b565b3480156102e757600080fd5b506102fb6102f636600461236e565b61083c565b604080516001600160a01b0390931683526020830191909152016101e8565b6102066103283660046123bb565b6108e8565b34801561033957600080fd5b5061028e610c28565b34801561034e57600080fd5b5061028e61035d366004612332565b610c6d565b34801561036e57600080fd5b5061028e61037d3660046122d3565b610c88565b34801561038e57600080fd5b50600c546101dc9060ff1681565b3480156103a857600080fd5b506102566103b73660046122d3565b610d5e565b3480156103c857600080fd5b506102066103d73660046123fe565b610dd5565b3480156103e857600080fd5b5061028e610e5c565b3480156103fd57600080fd5b5061028e610e92565b34801561041257600080fd5b506008546001600160a01b0316610256565b34801561043057600080fd5b50610206600b5481565b34801561044657600080fd5b50610229610edb565b34801561045b57600080fd5b5061028e61046a366004612419565b610eea565b34801561047b57600080fd5b5061028e61048a36600461246b565b610ef9565b34801561049b57600080fd5b506102296104aa3660046122d3565b610f31565b3480156104bb57600080fd5b506104cf6104ca366004612547565b610fe4565b6040516101e89190612590565b3480156104e857600080fd5b506101dc6104f7366004612547565b61100b565b34801561050857600080fd5b506101dc6105173660046125b8565b6001600160a01b03918216600090815260056020908152604080832093909416825291909152205460ff1690565b34801561055157600080fd5b5061028e6105603660046123fe565b61102c565b6000610570826110c7565b92915050565b600a5460009061059e6105908266038d7ea4c680006110ec565b662386f26fc10000906110f8565b91505090565b6060600080546105b3906125e2565b80601f01602080910402602001604051908101604052809291908181526020018280546105df906125e2565b801561062c5780601f106106015761010080835404028352916020019161062c565b820191906000526020600020905b81548152906001019060200180831161060f57829003601f168201915b5050505050905090565b6000818152600260205260408120546001600160a01b03166106b45760405162461bcd60e51b815260206004820152602c60248201527f4552433732313a20617070726f76656420717565727920666f72206e6f6e657860448201526b34b9ba32b73a103a37b5b2b760a11b60648201526084015b60405180910390fd5b506000908152600460205260409020546001600160a01b031690565b60006106db82610d5e565b9050806001600160a01b0316836001600160a01b0316036107485760405162461bcd60e51b815260206004820152602160248201527f4552433732313a20617070726f76616c20746f2063757272656e74206f776e656044820152603960f91b60648201526084016106ab565b336001600160a01b038216148061076457506107648133610517565b6107d65760405162461bcd60e51b815260206004820152603860248201527f4552433732313a20617070726f76652063616c6c6572206973206e6f74206f7760448201527f6e6572206e6f7220617070726f76656420666f7220616c6c000000000000000060648201526084016106ab565b6107e08383611104565b505050565b6000806107f0610576565b905061059e6108068266038d7ea4c68000611172565b61117e565b6108153382611198565b6108315760405162461bcd60e51b81526004016106ab9061261c565b6107e083838361128f565b60008281526007602090815260408083208151808301909252546001600160a01b038116808352600160a01b9091046001600160601b03169282019290925282916108b15750604080518082019091526006546001600160a01b0381168252600160a01b90046001600160601b031660208201525b6020810151600090612710906108d0906001600160601b031687612683565b6108da91906126b8565b915196919550909350505050565b600c5460009060ff16156108fb57600080fd5b8260ff8116600f600883901c1661ffff600c84901c166107e48110801590610929575061270f8161ffff1611155b801561094557506109458161ffff168360ff168560ff1661142b565b6109805760405162461bcd60e51b815260206004820152600c60248201526b496e76616c6964204461746560a01b60448201526064016106ab565b426109968261ffff168460ff168660ff1661147b565b11156109dc5760405162461bcd60e51b815260206004820152601560248201527443616e6e6f7420626520667574757265206461746560581b60448201526064016106ab565b60006109e6610576565b905080341015610a2e5760405162461bcd60e51b8152602060048201526013602482015272139bdd08195b9bdd59da08115512081cd95b9d606a1b60448201526064016106ab565b6000610a3a89896115c7565b90506000808281526009602052604090205460ff166002811115610a6057610a6061257a565b14610a6a57600080fd5b610a748a8261161b565b604080516060810190915280600181526001600160801b038a1660208083019190915263ffffffff8c16604092830152600084815260099091522081518154829060ff19166001836002811115610acd57610acd61257a565b021790555060208201518154604090930151610100600160a81b03199093166101006001600160801b039092169190910263ffffffff60881b191617600160881b63ffffffff93841602179055600b54610b2a916001906110f816565b600b55600a54610b3b9060016110f8565b600a556008546001600160a01b03166108fc610b60610b598561117e565b8590611172565b6040518115909202916000818181858888f19350505050158015610b88573d6000803e3d6000fd5b5081341115610bc957336108fc610b9f3485611172565b6040518115909202916000818181858888f19350505050158015610bc7573d6000803e3d6000fd5b505b600a54600b5460408051858152602081019390935282015281906001600160a01b038c16907f19f5f791ee407773427bf7b970bbbc3375065c32edd1ab142e23a84f94b0719b9060600160405180910390a39998505050505050505050565b6008546001600160a01b03163314610c525760405162461bcd60e51b81526004016106ab906126cc565b600c5460ff16610c6157600080fd5b600c805460ff19169055565b6107e083838360405180602001604052806000815250610ef9565b60008181526009602052604090206001815460ff166002811115610cae57610cae61257a565b14610cb857600080fd5b6000610cc26107e5565b9050610ccd8361175d565b815460ff19166002178255600a54610ce6906001611172565b600a55604051339082156108fc029083906000818181858888f19350505050158015610d16573d6000803e3d6000fd5b50600a54604080518381526020810192909252849133917f4c60206a5c1de41f3376d1d60f0949d96cb682033c90b1c2d9d9a62d4c4120c091015b60405180910390a3505050565b6000818152600260205260408120546001600160a01b0316806105705760405162461bcd60e51b815260206004820152602960248201527f4552433732313a206f776e657220717565727920666f72206e6f6e657869737460448201526832b73a103a37b5b2b760b91b60648201526084016106ab565b60006001600160a01b038216610e405760405162461bcd60e51b815260206004820152602a60248201527f4552433732313a2062616c616e636520717565727920666f7220746865207a65604482015269726f206164647265737360b01b60648201526084016106ab565b506001600160a01b031660009081526003602052604090205490565b6008546001600160a01b03163314610e865760405162461bcd60e51b81526004016106ab906126cc565b610e9060006117f8565b565b6008546001600160a01b03163314610ebc5760405162461bcd60e51b81526004016106ab906126cc565b600c5460ff1615610ecc57600080fd5b600c805460ff19166001179055565b6060600180546105b3906125e2565b610ef533838361184a565b5050565b610f033383611198565b610f1f5760405162461bcd60e51b81526004016106ab9061261c565b610f2b84848484611910565b50505050565b6000818152600260205260409020546060906001600160a01b0316610fa85760405162461bcd60e51b815260206004820152602760248201527f4552433732313a2055524920717565727920666f72206e6f6e6578697374656e6044820152663a103a37b5b2b760c91b60648201526084016106ab565b60008281526009602052604090208054610fdd90600160881b810463ffffffff169061010090046001600160801b0316611943565b9392505050565b600080610ff184846115c7565b60009081526009602052604090205460ff16949350505050565b60003361101b6103b785856115c7565b6001600160a01b0316149392505050565b6008546001600160a01b031633146110565760405162461bcd60e51b81526004016106ab906126cc565b6001600160a01b0381166110bb5760405162461bcd60e51b815260206004820152602660248201527f4f776e61626c653a206e6577206f776e657220697320746865207a65726f206160448201526564647265737360d01b60648201526084016106ab565b6110c4816117f8565b50565b60006001600160e01b0319821663152a902d60e11b14806105705750610570826119fb565b6000610fdd8284612683565b6000610fdd8284612701565b600081815260046020526040902080546001600160a01b0319166001600160a01b038416908117909155819061113982610d5e565b6001600160a01b03167f8c5be1e5ebec7d5bd14f71427d1e84f3dd0314c0f7b2291e5b200ac8c7c3b92560405160405180910390a45050565b6000610fdd8284612719565b6000610570612710611192846126de6110ec565b90611a4b565b6000818152600260205260408120546001600160a01b03166112115760405162461bcd60e51b815260206004820152602c60248201527f4552433732313a206f70657261746f7220717565727920666f72206e6f6e657860448201526b34b9ba32b73a103a37b5b2b760a11b60648201526084016106ab565b600061121c83610d5e565b9050806001600160a01b0316846001600160a01b031614806112575750836001600160a01b031661124c84610636565b6001600160a01b0316145b8061128757506001600160a01b0380821660009081526005602090815260408083209388168352929052205460ff165b949350505050565b826001600160a01b03166112a282610d5e565b6001600160a01b0316146113065760405162461bcd60e51b815260206004820152602560248201527f4552433732313a207472616e736665722066726f6d20696e636f72726563742060448201526437bbb732b960d91b60648201526084016106ab565b6001600160a01b0382166113685760405162461bcd60e51b8152602060048201526024808201527f4552433732313a207472616e7366657220746f20746865207a65726f206164646044820152637265737360e01b60648201526084016106ab565b611373600082611104565b6001600160a01b038316600090815260036020526040812080546001929061139c908490612719565b90915550506001600160a01b03821660009081526003602052604081208054600192906113ca908490612701565b909155505060008181526002602052604080822080546001600160a01b0319166001600160a01b0386811691821790925591518493918716917fddf252ad1be2c89b69c2b068fc378daa952ba7f163c4a11628f55a4df523b3ef91a4505050565b6000808311801561143d5750600c8311155b1561147157600061144e8585611a57565b90506000831180156114605750808311155b1561146f576001915050610fdd565b505b5060009392505050565b60006107b284101561148c57600080fd5b838383600062253d8c60046064600c6114a6600e88612730565b6114b0919061276f565b6114bc8861132461279d565b6114c6919061279d565b6114d0919061276f565b6114db9060036127de565b6114e5919061276f565b600c806114f3600e88612730565b6114fd919061276f565b61150890600c6127de565b611513600288612730565b61151d9190612730565b6115299061016f6127de565b611533919061276f565b6004600c611542600e89612730565b61154c919061276f565b611558896112c061279d565b611562919061279d565b61156e906105b56127de565b611578919061276f565b611584617d4b87612730565b61158e919061279d565b611598919061279d565b6115a29190612730565b6115ac9190612730565b90506115bb6201518082612683565b98975050505050505050565b6040805160e09390931b6001600160e01b03191660208085019190915260809290921b6fffffffffffffffffffffffffffffffff191660248401528051601481850301815260349093019052815191012090565b6001600160a01b0382166116715760405162461bcd60e51b815260206004820181905260248201527f4552433732313a206d696e7420746f20746865207a65726f206164647265737360448201526064016106ab565b6000818152600260205260409020546001600160a01b0316156116d65760405162461bcd60e51b815260206004820152601c60248201527f4552433732313a20746f6b656e20616c7265616479206d696e7465640000000060448201526064016106ab565b6001600160a01b03821660009081526003602052604081208054600192906116ff908490612701565b909155505060008181526002602052604080822080546001600160a01b0319166001600160a01b03861690811790915590518392907fddf252ad1be2c89b69c2b068fc378daa952ba7f163c4a11628f55a4df523b3ef908290a45050565b600061176882610d5e565b9050611775600083611104565b6001600160a01b038116600090815260036020526040812080546001929061179e908490612719565b909155505060008281526002602052604080822080546001600160a01b0319169055518391906001600160a01b038416907fddf252ad1be2c89b69c2b068fc378daa952ba7f163c4a11628f55a4df523b3ef908390a45050565b600880546001600160a01b038381166001600160a01b0319831681179093556040519116919082907f8be0079c531659141344cd1fd0a4f28419497f9722a3daafe3b4186f6b6457e090600090a35050565b816001600160a01b0316836001600160a01b0316036118ab5760405162461bcd60e51b815260206004820152601960248201527f4552433732313a20617070726f766520746f2063616c6c65720000000000000060448201526064016106ab565b6001600160a01b03838116600081815260056020908152604080832094871680845294825291829020805460ff191686151590811790915591519182527f17307eab39ab6107e8899845ad3d59bd9653f200f220920489ca2b5937696c319101610d51565b61191b84848461128f565b61192784848484611add565b610f2b5760405162461bcd60e51b81526004016106ab90612863565b6060600061195084611bde565b90506119d3816119a58361196387611cb9565b6040516020016119749291906128d1565b60408051601f1981840301815290829052611991916020016129b1565b604051602081830303815290604052611f0e565b6040516020016119b591906129cd565b60408051601f19818403018152908290526119919291602001612a12565b6040516020016119e39190612e5f565b60405160208183030381529060405291505092915050565b60006001600160e01b031982166380ac58cd60e01b1480611a2c57506001600160e01b03198216635b5e139f60e01b145b8061057057506301ffc9a760e01b6001600160e01b0319831614610570565b6000610fdd82846126b8565b60008160011480611a685750816003145b80611a735750816005145b80611a7e5750816007145b80611a895750816008145b80611a94575081600a145b80611a9f575081600c145b15611aac5750601f610570565b81600214611abc5750601e610570565b611ac583612061565b611ad057601c611ad3565b601d5b60ff169050610570565b60006001600160a01b0384163b15611bd357604051630a85bd0160e11b81526001600160a01b0385169063150b7a0290611b21903390899088908890600401612ea4565b6020604051808303816000875af1925050508015611b5c575060408051601f3d908101601f19168201909252611b5991810190612ee1565b60015b611bb9573d808015611b8a576040519150601f19603f3d011682016040523d82523d6000602084013e611b8f565b606091505b508051600003611bb15760405162461bcd60e51b81526004016106ab90612863565b805181602001fd5b6001600160e01b031916630a85bd0160e11b149050611287565b506001949350505050565b606060ff8216600f600884901c1661ffff600c85901c16611bfe8161209d565b600a8360ff1610611c1a57611c158360ff1661209d565b611c46565b611c268360ff1661209d565b604051602001611c369190612efe565b6040516020818303038152906040525b600a8560ff1610611c6257611c5d8560ff1661209d565b611c8e565b611c6e8560ff1661209d565b604051602001611c7e9190612efe565b6040516020818303038152906040525b604051602001611ca093929190612f27565b6040516020818303038152906040529350505050919050565b604080516102408101825260016102008201818152600360fc1b610220840152825282518084018452818152603160f81b6020828101919091528084019190915283518085018552828152601960f91b818301528385015283518085018552828152603360f81b8183015260608481019190915284518086018652838152600d60fa1b81840152608085015284518086018652838152603560f81b8184015260a085015284518086018652838152601b60f91b8184015260c085015284518086018652838152603760f81b8184015260e085015284518086018652838152600760fb1b8184015261010085015284518086018652838152603960f81b8184015261012085015284518086018652838152606160f81b8184015261014085015284518086018652838152603160f91b8184015261016085015284518086018652838152606360f81b8184015261018085015284518086018652838152601960fa1b818401526101a085015284518086018652838152606560f81b818401526101c08501528451808601909552918452603360f91b908401526101e08201929092528160005b60108160ff161015611f06576000611e8c611e79836008612f86565b611e84906008612faf565b60ff1661209d565b9050611ea7611e9c836004612f86565b611e8490603c612fd4565b611ec0611eb5846006612f86565b611e8490605a612fd4565b8283611ecd868b8a61219e565b87604051602001611ee396959493929190612ff7565b60405160208183030381529060405292505080611eff906130f5565b9050611e5d565b509392505050565b60608151600003611f2d57505060408051602081019091526000815290565b60006040518060600160405280604081526020016131ff6040913990506000600384516002611f5c9190612701565b611f6691906126b8565b611f71906004612683565b67ffffffffffffffff811115611f8957611f89612455565b6040519080825280601f01601f191660200182016040528015611fb3576020820181803683370190505b509050600182016020820185865187015b8082101561201f576003820191508151603f8160121c168501518453600184019350603f81600c1c168501518453600184019350603f8160061c168501518453600184019350603f8116850151845350600183019250611fc4565b505060038651066001811461203b576002811461204e57612056565b603d6001830353603d6002830353612056565b603d60018303535b509195945050505050565b600061206e600483613114565b1580156120845750612081606483613114565b15155b80610570575061209661019083613114565b1592915050565b6060816000036120c45750506040805180820190915260018152600360fc1b602082015290565b8160005b81156120ee57806120d881613128565b91506120e79050600a836126b8565b91506120c8565b60008167ffffffffffffffff81111561210957612109612455565b6040519080825280601f01601f191660200182016040528015612133576020820181803683370190505b5090505b841561128757612148600183612719565b9150612155600a86613114565b612160906030612701565b60f81b81838151811061217557612175613141565b60200101906001600160f81b031916908160001a905350612197600a866126b8565b9450612137565b606060006121ad856008612f86565b90506001600160801b03841660ff82161c600084600f8316601081106121d5576121d5613141565b60200201519050600085600f600485901c16601081106121f7576121f7613141565b6020020151905080828284848660405160200161221996959493929190613157565b6040516020818303038152906040529450505050509392505050565b6001600160e01b0319811681146110c457600080fd5b60006020828403121561225d57600080fd5b8135610fdd81612235565b60005b8381101561228357818101518382015260200161226b565b83811115610f2b5750506000910152565b600081518084526122ac816020860160208601612268565b601f01601f19169290920160200192915050565b602081526000610fdd6020830184612294565b6000602082840312156122e557600080fd5b5035919050565b80356001600160a01b038116811461230357600080fd5b919050565b6000806040838503121561231b57600080fd5b612324836122ec565b946020939093013593505050565b60008060006060848603121561234757600080fd5b612350846122ec565b925061235e602085016122ec565b9150604084013590509250925092565b6000806040838503121561238157600080fd5b50508035926020909101359150565b803563ffffffff8116811461230357600080fd5b80356001600160801b038116811461230357600080fd5b6000806000606084860312156123d057600080fd5b6123d9846122ec565b92506123e760208501612390565b91506123f5604085016123a4565b90509250925092565b60006020828403121561241057600080fd5b610fdd826122ec565b6000806040838503121561242c57600080fd5b612435836122ec565b91506020830135801515811461244a57600080fd5b809150509250929050565b634e487b7160e01b600052604160045260246000fd5b6000806000806080858703121561248157600080fd5b61248a856122ec565b9350612498602086016122ec565b925060408501359150606085013567ffffffffffffffff808211156124bc57600080fd5b818701915087601f8301126124d057600080fd5b8135818111156124e2576124e2612455565b604051601f8201601f19908116603f0116810190838211818310171561250a5761250a612455565b816040528281528a602084870101111561252357600080fd5b82602086016020830137600060208483010152809550505050505092959194509250565b6000806040838503121561255a57600080fd5b61256383612390565b9150612571602084016123a4565b90509250929050565b634e487b7160e01b600052602160045260246000fd5b60208101600383106125b257634e487b7160e01b600052602160045260246000fd5b91905290565b600080604083850312156125cb57600080fd5b6125d4836122ec565b9150612571602084016122ec565b600181811c908216806125f657607f821691505b60208210810361261657634e487b7160e01b600052602260045260246000fd5b50919050565b60208082526031908201527f4552433732313a207472616e736665722063616c6c6572206973206e6f74206f6040820152701ddb995c881b9bdc88185c1c1c9bdd9959607a1b606082015260800190565b634e487b7160e01b600052601160045260246000fd5b600081600019048311821515161561269d5761269d61266d565b500290565b634e487b7160e01b600052601260045260246000fd5b6000826126c7576126c76126a2565b500490565b6020808252818101527f4f776e61626c653a2063616c6c6572206973206e6f7420746865206f776e6572604082015260600190565b600082198211156127145761271461266d565b500190565b60008282101561272b5761272b61266d565b500390565b60008083128015600160ff1b85018412161561274e5761274e61266d565b6001600160ff1b03840183138116156127695761276961266d565b50500390565b60008261277e5761277e6126a2565b600160ff1b8214600019841416156127985761279861266d565b500590565b600080821280156001600160ff1b03849003851316156127bf576127bf61266d565b600160ff1b83900384128116156127d8576127d861266d565b50500190565b60006001600160ff1b03818413828413808216868404861116156128045761280461266d565b600160ff1b60008712828116878305891216156128235761282361266d565b6000871292508782058712848416161561283f5761283f61266d565b878505871281841616156128555761285561266d565b505050929093029392505050565b60208082526032908201527f4552433732313a207472616e7366657220746f206e6f6e20455243373231526560408201527131b2b4bb32b91034b6b83632b6b2b73a32b960711b606082015260800190565b600081516128c7818560208601612268565b9290920192915050565b7f3c73766720786d6c6e733d22687474703a2f2f7777772e77332e6f72672f323081527f30302f737667222076657273696f6e3d22312e31222077696474683d2235313260208201527f22206865696768743d22353132222076696577426f783d22302030203132382060408201526b18991c111f1e3a34ba36329f60a11b60608201526000835161296a81606c850160208801612268565b671e17ba34ba36329f60c11b606c918401918201528351612992816074840160208801612268565b651e17b9bb339f60d11b60749290910191820152607a01949350505050565b600082516129c3818460208701612268565b9190910192915050565b7f646174613a696d6167652f7376672b786d6c3b6261736536342c000000000000815260008251612a0581601a850160208701612268565b91909101601a0192915050565b683d913730b6b2911d1160b91b81528251600090612a37816009850160208801612268565b7f222c226465736372697074696f6e223a22526566657272696e6720746f204f6e6009918401918201527f204b617761726127732074656c656772616d207365726965732066726f6d203160298201527f393730732c2031362049534f2d383835392d3120636861726163746572732c2060498201527f646572697665642066726f6d207468652070687261736520276920616d20737460698201527f696c6c20616c697665272c2067656e65726174652061203132382d626974206360898201527f6970686572746578742c20656e63727970746564207769746820616e206f627360a98201527f6f6c65746520616c676f726974686d2063616c6c6564204445532c206669727360c98201527f74207075626c697368656420696e20313937352c20696e20746865204543422060e98201527f6d6f64652e20546865203132382d6269742063697068657274657874206973206101098201527f6469766964656420757020696e746f20313620756e697473206f6620382d62696101298201527f742076616c756520746f20646963746174652074686520736861646573206f666101498201527f20313620737175617265732e2054686520666972737420382d6269742076616c6101698201527f756520636f72726573706f6e647320746f20746865206f757465726d6f7374206101898201527f73717561726520616e6420746865206c61737420636f72726573706f6e6473206101a98201527f746f2074686520696e6e65726d6f7374207371756172652e20546865207371756101c98201527f6172657320617265206c617965726564206f6e20746f70206f662065616368206101e98201527f6f7468657220696e20746865206d616e6e6572206465706c6f79656420696e206102098201527f6120736572696573206f66207061696e74696e6773207469746c65642027486f6102298201527f6d61676520746f2074686520537175617265272028313935302d3139373529206102498201527f6279204a6f73656620416c626572732e204561636820746f6b656e20697320746102698201527f69746c656420776974682061205554432064617465206265747765656e2032306102898201527f32302d30312d303120616e64207468652074696d657374616d70206f662074686102a98201527f652063757272656e7420626c6f636b20696e207468652049534f2d38363031206102c98201527f666f726d61742028595959594d4d4444292e20546865736520382049534f2d386102e98201527f3835392d31206368617261637465727320666f726d20612036342d626974206b6103098201527f657920666f72207468652044455320616c676f726974686d2e222c22696d61676103298201526332911d1160e11b610349820152612e56612e4861034d8301866128b5565b61227d60f01b815260020190565b95945050505050565b7f646174613a6170706c69636174696f6e2f6a736f6e3b6261736536342c000000815260008251612e9781601d850160208701612268565b91909101601d0192915050565b6001600160a01b0385811682528416602082015260408101839052608060608201819052600090612ed790830184612294565b9695505050505050565b600060208284031215612ef357600080fd5b8151610fdd81612235565b600360fc1b815260008251612f1a816001850160208701612268565b9190910160010192915050565b69646573496d616765732360b01b815260008451612f4c81600a850160208901612268565b845190830190612f6381600a840160208901612268565b8451910190612f7981600a840160208801612268565b01600a0195945050505050565b600060ff821660ff84168160ff0481118215151615612fa757612fa761266d565b029392505050565b600060ff821660ff84168060ff03821115612fcc57612fcc61266d565b019392505050565b600060ff821660ff841680821015612fee57612fee61266d565b90039392505050565b681e3932b1ba103c1e9160b91b8152865160009061301c816009850160208c01612268565b6411103c9e9160d91b600991840191820152875161304181600e840160208c01612268565b6811103bb4b23a341e9160b91b600e9290910191820152865161306b816017840160208b01612268565b6911103432b4b3b43a1e9160b11b601792909101918201528551613096816021840160208a01612268565b61011160f51b6021929091019182015284516130b9816023840160208901612268565b6130e76130e16023838501016f1039ba3937b5b29e913737b73291179f60811b815260100190565b866128b5565b9a9950505050505050505050565b600060ff821660ff810361310b5761310b61266d565b60010192915050565b600082613123576131236126a2565b500690565b60006001820161313a5761313a61266d565b5060010190565b634e487b7160e01b600052603260045260246000fd5b6666696c6c3d222360c81b8152600060078851602061317b82848701838e01612268565b89519185019161319081858501848e01612268565b89519201916131a481858501848d01612268565b88519201916131b881858501848c01612268565b87519201916131cc81858501848b01612268565b86519201916131e081858501848a01612268565b601160f91b920192830191909152506008019897505050505050505056fe4142434445464748494a4b4c4d4e4f505152535455565758595a6162636465666768696a6b6c6d6e6f707172737475767778797a303132333435363738392b2fa264697066735822122016199c5b721d21a01f022e0fbcb7cf22c7601174f26891f7dc6adf9ca9d784c964736f6c634300080d0033",
  "linkReferences": {},
  "deployedLinkReferences": {}
}