{
  "_format": "hh-sol-artifact-1",
  "contractName": "DesImages",
  "sourceName": "contracts/DesImages.sol",
  "abi": [
    {
      "inputs": [],
      "stateMutability": "nonpayable",
      "type": "constructor"
    },
    {
      "inputs": [],
      "name": "DesImages__CreatorTransferFail",
      "type": "error"
    },
    {
      "inputs": [],
      "name": "DesImages__FutureDate",
      "type": "error"
    },
    {
      "inputs": [],
      "name": "DesImages__InvalidDate",
      "type": "error"
    },
    {
      "inputs": [],
      "name": "DesImages__NotEnouthETHSent",
      "type": "error"
    },
    {
      "inputs": [],
      "name": "DesImages__OwnerTransferFail",
      "type": "error"
    },
    {
      "inputs": [],
      "name": "DesImages__TokenNotForBurn",
      "type": "error"
    },
    {
      "inputs": [],
      "name": "DesImages__TokenNotForSale",
      "type": "error"
    },
    {
      "inputs": [],
      "name": "DesImages__TokenNotOwned",
      "type": "error"
    },
    {
      "anonymous": false,
      "inputs": [
        {
          "indexed": true,
          "internalType": "address",
          "name": "owner",
          "type": "address"
        },
        {
          "indexed": true,
          "internalType": "address",
          "name": "approved",
          "type": "address"
        },
        {
          "indexed": true,
          "internalType": "uint256",
          "name": "tokenId",
          "type": "uint256"
        }
      ],
      "name": "Approval",
      "type": "event"
    },
    {
      "anonymous": false,
      "inputs": [
        {
          "indexed": true,
          "internalType": "address",
          "name": "owner",
          "type": "address"
        },
        {
          "indexed": true,
          "internalType": "address",
          "name": "operator",
          "type": "address"
        },
        {
          "indexed": false,
          "internalType": "bool",
          "name": "approved",
          "type": "bool"
        }
      ],
      "name": "ApprovalForAll",
      "type": "event"
    },
    {
      "anonymous": false,
      "inputs": [
        {
          "indexed": true,
          "internalType": "address",
          "name": "from",
          "type": "address"
        },
        {
          "indexed": true,
          "internalType": "uint256",
          "name": "tokenId",
          "type": "uint256"
        },
        {
          "indexed": false,
          "internalType": "uint256",
          "name": "burnReward",
          "type": "uint256"
        },
        {
          "indexed": false,
          "internalType": "uint256",
          "name": "totalSupply",
          "type": "uint256"
        }
      ],
      "name": "Burned",
      "type": "event"
    },
    {
      "anonymous": false,
      "inputs": [
        {
          "indexed": true,
          "internalType": "address",
          "name": "to",
          "type": "address"
        },
        {
          "indexed": true,
          "internalType": "uint256",
          "name": "tokenId",
          "type": "uint256"
        },
        {
          "indexed": false,
          "internalType": "uint256",
          "name": "mintPrice",
          "type": "uint256"
        },
        {
          "indexed": false,
          "internalType": "uint256",
          "name": "totalSupply",
          "type": "uint256"
        },
        {
          "indexed": false,
          "internalType": "uint256",
          "name": "totalEverMinted",
          "type": "uint256"
        }
      ],
      "name": "Minted",
      "type": "event"
    },
    {
      "anonymous": false,
      "inputs": [
        {
          "indexed": true,
          "internalType": "address",
          "name": "previousOwner",
          "type": "address"
        },
        {
          "indexed": true,
          "internalType": "address",
          "name": "newOwner",
          "type": "address"
        }
      ],
      "name": "OwnershipTransferred",
      "type": "event"
    },
    {
      "anonymous": false,
      "inputs": [
        {
          "indexed": true,
          "internalType": "address",
          "name": "from",
          "type": "address"
        },
        {
          "indexed": true,
          "internalType": "address",
          "name": "to",
          "type": "address"
        },
        {
          "indexed": true,
          "internalType": "uint256",
          "name": "tokenId",
          "type": "uint256"
        }
      ],
      "name": "Transfer",
      "type": "event"
    },
    {
      "inputs": [
        {
          "internalType": "address",
          "name": "to",
          "type": "address"
        },
        {
          "internalType": "uint256",
          "name": "tokenId",
          "type": "uint256"
        }
      ],
      "name": "approve",
      "outputs": [],
      "stateMutability": "nonpayable",
      "type": "function"
    },
    {
      "inputs": [
        {
          "internalType": "address",
          "name": "owner",
          "type": "address"
        }
      ],
      "name": "balanceOf",
      "outputs": [
        {
          "internalType": "uint256",
          "name": "",
          "type": "uint256"
        }
      ],
      "stateMutability": "view",
      "type": "function"
    },
    {
      "inputs": [
        {
          "internalType": "uint256",
          "name": "tokenId_",
          "type": "uint256"
        }
      ],
      "name": "burn",
      "outputs": [],
      "stateMutability": "nonpayable",
      "type": "function"
    },
    {
      "inputs": [],
      "name": "currentBurnReward",
      "outputs": [
        {
          "internalType": "uint256",
          "name": "",
          "type": "uint256"
        }
      ],
      "stateMutability": "view",
      "type": "function"
    },
    {
      "inputs": [],
      "name": "currentMintPrice",
      "outputs": [
        {
          "internalType": "uint256",
          "name": "",
          "type": "uint256"
        }
      ],
      "stateMutability": "view",
      "type": "function"
    },
    {
      "inputs": [
        {
          "internalType": "uint256",
          "name": "tokenId",
          "type": "uint256"
        }
      ],
      "name": "getApproved",
      "outputs": [
        {
          "internalType": "address",
          "name": "",
          "type": "address"
        }
      ],
      "stateMutability": "view",
      "type": "function"
    },
    {
      "inputs": [
        {
          "internalType": "uint32",
          "name": "date_",
          "type": "uint32"
        },
        {
          "internalType": "uint128",
          "name": "ciphertext_",
          "type": "uint128"
        }
      ],
      "name": "getTokenStatus",
      "outputs": [
        {
          "internalType": "enum DesImages.Status",
          "name": "",
          "type": "uint8"
        }
      ],
      "stateMutability": "view",
      "type": "function"
    },
    {
      "inputs": [
        {
          "internalType": "address",
          "name": "owner",
          "type": "address"
        },
        {
          "internalType": "address",
          "name": "operator",
          "type": "address"
        }
      ],
      "name": "isApprovedForAll",
      "outputs": [
        {
          "internalType": "bool",
          "name": "",
          "type": "bool"
        }
      ],
      "stateMutability": "view",
      "type": "function"
    },
    {
      "inputs": [
        {
          "internalType": "uint32",
          "name": "date_",
          "type": "uint32"
        },
        {
          "internalType": "uint128",
          "name": "ciphertext_",
          "type": "uint128"
        }
      ],
      "name": "mint",
      "outputs": [
        {
          "internalType": "uint256",
          "name": "",
          "type": "uint256"
        }
      ],
      "stateMutability": "payable",
      "type": "function"
    },
    {
      "inputs": [],
      "name": "name",
      "outputs": [
        {
          "internalType": "string",
          "name": "",
          "type": "string"
        }
      ],
      "stateMutability": "view",
      "type": "function"
    },
    {
      "inputs": [],
      "name": "owner",
      "outputs": [
        {
          "internalType": "address",
          "name": "",
          "type": "address"
        }
      ],
      "stateMutability": "view",
      "type": "function"
    },
    {
      "inputs": [
        {
          "internalType": "uint256",
          "name": "tokenId",
          "type": "uint256"
        }
      ],
      "name": "ownerOf",
      "outputs": [
        {
          "internalType": "address",
          "name": "",
          "type": "address"
        }
      ],
      "stateMutability": "view",
      "type": "function"
    },
    {
      "inputs": [],
      "name": "pause",
      "outputs": [],
      "stateMutability": "nonpayable",
      "type": "function"
    },
    {
      "inputs": [],
      "name": "paused",
      "outputs": [
        {
          "internalType": "bool",
          "name": "",
          "type": "bool"
        }
      ],
      "stateMutability": "view",
      "type": "function"
    },
    {
      "inputs": [],
      "name": "renounceOwnership",
      "outputs": [],
      "stateMutability": "nonpayable",
      "type": "function"
    },
    {
      "inputs": [
        {
          "internalType": "uint256",
          "name": "_tokenId",
          "type": "uint256"
        },
        {
          "internalType": "uint256",
          "name": "_salePrice",
          "type": "uint256"
        }
      ],
      "name": "royaltyInfo",
      "outputs": [
        {
          "internalType": "address",
          "name": "",
          "type": "address"
        },
        {
          "internalType": "uint256",
          "name": "",
          "type": "uint256"
        }
      ],
      "stateMutability": "view",
      "type": "function"
    },
    {
      "inputs": [
        {
          "internalType": "address",
          "name": "from",
          "type": "address"
        },
        {
          "internalType": "address",
          "name": "to",
          "type": "address"
        },
        {
          "internalType": "uint256",
          "name": "tokenId",
          "type": "uint256"
        }
      ],
      "name": "safeTransferFrom",
      "outputs": [],
      "stateMutability": "nonpayable",
      "type": "function"
    },
    {
      "inputs": [
        {
          "internalType": "address",
          "name": "from",
          "type": "address"
        },
        {
          "internalType": "address",
          "name": "to",
          "type": "address"
        },
        {
          "internalType": "uint256",
          "name": "tokenId",
          "type": "uint256"
        },
        {
          "internalType": "bytes",
          "name": "_data",
          "type": "bytes"
        }
      ],
      "name": "safeTransferFrom",
      "outputs": [],
      "stateMutability": "nonpayable",
      "type": "function"
    },
    {
      "inputs": [
        {
          "internalType": "address",
          "name": "operator",
          "type": "address"
        },
        {
          "internalType": "bool",
          "name": "approved",
          "type": "bool"
        }
      ],
      "name": "setApprovalForAll",
      "outputs": [],
      "stateMutability": "nonpayable",
      "type": "function"
    },
    {
      "inputs": [
        {
          "internalType": "bytes4",
          "name": "interfaceId",
          "type": "bytes4"
        }
      ],
      "name": "supportsInterface",
      "outputs": [
        {
          "internalType": "bool",
          "name": "",
          "type": "bool"
        }
      ],
      "stateMutability": "view",
      "type": "function"
    },
    {
      "inputs": [],
      "name": "symbol",
      "outputs": [
        {
          "internalType": "string",
          "name": "",
          "type": "string"
        }
      ],
      "stateMutability": "view",
      "type": "function"
    },
    {
      "inputs": [],
      "name": "tokenIdsOf",
      "outputs": [
        {
          "internalType": "uint256[]",
          "name": "",
          "type": "uint256[]"
        }
      ],
      "stateMutability": "view",
      "type": "function"
    },
    {
      "inputs": [
        {
          "internalType": "uint256",
          "name": "tokenId_",
          "type": "uint256"
        }
      ],
      "name": "tokenURI",
      "outputs": [
        {
          "internalType": "string",
          "name": "",
          "type": "string"
        }
      ],
      "stateMutability": "view",
      "type": "function"
    },
    {
      "inputs": [],
      "name": "totalEverMinted",
      "outputs": [
        {
          "internalType": "uint256",
          "name": "",
          "type": "uint256"
        }
      ],
      "stateMutability": "view",
      "type": "function"
    },
    {
      "inputs": [],
      "name": "totalSupply",
      "outputs": [
        {
          "internalType": "uint256",
          "name": "",
          "type": "uint256"
        }
      ],
      "stateMutability": "view",
      "type": "function"
    },
    {
      "inputs": [
        {
          "internalType": "address",
          "name": "from",
          "type": "address"
        },
        {
          "internalType": "address",
          "name": "to",
          "type": "address"
        },
        {
          "internalType": "uint256",
          "name": "tokenId",
          "type": "uint256"
        }
      ],
      "name": "transferFrom",
      "outputs": [],
      "stateMutability": "nonpayable",
      "type": "function"
    },
    {
      "inputs": [
        {
          "internalType": "address",
          "name": "newOwner",
          "type": "address"
        }
      ],
      "name": "transferOwnership",
      "outputs": [],
      "stateMutability": "nonpayable",
      "type": "function"
    },
    {
      "inputs": [],
      "name": "unpause",
      "outputs": [],
      "stateMutability": "nonpayable",
      "type": "function"
    }
  ],
  "bytecode": "0x60806040526000600d819055600e55600f805460ff191690553480156200002557600080fd5b506040805180820182526009815268646573496d6167657360b81b602080830191825283518085019094526007845266444553494d475360c81b90840152815191929162000076916000916200021d565b5080516200008c9060019060208401906200021d565b505050620000a9620000a3620000c260201b60201c565b620000c6565b6001600955620000bc336101f462000118565b620002ff565b3390565b600880546001600160a01b038381166001600160a01b0319831681179093556040519116919082907f8be0079c531659141344cd1fd0a4f28419497f9722a3daafe3b4186f6b6457e090600090a35050565b6127106001600160601b03821611156200018c5760405162461bcd60e51b815260206004820152602a60248201527f455243323938313a20726f79616c7479206665652077696c6c206578636565646044820152692073616c65507269636560b01b60648201526084015b60405180910390fd5b6001600160a01b038216620001e45760405162461bcd60e51b815260206004820152601960248201527f455243323938313a20696e76616c696420726563656976657200000000000000604482015260640162000183565b604080518082019091526001600160a01b039092168083526001600160601b039091166020909201829052600160a01b90910217600655565b8280546200022b90620002c3565b90600052602060002090601f0160209004810192826200024f57600085556200029a565b82601f106200026a57805160ff19168380011785556200029a565b828001600101855582156200029a579182015b828111156200029a5782518255916020019190600101906200027d565b50620002a8929150620002ac565b5090565b5b80821115620002a85760008155600101620002ad565b600181811c90821680620002d857607f821691505b602082108103620002f957634e487b7160e01b600052602260045260246000fd5b50919050565b6134b5806200030f6000396000f3fe6080604052600436106101b75760003560e01c80636352211e116100ec578063a22cb4651161008a578063cb5497f011610064578063cb5497f0146104be578063e985e9c5146104eb578063f2fde38b14610534578063fa35fab11461055457600080fd5b8063a22cb4651461045e578063b88d4fde1461047e578063c87b56dd1461049e57600080fd5b80638456cb59116100c65780638456cb59146104005780638da5cb5b14610415578063924808b41461043357806395d89b411461044957600080fd5b80636352211e146103ab57806370a08231146103cb578063715018a6146103eb57600080fd5b806323b872dd116101595780633f4ba83a116101335780633f4ba83a1461033c57806342842e0e1461035157806342966c68146103715780635c975abb1461039157600080fd5b806323b872dd146102bb57806326adbe8a146102db5780632a55205a146102fd57600080fd5b8063081812fc11610195578063081812fc14610236578063095ea7b31461026e57806318160ddd146102905780631a35c9d0146102a657600080fd5b806301ffc9a7146101bc5780630561942a146101f157806306fdde0314610214575b600080fd5b3480156101c857600080fd5b506101dc6101d73660046124c4565b610567565b60405190151581526020015b60405180910390f35b3480156101fd57600080fd5b50610206610578565b6040519081526020016101e8565b34801561022057600080fd5b506102296105a6565b6040516101e89190612539565b34801561024257600080fd5b5061025661025136600461254c565b610638565b6040516001600160a01b0390911681526020016101e8565b34801561027a57600080fd5b5061028e610289366004612581565b6106d2565b005b34801561029c57600080fd5b50610206600d5481565b3480156102b257600080fd5b506102066107e7565b3480156102c757600080fd5b5061028e6102d63660046125ab565b61080d565b3480156102e757600080fd5b506102f061083e565b6040516101e891906125e7565b34801561030957600080fd5b5061031d61031836600461262b565b61089e565b604080516001600160a01b0390931683526020830191909152016101e8565b34801561034857600080fd5b5061028e61094a565b34801561035d57600080fd5b5061028e61036c3660046125ab565b61098f565b34801561037d57600080fd5b5061028e61038c36600461254c565b6109aa565b34801561039d57600080fd5b50600f546101dc9060ff1681565b3480156103b757600080fd5b506102566103c636600461254c565b610b6f565b3480156103d757600080fd5b506102066103e636600461264d565b610be6565b3480156103f757600080fd5b5061028e610c6d565b34801561040c57600080fd5b5061028e610ca3565b34801561042157600080fd5b506008546001600160a01b0316610256565b34801561043f57600080fd5b50610206600e5481565b34801561045557600080fd5b50610229610cec565b34801561046a57600080fd5b5061028e610479366004612668565b610cfb565b34801561048a57600080fd5b5061028e6104993660046126ba565b610d0a565b3480156104aa57600080fd5b506102296104b936600461254c565b610d42565b3480156104ca57600080fd5b506104de6104d9366004612796565b610df5565b6040516101e891906127ef565b3480156104f757600080fd5b506101dc610506366004612817565b6001600160a01b03918216600090815260056020908152604080832093909416825291909152205460ff1690565b34801561054057600080fd5b5061028e61054f36600461264d565b610e1c565b610206610562366004612796565b610eb7565b60006105728261127b565b92915050565b600d5460009061058f66038d7ea4c6800082612860565b6105a090662386f26fc1000061287f565b91505090565b6060600080546105b590612897565b80601f01602080910402602001604051908101604052809291908181526020018280546105e190612897565b801561062e5780601f106106035761010080835404028352916020019161062e565b820191906000526020600020905b81548152906001019060200180831161061157829003601f168201915b5050505050905090565b6000818152600260205260408120546001600160a01b03166106b65760405162461bcd60e51b815260206004820152602c60248201527f4552433732313a20617070726f76656420717565727920666f72206e6f6e657860448201526b34b9ba32b73a103a37b5b2b760a11b60648201526084015b60405180910390fd5b506000908152600460205260409020546001600160a01b031690565b60006106dd82610b6f565b9050806001600160a01b0316836001600160a01b03160361074a5760405162461bcd60e51b815260206004820152602160248201527f4552433732313a20617070726f76616c20746f2063757272656e74206f776e656044820152603960f91b60648201526084016106ad565b336001600160a01b038216148061076657506107668133610506565b6107d85760405162461bcd60e51b815260206004820152603860248201527f4552433732313a20617070726f76652063616c6c6572206973206e6f74206f7760448201527f6e6572206e6f7220617070726f76656420666f7220616c6c000000000000000060648201526084016106ad565b6107e283836112a0565b505050565b6000806107f2610578565b90506105a061080866038d7ea4c68000836128d1565b61130e565b6108173382611329565b6108335760405162461bcd60e51b81526004016106ad906128e8565b6107e2838383611420565b336000908152600b602090815260409182902080548351818402810184019094528084526060939283018282801561062e57602002820191906000526020600020905b815481526020019060010190808311610881575050505050905090565b60008281526007602090815260408083208151808301909252546001600160a01b038116808352600160a01b9091046001600160601b03169282019290925282916109135750604080518082019091526006546001600160a01b0381168252600160a01b90046001600160601b031660208201525b602081015160009061271090610932906001600160601b031687612860565b61093c919061294f565b915196919550909350505050565b6008546001600160a01b031633146109745760405162461bcd60e51b81526004016106ad90612963565b600f5460ff1661098357600080fd5b600f805460ff19169055565b6107e283838360405180602001604052806000815250610d0a565b6002600954036109fc5760405162461bcd60e51b815260206004820152601f60248201527f5265656e7472616e637947756172643a207265656e7472616e742063616c6c0060448201526064016106ad565b6002600955610a0a81610b6f565b6001600160a01b0316336001600160a01b031614610a3b5760405163f6b4882360e01b815260040160405180910390fd5b6000818152600c602052604090206001815460ff166002811115610a6157610a616127d9565b14610a7f57604051632ea56e1160e21b815260040160405180910390fd5b6000610a896107e7565b9050610a94836115c7565b815460ff19166002178255600d805460019190600090610ab59084906128d1565b9091555050604051600090339083908381818185875af1925050503d8060008114610afc576040519150601f19603f3d011682016040523d82523d6000602084013e610b01565b606091505b5050905080610b2357604051637d8e64d960e01b815260040160405180910390fd5b600d54604080518481526020810192909252859133917f4c60206a5c1de41f3376d1d60f0949d96cb682033c90b1c2d9d9a62d4c4120c0910160405180910390a3505060016009555050565b6000818152600260205260408120546001600160a01b0316806105725760405162461bcd60e51b815260206004820152602960248201527f4552433732313a206f776e657220717565727920666f72206e6f6e657869737460448201526832b73a103a37b5b2b760b91b60648201526084016106ad565b60006001600160a01b038216610c515760405162461bcd60e51b815260206004820152602a60248201527f4552433732313a2062616c616e636520717565727920666f7220746865207a65604482015269726f206164647265737360b01b60648201526084016106ad565b506001600160a01b031660009081526003602052604090205490565b6008546001600160a01b03163314610c975760405162461bcd60e51b81526004016106ad90612963565b610ca1600061166e565b565b6008546001600160a01b03163314610ccd5760405162461bcd60e51b81526004016106ad90612963565b600f5460ff1615610cdd57600080fd5b600f805460ff19166001179055565b6060600180546105b590612897565b610d063383836116c0565b5050565b610d143383611329565b610d305760405162461bcd60e51b81526004016106ad906128e8565b610d3c8484848461178e565b50505050565b6000818152600260205260409020546060906001600160a01b0316610db95760405162461bcd60e51b815260206004820152602760248201527f4552433732313a2055524920717565727920666f72206e6f6e6578697374656e6044820152663a103a37b5b2b760c91b60648201526084016106ad565b6000828152600c602052604090208054610dee90600160881b810463ffffffff169061010090046001600160801b03166117c1565b9392505050565b600080610e02848461185c565b6000908152600c602052604090205460ff16949350505050565b6008546001600160a01b03163314610e465760405162461bcd60e51b81526004016106ad90612963565b6001600160a01b038116610eab5760405162461bcd60e51b815260206004820152602660248201527f4f776e61626c653a206e6577206f776e657220697320746865207a65726f206160448201526564647265737360d01b60648201526084016106ad565b610eb48161166e565b50565b6000600260095403610f0b5760405162461bcd60e51b815260206004820152601f60248201527f5265656e7472616e637947756172643a207265656e7472616e742063616c6c0060448201526064016106ad565b6002600955600f5460ff1615610f2057600080fd5b8260ff8116600f600883901c1661ffff600c84901c166107e4811080610f4b575061270f8161ffff16115b80610f685750610f668161ffff168360ff168560ff166118b0565b155b15610f8657604051634cfd191160e11b815260040160405180910390fd5b42610f9c8261ffff168460ff168660ff16611900565b1115610fbb5760405163157b6c4f60e31b815260040160405180910390fd5b6000610fc5610578565b905080341015610fe8576040516308b0ffa560e21b815260040160405180910390fd5b6000610ff4898961185c565b9050600080828152600c602052604090205460ff16600281111561101a5761101a6127d9565b14611038576040516319558d1960e11b815260040160405180910390fd5b6110423382611a4c565b604080516060810190915280600181526001600160801b038a1660208083019190915263ffffffff8c166040928301526000848152600c9091522081518154829060ff1916600183600281111561109b5761109b6127d9565b02179055506020820151815460409093015163ffffffff16600160881b0263ffffffff60881b196001600160801b039092166101000291909116610100600160a81b031990931692909217919091179055600e80546001919060009061110290849061287f565b925050819055506001600d600082825461111c919061287f565b90915550506008546000906001600160a01b03166111398461130e565b61114390856128d1565b604051600081818185875af1925050503d806000811461117f576040519150601f19603f3d011682016040523d82523d6000602084013e611184565b606091505b50509050806111a65760405163679ac27160e01b815260040160405180910390fd5b82341115611220576000336111bb85346128d1565b604051600081818185875af1925050503d80600081146111f7576040519150601f19603f3d011682016040523d82523d6000602084013e6111fc565b606091505b505090508061121e57604051637d8e64d960e01b815260040160405180910390fd5b505b600d54600e54604080518681526020810193909352820152829033907f19f5f791ee407773427bf7b970bbbc3375065c32edd1ab142e23a84f94b0719b9060600160405180910390a350600160095598975050505050505050565b60006001600160e01b0319821663152a902d60e11b1480610572575061057282611a66565b600081815260046020526040902080546001600160a01b0319166001600160a01b03841690811790915581906112d582610b6f565b6001600160a01b03167f8c5be1e5ebec7d5bd14f71427d1e84f3dd0314c0f7b2291e5b200ac8c7c3b92560405160405180910390a45050565b600061271061131f6126de84612860565b610572919061294f565b6000818152600260205260408120546001600160a01b03166113a25760405162461bcd60e51b815260206004820152602c60248201527f4552433732313a206f70657261746f7220717565727920666f72206e6f6e657860448201526b34b9ba32b73a103a37b5b2b760a11b60648201526084016106ad565b60006113ad83610b6f565b9050806001600160a01b0316846001600160a01b031614806113e85750836001600160a01b03166113dd84610638565b6001600160a01b0316145b8061141857506001600160a01b0380821660009081526005602090815260408083209388168352929052205460ff165b949350505050565b826001600160a01b031661143382610b6f565b6001600160a01b0316146114975760405162461bcd60e51b815260206004820152602560248201527f4552433732313a207472616e736665722066726f6d20696e636f72726563742060448201526437bbb732b960d91b60648201526084016106ad565b6001600160a01b0382166114f95760405162461bcd60e51b8152602060048201526024808201527f4552433732313a207472616e7366657220746f20746865207a65726f206164646044820152637265737360e01b60648201526084016106ad565b611504838383611ab6565b61150f6000826112a0565b6001600160a01b03831660009081526003602052604081208054600192906115389084906128d1565b90915550506001600160a01b038216600090815260036020526040812080546001929061156690849061287f565b909155505060008181526002602052604080822080546001600160a01b0319166001600160a01b0386811691821790925591518493918716917fddf252ad1be2c89b69c2b068fc378daa952ba7f163c4a11628f55a4df523b3ef91a4505050565b60006115d282610b6f565b90506115e081600084611ab6565b6115eb6000836112a0565b6001600160a01b03811660009081526003602052604081208054600192906116149084906128d1565b909155505060008281526002602052604080822080546001600160a01b0319169055518391906001600160a01b038416907fddf252ad1be2c89b69c2b068fc378daa952ba7f163c4a11628f55a4df523b3ef908390a45050565b600880546001600160a01b038381166001600160a01b0319831681179093556040519116919082907f8be0079c531659141344cd1fd0a4f28419497f9722a3daafe3b4186f6b6457e090600090a35050565b816001600160a01b0316836001600160a01b0316036117215760405162461bcd60e51b815260206004820152601960248201527f4552433732313a20617070726f766520746f2063616c6c65720000000000000060448201526064016106ad565b6001600160a01b03838116600081815260056020908152604080832094871680845294825291829020805460ff191686151590811790915591519182527f17307eab39ab6107e8899845ad3d59bd9653f200f220920489ca2b5937696c31910160405180910390a3505050565b611799848484611420565b6117a584848484611b17565b610d3c5760405162461bcd60e51b81526004016106ad90612998565b606060006117ce84611c18565b905061183481611806836117e187611cf3565b6040516020016117f2929190612a06565b604051602081830303815290604052611da8565b6040516020016118169190612ae6565b60408051601f19818403018152908290526117f29291602001612b2b565b6040516020016118449190612f57565b60405160208183030381529060405291505092915050565b6040805160e09390931b6001600160e01b03191660208085019190915260809290921b6fffffffffffffffffffffffffffffffff191660248401528051601481850301815260349093019052815191012090565b600080831180156118c25750600c8311155b156118f65760006118d38585611efb565b90506000831180156118e55750808311155b156118f4576001915050610dee565b505b5060009392505050565b60006107b284101561191157600080fd5b838383600062253d8c60046064600c61192b600e88612f9c565b6119359190612fdb565b61194188611324613009565b61194b9190613009565b6119559190612fdb565b61196090600361304a565b61196a9190612fdb565b600c80611978600e88612f9c565b6119829190612fdb565b61198d90600c61304a565b611998600288612f9c565b6119a29190612f9c565b6119ae9061016f61304a565b6119b89190612fdb565b6004600c6119c7600e89612f9c565b6119d19190612fdb565b6119dd896112c0613009565b6119e79190613009565b6119f3906105b561304a565b6119fd9190612fdb565b611a09617d4b87612f9c565b611a139190613009565b611a1d9190613009565b611a279190612f9c565b611a319190612f9c565b9050611a406201518082612860565b98975050505050505050565b610d06828260405180602001604052806000815250611f81565b60006001600160e01b031982166380ac58cd60e01b1480611a9757506001600160e01b03198216635b5e139f60e01b145b8061057257506301ffc9a760e01b6001600160e01b0319831614610572565b6001600160a01b038316611ace576107e28282611fb4565b6001600160a01b038216611ae8576107e283826001611fed565b816001600160a01b0316836001600160a01b0316146107e257611b0d83826000611fed565b6107e28282611fb4565b60006001600160a01b0384163b15611c0d57604051630a85bd0160e11b81526001600160a01b0385169063150b7a0290611b5b9033908990889088906004016130cf565b6020604051808303816000875af1925050508015611b96575060408051601f3d908101601f19168201909252611b939181019061310c565b60015b611bf3573d808015611bc4576040519150601f19603f3d011682016040523d82523d6000602084013e611bc9565b606091505b508051600003611beb5760405162461bcd60e51b81526004016106ad90612998565b805181602001fd5b6001600160e01b031916630a85bd0160e11b149050611418565b506001949350505050565b606060ff8216600f600884901c1661ffff600c85901c16611c38816120ec565b600a8360ff1610611c5457611c4f8360ff166120ec565b611c80565b611c608360ff166120ec565b604051602001611c709190613129565b6040516020818303038152906040525b600a8560ff1610611c9c57611c978560ff166120ec565b611cc8565b611ca88560ff166120ec565b604051602001611cb89190613129565b6040516020818303038152906040525b604051602001611cda93929190613152565b6040516020818303038152906040529350505050919050565b60608060005b60108160ff161015611da1576000611d28611d158360086131b1565b611d209060086131da565b60ff166120ec565b9050611d43611d388360046131b1565b611d2090603c6131ff565b611d5c611d518460066131b1565b611d2090605a6131ff565b8283611d68868a6121ed565b87604051602001611d7e96959493929190613222565b60405160208183030381529060405292505080611d9a90613320565b9050611cf9565b5092915050565b60608151600003611dc757505060408051602081019091526000815290565b60006040518060600160405280604081526020016134406040913990506000600384516002611df6919061287f565b611e00919061294f565b611e0b906004612860565b67ffffffffffffffff811115611e2357611e236126a4565b6040519080825280601f01601f191660200182016040528015611e4d576020820181803683370190505b509050600182016020820185865187015b80821015611eb9576003820191508151603f8160121c168501518453600184019350603f81600c1c168501518453600184019350603f8160061c168501518453600184019350603f8116850151845350600183019250611e5e565b5050600386510660018114611ed55760028114611ee857611ef0565b603d6001830353603d6002830353611ef0565b603d60018303535b509195945050505050565b60008160011480611f0c5750816003145b80611f175750816005145b80611f225750816007145b80611f2d5750816008145b80611f38575081600a145b80611f43575081600c145b15611f505750601f610572565b81600214611f605750601e610572565b611f6983612324565b611f7457601c611f77565b601d5b60ff169050610572565b611f8b8383612360565b611f986000848484611b17565b6107e25760405162461bcd60e51b81526004016106ad90612998565b6001600160a01b039091166000908152600b602090815260408083208054858552600a8452918420829055600182018155835291200155565b6001600160a01b0383166000908152600b602052604081208054909190612016906001906128d1565b6000858152600a60205260409020549091508082146120a857805b828110156120a65760008461204783600161287f565b815481106120575761205761333f565b90600052602060002001549050808583815481106120775761207761333f565b6000918252602080832090910192909255918252600a90526040902081905561209f81613355565b9050612031565b505b828054806120b8576120b861336e565b6001900381819060005260206000200160009055905583156120e4576000858152600a60205260408120555b505050505050565b6060816000036121135750506040805180820190915260018152600360fc1b602082015290565b8160005b811561213d578061212781613355565b91506121369050600a8361294f565b9150612117565b60008167ffffffffffffffff811115612158576121586126a4565b6040519080825280601f01601f191660200182016040528015612182576020820181803683370190505b5090505b8415611418576121976001836128d1565b91506121a4600a86613384565b6121af90603061287f565b60f81b8183815181106121c4576121c461333f565b60200101906001600160f81b031916908160001a9053506121e6600a8661294f565b9450612186565b606060006121fc8460086131b1565b6040805180820190915260108082526f181899199a1a9b1b9c1cb0b131b232b360811b60208301529192506001600160801b03851660ff84161c9160009190600f841690811061224e5761224e61333f565b016020908101516040516001600160f81b03199091169181019190915260210160408051601f1981840301815282820190915260108083526f181899199a1a9b1b9c1cb0b131b232b360811b602084015290925060009190600f600486901c169081106122bd576122bd61333f565b016020908101516040516001600160f81b031990911691810191909152602101604051602081830303815290604052905080828284848660405160200161230996959493929190613398565b60405160208183030381529060405294505050505092915050565b6000612331600483613384565b1580156123475750612344606483613384565b15155b80610572575061235961019083613384565b1592915050565b6001600160a01b0382166123b65760405162461bcd60e51b815260206004820181905260248201527f4552433732313a206d696e7420746f20746865207a65726f206164647265737360448201526064016106ad565b6000818152600260205260409020546001600160a01b03161561241b5760405162461bcd60e51b815260206004820152601c60248201527f4552433732313a20746f6b656e20616c7265616479206d696e7465640000000060448201526064016106ad565b61242760008383611ab6565b6001600160a01b038216600090815260036020526040812080546001929061245090849061287f565b909155505060008181526002602052604080822080546001600160a01b0319166001600160a01b03861690811790915590518392907fddf252ad1be2c89b69c2b068fc378daa952ba7f163c4a11628f55a4df523b3ef908290a45050565b6001600160e01b031981168114610eb457600080fd5b6000602082840312156124d657600080fd5b8135610dee816124ae565b60005b838110156124fc5781810151838201526020016124e4565b83811115610d3c5750506000910152565b600081518084526125258160208601602086016124e1565b601f01601f19169290920160200192915050565b602081526000610dee602083018461250d565b60006020828403121561255e57600080fd5b5035919050565b80356001600160a01b038116811461257c57600080fd5b919050565b6000806040838503121561259457600080fd5b61259d83612565565b946020939093013593505050565b6000806000606084860312156125c057600080fd5b6125c984612565565b92506125d760208501612565565b9150604084013590509250925092565b6020808252825182820181905260009190848201906040850190845b8181101561261f57835183529284019291840191600101612603565b50909695505050505050565b6000806040838503121561263e57600080fd5b50508035926020909101359150565b60006020828403121561265f57600080fd5b610dee82612565565b6000806040838503121561267b57600080fd5b61268483612565565b91506020830135801515811461269957600080fd5b809150509250929050565b634e487b7160e01b600052604160045260246000fd5b600080600080608085870312156126d057600080fd5b6126d985612565565b93506126e760208601612565565b925060408501359150606085013567ffffffffffffffff8082111561270b57600080fd5b818701915087601f83011261271f57600080fd5b813581811115612731576127316126a4565b604051601f8201601f19908116603f01168101908382118183101715612759576127596126a4565b816040528281528a602084870101111561277257600080fd5b82602086016020830137600060208483010152809550505050505092959194509250565b600080604083850312156127a957600080fd5b823563ffffffff811681146127bd57600080fd5b915060208301356001600160801b038116811461269957600080fd5b634e487b7160e01b600052602160045260246000fd5b602081016003831061281157634e487b7160e01b600052602160045260246000fd5b91905290565b6000806040838503121561282a57600080fd5b61283383612565565b915061284160208401612565565b90509250929050565b634e487b7160e01b600052601160045260246000fd5b600081600019048311821515161561287a5761287a61284a565b500290565b600082198211156128925761289261284a565b500190565b600181811c908216806128ab57607f821691505b6020821081036128cb57634e487b7160e01b600052602260045260246000fd5b50919050565b6000828210156128e3576128e361284a565b500390565b60208082526031908201527f4552433732313a207472616e736665722063616c6c6572206973206e6f74206f6040820152701ddb995c881b9bdc88185c1c1c9bdd9959607a1b606082015260800190565b634e487b7160e01b600052601260045260246000fd5b60008261295e5761295e612939565b500490565b6020808252818101527f4f776e61626c653a2063616c6c6572206973206e6f7420746865206f776e6572604082015260600190565b60208082526032908201527f4552433732313a207472616e7366657220746f206e6f6e20455243373231526560408201527131b2b4bb32b91034b6b83632b6b2b73a32b960711b606082015260800190565b600081516129fc8185602086016124e1565b9290920192915050565b7f3c73766720786d6c6e733d22687474703a2f2f7777772e77332e6f72672f323081527f30302f737667222076657273696f6e3d22312e31222077696474683d2235313260208201527f22206865696768743d22353132222076696577426f783d22302030203132382060408201526b18991c111f1e3a34ba36329f60a11b606082015260008351612a9f81606c8501602088016124e1565b671e17ba34ba36329f60c11b606c918401918201528351612ac78160748401602088016124e1565b651e17b9bb339f60d11b60749290910191820152607a01949350505050565b7f646174613a696d6167652f7376672b786d6c3b6261736536342c000000000000815260008251612b1e81601a8501602087016124e1565b91909101601a0192915050565b683d913730b6b2911d1160b91b81528251600090612b508160098501602088016124e1565b7f222c226465736372697074696f6e223a22526566657272696e6720746f204f6e6009918401918201527f204b617761726127732074656c656772616d207365726965732c20746865207060298201527f6c61696e7465787420276920616d207374696c6c20616c697665272c2031362060498201527f49534f2d383835392d3120636861726163746572732c20697320656e6372797060698201527f74656420696e746f2061203132382d626974206369706865727465787420776960898201527f7468207468652044455320616c676f726974686d20696e20746865204543422060a98201527f6d6f64652e20546869732063697068657274657874206973207468656e20646960c98201527f766964656420757020696e746f20313620756e697473206f6620382d6269742060e98201527f76616c75652e204561636820756e6974206973207573656420746f20646572696101098201527f76652074686520736861646573206f6620313620737175617265732c207768696101298201527f636820617265206c617965726564206f6e20746f70206f662065616368206f746101498201527f68657220696e207468652073696d696c6172206d616e6e6572207365656e20696101698201527f6e206120736572696573206f66207061696e74696e67732027486f6d616765206101898201527f746f207468652053717561726527206279204a6f73656620416c626572732e206101a98201527f546865206c6566746d6f737420382d6269742076616c756520636f72726573706101c98201527f6f6e647320746f20746865207368616465206f6620746865206f757465726d6f6101e98201527f7374207371756172652c207768696c65207468652072696768746d6f737420766102098201527f616c756520636f72726573706f6e647320746f20746865207368616465206f666102298201527f2074686520696e6e65726d6f7374207371756172652e204561636820746f6b656102498201527f6e206973207469746c65642077697468206120555443206461746520626574776102698201527f65656e20323032302d30312d303120616e64207468652063757272656e7420626102898201527f6c6f636b27732074696d657374616d70206461746520696e207468652049534f6102a98201527f2d3836303120666f726d61742028595959594d4d4444292e20546865736520386102c98201527f2049534f2d383835392d31206368617261637465727320666f726d20612036346102e98201527f2d626974206b657920666f72207468652044455320616c676f726974686d2e2261030982015269161134b6b0b3b2911d1160b11b610329820152612f4e612f406103338301866129ea565b61227d60f01b815260020190565b95945050505050565b7f646174613a6170706c69636174696f6e2f6a736f6e3b6261736536342c000000815260008251612f8f81601d8501602087016124e1565b91909101601d0192915050565b60008083128015600160ff1b850184121615612fba57612fba61284a565b6001600160ff1b0384018313811615612fd557612fd561284a565b50500390565b600082612fea57612fea612939565b600160ff1b8214600019841416156130045761300461284a565b500590565b600080821280156001600160ff1b038490038513161561302b5761302b61284a565b600160ff1b83900384128116156130445761304461284a565b50500190565b60006001600160ff1b03818413828413808216868404861116156130705761307061284a565b600160ff1b600087128281168783058912161561308f5761308f61284a565b600087129250878205871284841616156130ab576130ab61284a565b878505871281841616156130c1576130c161284a565b505050929093029392505050565b6001600160a01b03858116825284166020820152604081018390526080606082018190526000906131029083018461250d565b9695505050505050565b60006020828403121561311e57600080fd5b8151610dee816124ae565b600360fc1b8152600082516131458160018501602087016124e1565b9190910160010192915050565b69646573496d616765732360b01b81526000845161317781600a8501602089016124e1565b84519083019061318e81600a8401602089016124e1565b84519101906131a481600a8401602088016124e1565b01600a0195945050505050565b600060ff821660ff84168160ff04811182151516156131d2576131d261284a565b029392505050565b600060ff821660ff84168060ff038211156131f7576131f761284a565b019392505050565b600060ff821660ff8416808210156132195761321961284a565b90039392505050565b681e3932b1ba103c1e9160b91b81528651600090613247816009850160208c016124e1565b6411103c9e9160d91b600991840191820152875161326c81600e840160208c016124e1565b6811103bb4b23a341e9160b91b600e92909101918201528651613296816017840160208b016124e1565b6911103432b4b3b43a1e9160b11b6017929091019182015285516132c1816021840160208a016124e1565b61011160f51b6021929091019182015284516132e48160238401602089016124e1565b61331261330c6023838501016f1039ba3937b5b29e913737b73291179f60811b815260100190565b866129ea565b9a9950505050505050505050565b600060ff821660ff81036133365761333661284a565b60010192915050565b634e487b7160e01b600052603260045260246000fd5b6000600182016133675761336761284a565b5060010190565b634e487b7160e01b600052603160045260246000fd5b60008261339357613393612939565b500690565b6666696c6c3d222360c81b815260006007885160206133bc82848701838e016124e1565b8951918501916133d181858501848e016124e1565b89519201916133e581858501848d016124e1565b88519201916133f981858501848c016124e1565b875192019161340d81858501848b016124e1565b865192019161342181858501848a016124e1565b601160f91b920192830191909152506008019897505050505050505056fe4142434445464748494a4b4c4d4e4f505152535455565758595a6162636465666768696a6b6c6d6e6f707172737475767778797a303132333435363738392b2fa26469706673582212202100e27394013f24e737b80dee7926caf2a503a58bcd0feb3026ba1ab0164b7664736f6c634300080d0033",
  "linkReferences": {},
  "deployedLinkReferences": {}
}