{
  "_format": "hh-sol-artifact-1",
  "contractName": "DesImages",
  "sourceName": "contracts/DesImages.sol",
  "abi": [
    {
      "inputs": [],
      "stateMutability": "nonpayable",
      "type": "constructor"
    },
    {
      "inputs": [],
      "name": "DesImages__CreatorTransferFail",
      "type": "error"
    },
    {
      "inputs": [],
      "name": "DesImages__FutureDate",
      "type": "error"
    },
    {
      "inputs": [],
      "name": "DesImages__InvalidDate",
      "type": "error"
    },
    {
      "inputs": [],
      "name": "DesImages__NotEnouthETHSent",
      "type": "error"
    },
    {
      "inputs": [],
      "name": "DesImages__OwnerTransferFail",
      "type": "error"
    },
    {
      "inputs": [],
      "name": "DesImages__TokenNotForBurn",
      "type": "error"
    },
    {
      "inputs": [],
      "name": "DesImages__TokenNotForSale",
      "type": "error"
    },
    {
      "anonymous": false,
      "inputs": [
        {
          "indexed": true,
          "internalType": "address",
          "name": "owner",
          "type": "address"
        },
        {
          "indexed": true,
          "internalType": "address",
          "name": "approved",
          "type": "address"
        },
        {
          "indexed": true,
          "internalType": "uint256",
          "name": "tokenId",
          "type": "uint256"
        }
      ],
      "name": "Approval",
      "type": "event"
    },
    {
      "anonymous": false,
      "inputs": [
        {
          "indexed": true,
          "internalType": "address",
          "name": "owner",
          "type": "address"
        },
        {
          "indexed": true,
          "internalType": "address",
          "name": "operator",
          "type": "address"
        },
        {
          "indexed": false,
          "internalType": "bool",
          "name": "approved",
          "type": "bool"
        }
      ],
      "name": "ApprovalForAll",
      "type": "event"
    },
    {
      "anonymous": false,
      "inputs": [
        {
          "indexed": true,
          "internalType": "address",
          "name": "from",
          "type": "address"
        },
        {
          "indexed": true,
          "internalType": "uint256",
          "name": "tokenId",
          "type": "uint256"
        },
        {
          "indexed": false,
          "internalType": "uint256",
          "name": "burnReward",
          "type": "uint256"
        },
        {
          "indexed": false,
          "internalType": "uint256",
          "name": "totalSupply",
          "type": "uint256"
        }
      ],
      "name": "Burned",
      "type": "event"
    },
    {
      "anonymous": false,
      "inputs": [
        {
          "indexed": true,
          "internalType": "address",
          "name": "to",
          "type": "address"
        },
        {
          "indexed": true,
          "internalType": "uint256",
          "name": "tokenId",
          "type": "uint256"
        },
        {
          "indexed": false,
          "internalType": "uint256",
          "name": "mintPrice",
          "type": "uint256"
        },
        {
          "indexed": false,
          "internalType": "uint256",
          "name": "totalSupply",
          "type": "uint256"
        },
        {
          "indexed": false,
          "internalType": "uint256",
          "name": "totalEverMinted",
          "type": "uint256"
        }
      ],
      "name": "Minted",
      "type": "event"
    },
    {
      "anonymous": false,
      "inputs": [
        {
          "indexed": true,
          "internalType": "address",
          "name": "previousOwner",
          "type": "address"
        },
        {
          "indexed": true,
          "internalType": "address",
          "name": "newOwner",
          "type": "address"
        }
      ],
      "name": "OwnershipTransferred",
      "type": "event"
    },
    {
      "anonymous": false,
      "inputs": [
        {
          "indexed": true,
          "internalType": "address",
          "name": "from",
          "type": "address"
        },
        {
          "indexed": true,
          "internalType": "address",
          "name": "to",
          "type": "address"
        },
        {
          "indexed": true,
          "internalType": "uint256",
          "name": "tokenId",
          "type": "uint256"
        }
      ],
      "name": "Transfer",
      "type": "event"
    },
    {
      "inputs": [
        {
          "internalType": "address",
          "name": "to",
          "type": "address"
        },
        {
          "internalType": "uint256",
          "name": "tokenId",
          "type": "uint256"
        }
      ],
      "name": "approve",
      "outputs": [],
      "stateMutability": "nonpayable",
      "type": "function"
    },
    {
      "inputs": [
        {
          "internalType": "address",
          "name": "owner",
          "type": "address"
        }
      ],
      "name": "balanceOf",
      "outputs": [
        {
          "internalType": "uint256",
          "name": "",
          "type": "uint256"
        }
      ],
      "stateMutability": "view",
      "type": "function"
    },
    {
      "inputs": [
        {
          "internalType": "uint256",
          "name": "tokenId",
          "type": "uint256"
        }
      ],
      "name": "burn",
      "outputs": [],
      "stateMutability": "nonpayable",
      "type": "function"
    },
    {
      "inputs": [],
      "name": "currentBurnReward",
      "outputs": [
        {
          "internalType": "uint256",
          "name": "",
          "type": "uint256"
        }
      ],
      "stateMutability": "view",
      "type": "function"
    },
    {
      "inputs": [],
      "name": "currentMintPrice",
      "outputs": [
        {
          "internalType": "uint256",
          "name": "",
          "type": "uint256"
        }
      ],
      "stateMutability": "view",
      "type": "function"
    },
    {
      "inputs": [
        {
          "internalType": "uint256",
          "name": "tokenId",
          "type": "uint256"
        }
      ],
      "name": "getApproved",
      "outputs": [
        {
          "internalType": "address",
          "name": "",
          "type": "address"
        }
      ],
      "stateMutability": "view",
      "type": "function"
    },
    {
      "inputs": [],
      "name": "getTokenIds",
      "outputs": [
        {
          "internalType": "uint256[]",
          "name": "",
          "type": "uint256[]"
        }
      ],
      "stateMutability": "view",
      "type": "function"
    },
    {
      "inputs": [
        {
          "internalType": "uint32",
          "name": "date",
          "type": "uint32"
        },
        {
          "internalType": "uint128",
          "name": "ciphertext",
          "type": "uint128"
        }
      ],
      "name": "getTokenStatus",
      "outputs": [
        {
          "internalType": "enum DesImages.Status",
          "name": "",
          "type": "uint8"
        }
      ],
      "stateMutability": "view",
      "type": "function"
    },
    {
      "inputs": [
        {
          "internalType": "address",
          "name": "owner",
          "type": "address"
        },
        {
          "internalType": "address",
          "name": "operator",
          "type": "address"
        }
      ],
      "name": "isApprovedForAll",
      "outputs": [
        {
          "internalType": "bool",
          "name": "",
          "type": "bool"
        }
      ],
      "stateMutability": "view",
      "type": "function"
    },
    {
      "inputs": [
        {
          "internalType": "address",
          "name": "recipient",
          "type": "address"
        },
        {
          "internalType": "uint32",
          "name": "date",
          "type": "uint32"
        },
        {
          "internalType": "uint128",
          "name": "ciphertext",
          "type": "uint128"
        }
      ],
      "name": "mint",
      "outputs": [
        {
          "internalType": "uint256",
          "name": "",
          "type": "uint256"
        }
      ],
      "stateMutability": "payable",
      "type": "function"
    },
    {
      "inputs": [],
      "name": "name",
      "outputs": [
        {
          "internalType": "string",
          "name": "",
          "type": "string"
        }
      ],
      "stateMutability": "view",
      "type": "function"
    },
    {
      "inputs": [],
      "name": "owner",
      "outputs": [
        {
          "internalType": "address",
          "name": "",
          "type": "address"
        }
      ],
      "stateMutability": "view",
      "type": "function"
    },
    {
      "inputs": [
        {
          "internalType": "uint256",
          "name": "tokenId",
          "type": "uint256"
        }
      ],
      "name": "ownerOf",
      "outputs": [
        {
          "internalType": "address",
          "name": "",
          "type": "address"
        }
      ],
      "stateMutability": "view",
      "type": "function"
    },
    {
      "inputs": [],
      "name": "pause",
      "outputs": [],
      "stateMutability": "nonpayable",
      "type": "function"
    },
    {
      "inputs": [],
      "name": "paused",
      "outputs": [
        {
          "internalType": "bool",
          "name": "",
          "type": "bool"
        }
      ],
      "stateMutability": "view",
      "type": "function"
    },
    {
      "inputs": [],
      "name": "renounceOwnership",
      "outputs": [],
      "stateMutability": "nonpayable",
      "type": "function"
    },
    {
      "inputs": [
        {
          "internalType": "uint256",
          "name": "_tokenId",
          "type": "uint256"
        },
        {
          "internalType": "uint256",
          "name": "_salePrice",
          "type": "uint256"
        }
      ],
      "name": "royaltyInfo",
      "outputs": [
        {
          "internalType": "address",
          "name": "",
          "type": "address"
        },
        {
          "internalType": "uint256",
          "name": "",
          "type": "uint256"
        }
      ],
      "stateMutability": "view",
      "type": "function"
    },
    {
      "inputs": [
        {
          "internalType": "address",
          "name": "from",
          "type": "address"
        },
        {
          "internalType": "address",
          "name": "to",
          "type": "address"
        },
        {
          "internalType": "uint256",
          "name": "tokenId",
          "type": "uint256"
        }
      ],
      "name": "safeTransferFrom",
      "outputs": [],
      "stateMutability": "nonpayable",
      "type": "function"
    },
    {
      "inputs": [
        {
          "internalType": "address",
          "name": "from",
          "type": "address"
        },
        {
          "internalType": "address",
          "name": "to",
          "type": "address"
        },
        {
          "internalType": "uint256",
          "name": "tokenId",
          "type": "uint256"
        },
        {
          "internalType": "bytes",
          "name": "_data",
          "type": "bytes"
        }
      ],
      "name": "safeTransferFrom",
      "outputs": [],
      "stateMutability": "nonpayable",
      "type": "function"
    },
    {
      "inputs": [
        {
          "internalType": "address",
          "name": "operator",
          "type": "address"
        },
        {
          "internalType": "bool",
          "name": "approved",
          "type": "bool"
        }
      ],
      "name": "setApprovalForAll",
      "outputs": [],
      "stateMutability": "nonpayable",
      "type": "function"
    },
    {
      "inputs": [
        {
          "internalType": "bytes4",
          "name": "interfaceId",
          "type": "bytes4"
        }
      ],
      "name": "supportsInterface",
      "outputs": [
        {
          "internalType": "bool",
          "name": "",
          "type": "bool"
        }
      ],
      "stateMutability": "view",
      "type": "function"
    },
    {
      "inputs": [],
      "name": "symbol",
      "outputs": [
        {
          "internalType": "string",
          "name": "",
          "type": "string"
        }
      ],
      "stateMutability": "view",
      "type": "function"
    },
    {
      "inputs": [
        {
          "internalType": "uint256",
          "name": "tokenId",
          "type": "uint256"
        }
      ],
      "name": "tokenURI",
      "outputs": [
        {
          "internalType": "string",
          "name": "",
          "type": "string"
        }
      ],
      "stateMutability": "view",
      "type": "function"
    },
    {
      "inputs": [],
      "name": "totalEverMinted",
      "outputs": [
        {
          "internalType": "uint256",
          "name": "",
          "type": "uint256"
        }
      ],
      "stateMutability": "view",
      "type": "function"
    },
    {
      "inputs": [],
      "name": "totalSupply",
      "outputs": [
        {
          "internalType": "uint256",
          "name": "",
          "type": "uint256"
        }
      ],
      "stateMutability": "view",
      "type": "function"
    },
    {
      "inputs": [
        {
          "internalType": "address",
          "name": "from",
          "type": "address"
        },
        {
          "internalType": "address",
          "name": "to",
          "type": "address"
        },
        {
          "internalType": "uint256",
          "name": "tokenId",
          "type": "uint256"
        }
      ],
      "name": "transferFrom",
      "outputs": [],
      "stateMutability": "nonpayable",
      "type": "function"
    },
    {
      "inputs": [
        {
          "internalType": "address",
          "name": "newOwner",
          "type": "address"
        }
      ],
      "name": "transferOwnership",
      "outputs": [],
      "stateMutability": "nonpayable",
      "type": "function"
    },
    {
      "inputs": [],
      "name": "unpause",
      "outputs": [],
      "stateMutability": "nonpayable",
      "type": "function"
    }
  ],
  "bytecode": "0x60806040526000600d819055600e55600f805460ff191690553480156200002557600080fd5b506040805180820182526009815268646573496d6167657360b81b602080830191825283518085019094526007845266444553494d475360c81b90840152815191929162000076916000916200021d565b5080516200008c9060019060208401906200021d565b505050620000a9620000a3620000c260201b60201c565b620000c6565b6001600955620000bc336101f462000118565b620002ff565b3390565b600880546001600160a01b038381166001600160a01b0319831681179093556040519116919082907f8be0079c531659141344cd1fd0a4f28419497f9722a3daafe3b4186f6b6457e090600090a35050565b6127106001600160601b03821611156200018c5760405162461bcd60e51b815260206004820152602a60248201527f455243323938313a20726f79616c7479206665652077696c6c206578636565646044820152692073616c65507269636560b01b60648201526084015b60405180910390fd5b6001600160a01b038216620001e45760405162461bcd60e51b815260206004820152601960248201527f455243323938313a20696e76616c696420726563656976657200000000000000604482015260640162000183565b604080518082019091526001600160a01b039092168083526001600160601b039091166020909201829052600160a01b90910217600655565b8280546200022b90620002c3565b90600052602060002090601f0160209004810192826200024f57600085556200029a565b82601f106200026a57805160ff19168380011785556200029a565b828001600101855582156200029a579182015b828111156200029a5782518255916020019190600101906200027d565b50620002a8929150620002ac565b5090565b5b80821115620002a85760008155600101620002ad565b600181811c90821680620002d857607f821691505b602082108103620002f957634e487b7160e01b600052602260045260246000fd5b50919050565b6134da806200030f6000396000f3fe6080604052600436106101b75760003560e01c80636352211e116100ec57806395d89b411161008a578063c87b56dd11610064578063c87b56dd146104b1578063cb5497f0146104d1578063e985e9c5146104fe578063f2fde38b1461054757600080fd5b806395d89b411461045c578063a22cb46514610471578063b88d4fde1461049157600080fd5b8063715018a6116100c6578063715018a6146103fe5780638456cb59146104135780638da5cb5b14610428578063924808b41461044657600080fd5b80636352211e1461039c57806367f718a9146103bc57806370a08231146103de57600080fd5b806323b872dd116101595780633f4ba83a116101335780633f4ba83a1461032d57806342842e0e1461034257806342966c68146103625780635c975abb1461038257600080fd5b806323b872dd146102bb5780632a55205a146102db5780632cb58bb71461031a57600080fd5b8063081812fc11610195578063081812fc14610236578063095ea7b31461026e57806318160ddd146102905780631a35c9d0146102a657600080fd5b806301ffc9a7146101bc5780630561942a146101f157806306fdde0314610214575b600080fd5b3480156101c857600080fd5b506101dc6101d7366004612494565b610567565b60405190151581526020015b60405180910390f35b3480156101fd57600080fd5b50610206610578565b6040519081526020016101e8565b34801561022057600080fd5b506102296105a6565b6040516101e89190612509565b34801561024257600080fd5b5061025661025136600461251c565b610638565b6040516001600160a01b0390911681526020016101e8565b34801561027a57600080fd5b5061028e610289366004612551565b6106d2565b005b34801561029c57600080fd5b50610206600d5481565b3480156102b257600080fd5b506102066107e7565b3480156102c757600080fd5b5061028e6102d636600461257b565b61080d565b3480156102e757600080fd5b506102fb6102f63660046125b7565b61083e565b604080516001600160a01b0390931683526020830191909152016101e8565b610206610328366004612604565b6108ea565b34801561033957600080fd5b5061028e610cb8565b34801561034e57600080fd5b5061028e61035d36600461257b565b610cfd565b34801561036e57600080fd5b5061028e61037d36600461251c565b610d18565b34801561038e57600080fd5b50600f546101dc9060ff1681565b3480156103a857600080fd5b506102566103b736600461251c565b610ea3565b3480156103c857600080fd5b506103d1610f1a565b6040516101e89190612647565b3480156103ea57600080fd5b506102066103f936600461268b565b610f7a565b34801561040a57600080fd5b5061028e611001565b34801561041f57600080fd5b5061028e611037565b34801561043457600080fd5b506008546001600160a01b0316610256565b34801561045257600080fd5b50610206600e5481565b34801561046857600080fd5b50610229611080565b34801561047d57600080fd5b5061028e61048c3660046126a6565b61108f565b34801561049d57600080fd5b5061028e6104ac3660046126f8565b61109e565b3480156104bd57600080fd5b506102296104cc36600461251c565b6110d6565b3480156104dd57600080fd5b506104f16104ec3660046127d4565b611189565b6040516101e8919061281d565b34801561050a57600080fd5b506101dc610519366004612845565b6001600160a01b03918216600090815260056020908152604080832093909416825291909152205460ff1690565b34801561055357600080fd5b5061028e61056236600461268b565b6111b0565b60006105728261124b565b92915050565b600d5460009061058f66038d7ea4c6800082612885565b6105a090662386f26fc100006128a4565b91505090565b6060600080546105b5906128bc565b80601f01602080910402602001604051908101604052809291908181526020018280546105e1906128bc565b801561062e5780601f106106035761010080835404028352916020019161062e565b820191906000526020600020905b81548152906001019060200180831161061157829003601f168201915b5050505050905090565b6000818152600260205260408120546001600160a01b03166106b65760405162461bcd60e51b815260206004820152602c60248201527f4552433732313a20617070726f76656420717565727920666f72206e6f6e657860448201526b34b9ba32b73a103a37b5b2b760a11b60648201526084015b60405180910390fd5b506000908152600460205260409020546001600160a01b031690565b60006106dd82610ea3565b9050806001600160a01b0316836001600160a01b03160361074a5760405162461bcd60e51b815260206004820152602160248201527f4552433732313a20617070726f76616c20746f2063757272656e74206f776e656044820152603960f91b60648201526084016106ad565b336001600160a01b038216148061076657506107668133610519565b6107d85760405162461bcd60e51b815260206004820152603860248201527f4552433732313a20617070726f76652063616c6c6572206973206e6f74206f7760448201527f6e6572206e6f7220617070726f76656420666f7220616c6c000000000000000060648201526084016106ad565b6107e28383611270565b505050565b6000806107f2610578565b90506105a061080866038d7ea4c68000836128f6565b6112de565b61081733826112f9565b6108335760405162461bcd60e51b81526004016106ad9061290d565b6107e28383836113f0565b60008281526007602090815260408083208151808301909252546001600160a01b038116808352600160a01b9091046001600160601b03169282019290925282916108b35750604080518082019091526006546001600160a01b0381168252600160a01b90046001600160601b031660208201525b6020810151600090612710906108d2906001600160601b031687612885565b6108dc9190612974565b915196919550909350505050565b600060026009540361093e5760405162461bcd60e51b815260206004820152601f60248201527f5265656e7472616e637947756172643a207265656e7472616e742063616c6c0060448201526064016106ad565b6002600955600f5460ff161561095357600080fd5b8260ff8116600f600883901c1661ffff600c84901c166107e481108061097e575061270f8161ffff16115b8061099b57506109998161ffff168360ff168560ff16611597565b155b156109b957604051634cfd191160e11b815260040160405180910390fd5b426109cf8261ffff168460ff168660ff166115e7565b11156109ee5760405163157b6c4f60e31b815260040160405180910390fd5b60006109f8610578565b905080341015610a1b576040516308b0ffa560e21b815260040160405180910390fd5b6000610a278989611733565b9050600080828152600c602052604090205460ff166002811115610a4d57610a4d612807565b14610a6b576040516319558d1960e11b815260040160405180910390fd5b610a758a82611787565b604080516060810190915280600181526001600160801b038a1660208083019190915263ffffffff8c166040928301526000848152600c9091522081518154829060ff19166001836002811115610ace57610ace612807565b02179055506020820151815460409093015163ffffffff16600160881b0263ffffffff60881b196001600160801b039092166101000291909116610100600160a81b031990931692909217919091179055600e805460019190600090610b359084906128a4565b925050819055506001600d6000828254610b4f91906128a4565b90915550506008546000906001600160a01b0316610b6c846112de565b610b7690856128f6565b604051600081818185875af1925050503d8060008114610bb2576040519150601f19603f3d011682016040523d82523d6000602084013e610bb7565b606091505b5050905080610bd95760405163679ac27160e01b815260040160405180910390fd5b82341115610c5357600033610bee85346128f6565b604051600081818185875af1925050503d8060008114610c2a576040519150601f19603f3d011682016040523d82523d6000602084013e610c2f565b606091505b5050905080610c5157604051637d8e64d960e01b815260040160405180910390fd5b505b600d54600e5460408051868152602081019390935282015282906001600160a01b038d16907f19f5f791ee407773427bf7b970bbbc3375065c32edd1ab142e23a84f94b0719b9060600160405180910390a35060016009559998505050505050505050565b6008546001600160a01b03163314610ce25760405162461bcd60e51b81526004016106ad90612988565b600f5460ff16610cf157600080fd5b600f805460ff19169055565b6107e28383836040518060200160405280600081525061109e565b600260095403610d6a5760405162461bcd60e51b815260206004820152601f60248201527f5265656e7472616e637947756172643a207265656e7472616e742063616c6c0060448201526064016106ad565b60026009556000818152600c602052604090206001815460ff166002811115610d9557610d95612807565b14610db357604051632ea56e1160e21b815260040160405180910390fd5b6000610dbd6107e7565b9050610dc8836117a1565b815460ff19166002178255600d805460019190600090610de99084906128f6565b9091555050604051600090339083908381818185875af1925050503d8060008114610e30576040519150601f19603f3d011682016040523d82523d6000602084013e610e35565b606091505b5050905080610e5757604051637d8e64d960e01b815260040160405180910390fd5b600d54604080518481526020810192909252859133917f4c60206a5c1de41f3376d1d60f0949d96cb682033c90b1c2d9d9a62d4c4120c0910160405180910390a3505060016009555050565b6000818152600260205260408120546001600160a01b0316806105725760405162461bcd60e51b815260206004820152602960248201527f4552433732313a206f776e657220717565727920666f72206e6f6e657869737460448201526832b73a103a37b5b2b760b91b60648201526084016106ad565b336000908152600b602090815260409182902080548351818402810184019094528084526060939283018282801561062e57602002820191906000526020600020905b815481526020019060010190808311610f5d575050505050905090565b60006001600160a01b038216610fe55760405162461bcd60e51b815260206004820152602a60248201527f4552433732313a2062616c616e636520717565727920666f7220746865207a65604482015269726f206164647265737360b01b60648201526084016106ad565b506001600160a01b031660009081526003602052604090205490565b6008546001600160a01b0316331461102b5760405162461bcd60e51b81526004016106ad90612988565b6110356000611848565b565b6008546001600160a01b031633146110615760405162461bcd60e51b81526004016106ad90612988565b600f5460ff161561107157600080fd5b600f805460ff19166001179055565b6060600180546105b5906128bc565b61109a33838361189a565b5050565b6110a833836112f9565b6110c45760405162461bcd60e51b81526004016106ad9061290d565b6110d084848484611968565b50505050565b6000818152600260205260409020546060906001600160a01b031661114d5760405162461bcd60e51b815260206004820152602760248201527f4552433732313a2055524920717565727920666f72206e6f6e6578697374656e6044820152663a103a37b5b2b760c91b60648201526084016106ad565b6000828152600c60205260409020805461118290600160881b810463ffffffff169061010090046001600160801b031661199b565b9392505050565b6000806111968484611733565b6000908152600c602052604090205460ff16949350505050565b6008546001600160a01b031633146111da5760405162461bcd60e51b81526004016106ad90612988565b6001600160a01b03811661123f5760405162461bcd60e51b815260206004820152602660248201527f4f776e61626c653a206e6577206f776e657220697320746865207a65726f206160448201526564647265737360d01b60648201526084016106ad565b61124881611848565b50565b60006001600160e01b0319821663152a902d60e11b1480610572575061057282611a36565b600081815260046020526040902080546001600160a01b0319166001600160a01b03841690811790915581906112a582610ea3565b6001600160a01b03167f8c5be1e5ebec7d5bd14f71427d1e84f3dd0314c0f7b2291e5b200ac8c7c3b92560405160405180910390a45050565b60006127106112ef6126de84612885565b6105729190612974565b6000818152600260205260408120546001600160a01b03166113725760405162461bcd60e51b815260206004820152602c60248201527f4552433732313a206f70657261746f7220717565727920666f72206e6f6e657860448201526b34b9ba32b73a103a37b5b2b760a11b60648201526084016106ad565b600061137d83610ea3565b9050806001600160a01b0316846001600160a01b031614806113b85750836001600160a01b03166113ad84610638565b6001600160a01b0316145b806113e857506001600160a01b0380821660009081526005602090815260408083209388168352929052205460ff165b949350505050565b826001600160a01b031661140382610ea3565b6001600160a01b0316146114675760405162461bcd60e51b815260206004820152602560248201527f4552433732313a207472616e736665722066726f6d20696e636f72726563742060448201526437bbb732b960d91b60648201526084016106ad565b6001600160a01b0382166114c95760405162461bcd60e51b8152602060048201526024808201527f4552433732313a207472616e7366657220746f20746865207a65726f206164646044820152637265737360e01b60648201526084016106ad565b6114d4838383611a86565b6114df600082611270565b6001600160a01b03831660009081526003602052604081208054600192906115089084906128f6565b90915550506001600160a01b03821660009081526003602052604081208054600192906115369084906128a4565b909155505060008181526002602052604080822080546001600160a01b0319166001600160a01b0386811691821790925591518493918716917fddf252ad1be2c89b69c2b068fc378daa952ba7f163c4a11628f55a4df523b3ef91a4505050565b600080831180156115a95750600c8311155b156115dd5760006115ba8585611ae7565b90506000831180156115cc5750808311155b156115db576001915050611182565b505b5060009392505050565b60006107b28410156115f857600080fd5b838383600062253d8c60046064600c611612600e886129bd565b61161c91906129fc565b61162888611324612a2a565b6116329190612a2a565b61163c91906129fc565b611647906003612a6b565b61165191906129fc565b600c8061165f600e886129bd565b61166991906129fc565b61167490600c612a6b565b61167f6002886129bd565b61168991906129bd565b6116959061016f612a6b565b61169f91906129fc565b6004600c6116ae600e896129bd565b6116b891906129fc565b6116c4896112c0612a2a565b6116ce9190612a2a565b6116da906105b5612a6b565b6116e491906129fc565b6116f0617d4b876129bd565b6116fa9190612a2a565b6117049190612a2a565b61170e91906129bd565b61171891906129bd565b90506117276201518082612885565b98975050505050505050565b6040805160e09390931b6001600160e01b03191660208085019190915260809290921b6fffffffffffffffffffffffffffffffff191660248401528051601481850301815260349093019052815191012090565b61109a828260405180602001604052806000815250611b6d565b60006117ac82610ea3565b90506117ba81600084611a86565b6117c5600083611270565b6001600160a01b03811660009081526003602052604081208054600192906117ee9084906128f6565b909155505060008281526002602052604080822080546001600160a01b0319169055518391906001600160a01b038416907fddf252ad1be2c89b69c2b068fc378daa952ba7f163c4a11628f55a4df523b3ef908390a45050565b600880546001600160a01b038381166001600160a01b0319831681179093556040519116919082907f8be0079c531659141344cd1fd0a4f28419497f9722a3daafe3b4186f6b6457e090600090a35050565b816001600160a01b0316836001600160a01b0316036118fb5760405162461bcd60e51b815260206004820152601960248201527f4552433732313a20617070726f766520746f2063616c6c65720000000000000060448201526064016106ad565b6001600160a01b03838116600081815260056020908152604080832094871680845294825291829020805460ff191686151590811790915591519182527f17307eab39ab6107e8899845ad3d59bd9653f200f220920489ca2b5937696c31910160405180910390a3505050565b6119738484846113f0565b61197f84848484611ba0565b6110d05760405162461bcd60e51b81526004016106ad90612af0565b606060006119a884611ca1565b9050611a0e816119e0836119bb87611d7c565b6040516020016119cc929190612b5e565b604051602081830303815290604052611e31565b6040516020016119f09190612c3e565b60408051601f19818403018152908290526119cc9291602001612c83565b604051602001611a1e91906130af565b60405160208183030381529060405291505092915050565b60006001600160e01b031982166380ac58cd60e01b1480611a6757506001600160e01b03198216635b5e139f60e01b145b8061057257506301ffc9a760e01b6001600160e01b0319831614610572565b6001600160a01b038316611a9e576107e28282611f84565b6001600160a01b038216611ab8576107e283826001611fbd565b816001600160a01b0316836001600160a01b0316146107e257611add83826000611fbd565b6107e28282611f84565b60008160011480611af85750816003145b80611b035750816005145b80611b0e5750816007145b80611b195750816008145b80611b24575081600a145b80611b2f575081600c145b15611b3c5750601f610572565b81600214611b4c5750601e610572565b611b55836120bc565b611b6057601c611b63565b601d5b60ff169050610572565b611b7783836120f8565b611b846000848484611ba0565b6107e25760405162461bcd60e51b81526004016106ad90612af0565b60006001600160a01b0384163b15611c9657604051630a85bd0160e11b81526001600160a01b0385169063150b7a0290611be49033908990889088906004016130f4565b6020604051808303816000875af1925050508015611c1f575060408051601f3d908101601f19168201909252611c1c91810190613131565b60015b611c7c573d808015611c4d576040519150601f19603f3d011682016040523d82523d6000602084013e611c52565b606091505b508051600003611c745760405162461bcd60e51b81526004016106ad90612af0565b805181602001fd5b6001600160e01b031916630a85bd0160e11b1490506113e8565b506001949350505050565b606060ff8216600f600884901c1661ffff600c85901c16611cc181612246565b600a8360ff1610611cdd57611cd88360ff16612246565b611d09565b611ce98360ff16612246565b604051602001611cf9919061314e565b6040516020818303038152906040525b600a8560ff1610611d2557611d208560ff16612246565b611d51565b611d318560ff16612246565b604051602001611d41919061314e565b6040516020818303038152906040525b604051602001611d6393929190613177565b6040516020818303038152906040529350505050919050565b60608060005b60108160ff161015611e2a576000611db1611d9e8360086131d6565b611da99060086131ff565b60ff16612246565b9050611dcc611dc18360046131d6565b611da990603c613224565b611de5611dda8460066131d6565b611da990605a613224565b8283611df1868a612347565b87604051602001611e0796959493929190613247565b60405160208183030381529060405292505080611e2390613345565b9050611d82565b5092915050565b60608151600003611e5057505060408051602081019091526000815290565b60006040518060600160405280604081526020016134656040913990506000600384516002611e7f91906128a4565b611e899190612974565b611e94906004612885565b67ffffffffffffffff811115611eac57611eac6126e2565b6040519080825280601f01601f191660200182016040528015611ed6576020820181803683370190505b509050600182016020820185865187015b80821015611f42576003820191508151603f8160121c168501518453600184019350603f81600c1c168501518453600184019350603f8160061c168501518453600184019350603f8116850151845350600183019250611ee7565b5050600386510660018114611f5e5760028114611f7157611f79565b603d6001830353603d6002830353611f79565b603d60018303535b509195945050505050565b6001600160a01b039091166000908152600b602090815260408083208054858552600a8452918420829055600182018155835291200155565b6001600160a01b0383166000908152600b602052604081208054909190611fe6906001906128f6565b6000858152600a602052604090205490915080821461207857805b82811015612076576000846120178360016128a4565b8154811061202757612027613364565b906000526020600020015490508085838154811061204757612047613364565b6000918252602080832090910192909255918252600a90526040902081905561206f8161337a565b9050612001565b505b8280548061208857612088613393565b6001900381819060005260206000200160009055905583156120b4576000858152600a60205260408120555b505050505050565b60006120c96004836133a9565b1580156120df57506120dc6064836133a9565b15155b8061057257506120f1610190836133a9565b1592915050565b6001600160a01b03821661214e5760405162461bcd60e51b815260206004820181905260248201527f4552433732313a206d696e7420746f20746865207a65726f206164647265737360448201526064016106ad565b6000818152600260205260409020546001600160a01b0316156121b35760405162461bcd60e51b815260206004820152601c60248201527f4552433732313a20746f6b656e20616c7265616479206d696e7465640000000060448201526064016106ad565b6121bf60008383611a86565b6001600160a01b03821660009081526003602052604081208054600192906121e89084906128a4565b909155505060008181526002602052604080822080546001600160a01b0319166001600160a01b03861690811790915590518392907fddf252ad1be2c89b69c2b068fc378daa952ba7f163c4a11628f55a4df523b3ef908290a45050565b60608160000361226d5750506040805180820190915260018152600360fc1b602082015290565b8160005b811561229757806122818161337a565b91506122909050600a83612974565b9150612271565b60008167ffffffffffffffff8111156122b2576122b26126e2565b6040519080825280601f01601f1916602001820160405280156122dc576020820181803683370190505b5090505b84156113e8576122f16001836128f6565b91506122fe600a866133a9565b6123099060306128a4565b60f81b81838151811061231e5761231e613364565b60200101906001600160f81b031916908160001a905350612340600a86612974565b94506122e0565b606060006123568460086131d6565b6040805180820190915260108082526f181899199a1a9b1b9c1cb0b131b232b360811b60208301529192506001600160801b03851660ff84161c9160009190600f84169081106123a8576123a8613364565b016020908101516040516001600160f81b03199091169181019190915260210160408051601f1981840301815282820190915260108083526f181899199a1a9b1b9c1cb0b131b232b360811b602084015290925060009190600f600486901c1690811061241757612417613364565b016020908101516040516001600160f81b0319909116918101919091526021016040516020818303038152906040529050808282848486604051602001612463969594939291906133bd565b60405160208183030381529060405294505050505092915050565b6001600160e01b03198116811461124857600080fd5b6000602082840312156124a657600080fd5b81356111828161247e565b60005b838110156124cc5781810151838201526020016124b4565b838111156110d05750506000910152565b600081518084526124f58160208601602086016124b1565b601f01601f19169290920160200192915050565b60208152600061118260208301846124dd565b60006020828403121561252e57600080fd5b5035919050565b80356001600160a01b038116811461254c57600080fd5b919050565b6000806040838503121561256457600080fd5b61256d83612535565b946020939093013593505050565b60008060006060848603121561259057600080fd5b61259984612535565b92506125a760208501612535565b9150604084013590509250925092565b600080604083850312156125ca57600080fd5b50508035926020909101359150565b803563ffffffff8116811461254c57600080fd5b80356001600160801b038116811461254c57600080fd5b60008060006060848603121561261957600080fd5b61262284612535565b9250612630602085016125d9565b915061263e604085016125ed565b90509250925092565b6020808252825182820181905260009190848201906040850190845b8181101561267f57835183529284019291840191600101612663565b50909695505050505050565b60006020828403121561269d57600080fd5b61118282612535565b600080604083850312156126b957600080fd5b6126c283612535565b9150602083013580151581146126d757600080fd5b809150509250929050565b634e487b7160e01b600052604160045260246000fd5b6000806000806080858703121561270e57600080fd5b61271785612535565b935061272560208601612535565b925060408501359150606085013567ffffffffffffffff8082111561274957600080fd5b818701915087601f83011261275d57600080fd5b81358181111561276f5761276f6126e2565b604051601f8201601f19908116603f01168101908382118183101715612797576127976126e2565b816040528281528a60208487010111156127b057600080fd5b82602086016020830137600060208483010152809550505050505092959194509250565b600080604083850312156127e757600080fd5b6127f0836125d9565b91506127fe602084016125ed565b90509250929050565b634e487b7160e01b600052602160045260246000fd5b602081016003831061283f57634e487b7160e01b600052602160045260246000fd5b91905290565b6000806040838503121561285857600080fd5b61286183612535565b91506127fe60208401612535565b634e487b7160e01b600052601160045260246000fd5b600081600019048311821515161561289f5761289f61286f565b500290565b600082198211156128b7576128b761286f565b500190565b600181811c908216806128d057607f821691505b6020821081036128f057634e487b7160e01b600052602260045260246000fd5b50919050565b6000828210156129085761290861286f565b500390565b60208082526031908201527f4552433732313a207472616e736665722063616c6c6572206973206e6f74206f6040820152701ddb995c881b9bdc88185c1c1c9bdd9959607a1b606082015260800190565b634e487b7160e01b600052601260045260246000fd5b6000826129835761298361295e565b500490565b6020808252818101527f4f776e61626c653a2063616c6c6572206973206e6f7420746865206f776e6572604082015260600190565b60008083128015600160ff1b8501841216156129db576129db61286f565b6001600160ff1b03840183138116156129f6576129f661286f565b50500390565b600082612a0b57612a0b61295e565b600160ff1b821460001984141615612a2557612a2561286f565b500590565b600080821280156001600160ff1b0384900385131615612a4c57612a4c61286f565b600160ff1b8390038412811615612a6557612a6561286f565b50500190565b60006001600160ff1b0381841382841380821686840486111615612a9157612a9161286f565b600160ff1b6000871282811687830589121615612ab057612ab061286f565b60008712925087820587128484161615612acc57612acc61286f565b87850587128184161615612ae257612ae261286f565b505050929093029392505050565b60208082526032908201527f4552433732313a207472616e7366657220746f206e6f6e20455243373231526560408201527131b2b4bb32b91034b6b83632b6b2b73a32b960711b606082015260800190565b60008151612b548185602086016124b1565b9290920192915050565b7f3c73766720786d6c6e733d22687474703a2f2f7777772e77332e6f72672f323081527f30302f737667222076657273696f6e3d22312e31222077696474683d2235313260208201527f22206865696768743d22353132222076696577426f783d22302030203132382060408201526b18991c111f1e3a34ba36329f60a11b606082015260008351612bf781606c8501602088016124b1565b671e17ba34ba36329f60c11b606c918401918201528351612c1f8160748401602088016124b1565b651e17b9bb339f60d11b60749290910191820152607a01949350505050565b7f646174613a696d6167652f7376672b786d6c3b6261736536342c000000000000815260008251612c7681601a8501602087016124b1565b91909101601a0192915050565b683d913730b6b2911d1160b91b81528251600090612ca88160098501602088016124b1565b7f222c226465736372697074696f6e223a22526566657272696e6720746f204f6e6009918401918201527f204b617761726127732074656c656772616d207365726965732c20746865207060298201527f6c61696e7465787420276920616d207374696c6c20616c697665272c2031362060498201527f49534f2d383835392d3120636861726163746572732c20697320656e6372797060698201527f74656420696e746f2061203132382d626974206369706865727465787420776960898201527f7468207468652044455320616c676f726974686d20696e20746865204543422060a98201527f6d6f64652e20546869732063697068657274657874206973207468656e20646960c98201527f766964656420757020696e746f20313620756e697473206f6620382d6269742060e98201527f76616c75652e204561636820756e6974206973207573656420746f20646572696101098201527f76652074686520736861646573206f6620313620737175617265732c207768696101298201527f636820617265206c617965726564206f6e20746f70206f662065616368206f746101498201527f68657220696e207468652073696d696c6172206d616e6e6572207365656e20696101698201527f6e206120736572696573206f66207061696e74696e67732027486f6d616765206101898201527f746f207468652053717561726527206279204a6f73656620416c626572732e206101a98201527f546865206c6566746d6f737420382d6269742076616c756520636f72726573706101c98201527f6f6e647320746f20746865207368616465206f6620746865206f757465726d6f6101e98201527f7374207371756172652c207768696c65207468652072696768746d6f737420766102098201527f616c756520636f72726573706f6e647320746f20746865207368616465206f666102298201527f2074686520696e6e65726d6f7374207371756172652e204561636820746f6b656102498201527f6e206973207469746c65642077697468206120555443206461746520626574776102698201527f65656e20323032302d30312d303120616e64207468652063757272656e7420626102898201527f6c6f636b27732074696d657374616d70206461746520696e207468652049534f6102a98201527f2d3836303120666f726d61742028595959594d4d4444292e20546865736520386102c98201527f2049534f2d383835392d31206368617261637465727320666f726d20612036346102e98201527f2d626974206b657920666f72207468652044455320616c676f726974686d2e2261030982015269161134b6b0b3b2911d1160b11b6103298201526130a6613098610333830186612b42565b61227d60f01b815260020190565b95945050505050565b7f646174613a6170706c69636174696f6e2f6a736f6e3b6261736536342c0000008152600082516130e781601d8501602087016124b1565b91909101601d0192915050565b6001600160a01b0385811682528416602082015260408101839052608060608201819052600090613127908301846124dd565b9695505050505050565b60006020828403121561314357600080fd5b81516111828161247e565b600360fc1b81526000825161316a8160018501602087016124b1565b9190910160010192915050565b69646573496d616765732360b01b81526000845161319c81600a8501602089016124b1565b8451908301906131b381600a8401602089016124b1565b84519101906131c981600a8401602088016124b1565b01600a0195945050505050565b600060ff821660ff84168160ff04811182151516156131f7576131f761286f565b029392505050565b600060ff821660ff84168060ff0382111561321c5761321c61286f565b019392505050565b600060ff821660ff84168082101561323e5761323e61286f565b90039392505050565b681e3932b1ba103c1e9160b91b8152865160009061326c816009850160208c016124b1565b6411103c9e9160d91b600991840191820152875161329181600e840160208c016124b1565b6811103bb4b23a341e9160b91b600e929091019182015286516132bb816017840160208b016124b1565b6911103432b4b3b43a1e9160b11b6017929091019182015285516132e6816021840160208a016124b1565b61011160f51b6021929091019182015284516133098160238401602089016124b1565b6133376133316023838501016f1039ba3937b5b29e913737b73291179f60811b815260100190565b86612b42565b9a9950505050505050505050565b600060ff821660ff810361335b5761335b61286f565b60010192915050565b634e487b7160e01b600052603260045260246000fd5b60006001820161338c5761338c61286f565b5060010190565b634e487b7160e01b600052603160045260246000fd5b6000826133b8576133b861295e565b500690565b6666696c6c3d222360c81b815260006007885160206133e182848701838e016124b1565b8951918501916133f681858501848e016124b1565b895192019161340a81858501848d016124b1565b885192019161341e81858501848c016124b1565b875192019161343281858501848b016124b1565b865192019161344681858501848a016124b1565b601160f91b920192830191909152506008019897505050505050505056fe4142434445464748494a4b4c4d4e4f505152535455565758595a6162636465666768696a6b6c6d6e6f707172737475767778797a303132333435363738392b2fa2646970667358221220b0875ba3e5f7c1714ce390a9355c82e66ad7f37c6375e238e901a16d1871fc7164736f6c634300080d0033",
  "linkReferences": {},
  "deployedLinkReferences": {}
}